:020000040800F2
:1000000000C0002039280008551F0008571F0008AD
:10001000591F00085B1F00085D1F0008000000005A
:10002000000000000000000000000000014800087F
:100030005F1F000800000000A1480008E548000814
:1000400081280008812800088128000881280008EC
:1000500081280008812800088128000881280008DC
:1000600081280008812800088128000881280008CC
:1000700081280008812800088128000881280008BC
:1000800081280008812800088128000881280008AC
:10009000812800088128000881280008812800089C
:1000A000812800088128000881280008812800088C
:1000B000812800088128000881280008812800087C
:1000C000812800088128000881280008812800086C
:1000D0008128000881280008611F0008711F00089E
:1000E000812800088128000881280008812800084C
:1000F000812800088128000881280008812800083C
:10010000812800088128000881280008812800082B
:100110008128000881280008811F0008911F00081D
:10012000812800088128000881280008812800080B
:1001300000000000000000000000000000000000BF
:1001400000000000000000000000000000000000AF
:10015000000000000000000000000000000000009F
:10016000000000000000000000000000000000008F
:10017000000000000000000000000000000000007F
:10018000000000000000000000000000000000006F
:10019000000000000000000000000000000000005F
:1001A000000000000000000000000000000000004F
:1001B000000000000000000000000000000000003F
:1001C000000000000000000000000000000000002F
:1001D000000000000000000000000000000000001F
:0401E0005FF8E0F1F3
:1001F00010B5054C237833B9044B13B10448AFF361
:1002000000800123237010BDC00900200000000001
:100210003CDC000808B5034B1BB103490348AFF3AE
:10022000008008BD00000000C40900203CDC00087C
:1002300081F0004102E000BF83F0004330B54FEA97
:1002400041044FEA430594EA050F08BF90EA020F04
:100250001FBF54EA000C55EA020C7FEA645C7FEA97
:10026000655C00F0E2804FEA5454D4EB5555B8BFBA
:100270006D420CDD2C4480EA020281EA030382EA2B
:10028000000083EA010180EA020281EA0303362DBD
:1002900088BF30BD11F0004F4FEA01314FF4801C90
:1002A0004CEA113102D0404261EB410113F0004FA2
:1002B0004FEA03334CEA133302D0524263EB430359
:1002C00094EA050F00F0A780A4F10104D5F1200EF7
:1002D0000DDB02FA0EFC22FA05F2801841F1000152
:1002E00003FA0EF2801843FA05F359410EE0A5F126
:1002F00020050EF1200E012A03FA0EFC28BF4CF057
:10030000020C43FA05F3C01851EBE37101F000450C
:1003100007D54FF0000EDCF1000C7EEB00006EEB19
:100320000101B1F5801F1BD3B1F5001F0CD34908A3
:100330005FEA30004FEA3C0C04F101044FEA4452FA
:1003400012F5800F80F09A80BCF1004F08BF5FEA81
:10035000500C50F1000041EB045141EA050130BD61
:100360005FEA4C0C404141EB0101013C28BFB1F573
:10037000801FE9D291F0000F04BF01460020B1FABE
:1003800081F308BF2033A3F10B03B3F120020CDA91
:100390000C3208DD02F1140CC2F10C0201FA0CF06F
:1003A00021FA02F10CE002F11402D8BFC2F1200CD4
:1003B00001FA02F120FA0CFCDCBF41EA0C0190408A
:1003C000E41AA2BF01EB0451294330BD6FEA0404D3
:1003D0001F3C1CDA0C340EDC04F11404C4F12002BE
:1003E00020FA04F001FA02F340EA030021FA04F3D0
:1003F00045EA030130BDC4F10C04C4F1200220FA27
:1004000002F001FA04F340EA0300294630BD21FA64
:1004100004F0294630BD94F0000F83F4801306BF2A
:1004200081F480110134013D4EE77FEA645C18BF1E
:100430007FEA655C29D094EA050F08BF90EA020FB5
:1004400005D054EA000C04BF1946104630BD91EAAD
:10045000030F1EBF0021002030BD5FEA545C05D1B0
:100460004000494128BF41F0004130BD14F58004EF
:100470003CBF01F5801130BD01F0004545F0FE4163
:1004800041F470014FF0000030BD7FEA645C1ABF98
:10049000194610467FEA655C1CBF0B46024650EACF
:1004A000013406BF52EA033591EA030F41F40021FB
:1004B00030BD00BF90F0000F04BF0021704730B581
:1004C0004FF4806404F132044FF000054FF0000156
:1004D00050E700BF90F0000F04BF0021704730B517
:1004E0004FF4806404F1320410F0004548BF4042EC
:1004F0004FF000013EE700BF42004FEAE2014FEA41
:1005000031014FEA02701FBF12F07F4393F07F4F1B
:1005100081F06051704732F07F4208BF704793F01E
:100520007F4F04BF41F40021704730B54FF4607431
:1005300001F0004521F000411CE700BF50EA010234
:1005400008BF704730B54FF000050AE050EA0102DD
:1005500008BF704730B511F0004502D5404261EB4D
:1005600041014FF4806404F132045FEA915C3FF48E
:10057000D8AE4FF003025FEADC0C18BF03325FEA2B
:10058000DC0C18BF033202EBDC02C2F1200300FADC
:1005900003FC20FA02F001FA03FE40EA0E0021FA01
:1005A00002F11444BDE600BF70B54FF0FF0C4CF4EF
:1005B000E06C1CEA11541DBF1CEA135594EA0C0FA1
:1005C00095EA0C0F00F0DEF82C4481EA030621EADC
:1005D0004C5123EA4C5350EA013518BF52EA033517
:1005E00041F4801143F4801338D0A0FB02CE4FF0C9
:1005F0000005E1FB02E506F00042E0FB03E54FF0F9
:100600000006E1FB03569CF0000F18BF4EF0010EF0
:10061000A4F1FF04B6F5007F64F5407404D25FEAEC
:100620004E0E6D4146EB060642EAC62141EA55519F
:100630004FEAC52040EA5E504FEACE2EB4F1FD0CE1
:1006400088BFBCF5E06F1ED8BEF1004F08BF5FEA5F
:10065000500E50F1000041EB045170BD06F0004611
:1006600046EA010140EA020081EA0301B4EB5C04BE
:10067000C2BFD4EB0C0541EA045170BD41F48011B6
:100680004FF0000E013C00F3AB8014F1360FDEBFDB
:10069000002001F0004170BDC4F10004203C35DAB7
:1006A0000C341BDC04F11404C4F1200500FA05F33A
:1006B00020FA04F001FA05F240EA020001F00042DB
:1006C00021F0004110EBD37021FA04F642EB060151
:1006D0005EEA430E08BF20EAD37070BDC4F10C047B
:1006E000C4F1200500FA04F320FA05F001FA04F23F
:1006F00040EA020001F0004110EBD37041F100012B
:100700005EEA430E08BF20EAD37070BDC4F1200535
:1007100000FA05F24EEA020E20FA04F301FA05F29D
:1007200043EA020321FA04F001F0004121FA04F245
:1007300020EA020000EBD3705EEA430E08BF20EA15
:10074000D37070BD94F0000F0FD101F0004640004F
:1007500041EB010111F4801F08BF013CF7D041EAD1
:10076000060195F0000F18BF704703F000465200D5
:1007700043EB030313F4801F08BF013DF7D043EAA6
:100780000603704794EA0C0F0CEA135518BF95EA5C
:100790000C0F0CD050EA410618BF52EA4306D1D1E3
:1007A00081EA030101F000414FF0000070BD50EA02
:1007B000410606BF1046194652EA430619D094EA8C
:1007C0000C0F02D150EA013613D195EA0C0F05D176
:1007D00052EA03361CBF104619460AD181EA0301CA
:1007E00001F0004141F0FE4141F470014FF0000082
:1007F00070BD41F0FE4141F4780170BD70B54FF01D
:10080000FF0C4CF4E06C1CEA11541DBF1CEA13559C
:1008100094EA0C0F95EA0C0F00F0A7F8A4EB05047E
:1008200081EA030E52EA03354FEA013100F0888075
:100830004FEA03334FF0805545EA131343EA12633E
:100840004FEA022245EA111545EA10654FEA0026F3
:100850000EF000419D4208BF964244F1FD0404F5AC
:10086000407402D25B084FEA3202B61A65EB030508
:100870005B084FEA32024FF480104FF4002CB6EBC5
:10088000020E75EB030E22BFB61A754640EA0C0045
:100890005B084FEA3202B6EB020E75EB030E22BF85
:1008A000B61A754640EA5C005B084FEA3202B6EBC6
:1008B000020E75EB030E22BFB61A754640EA9C0085
:1008C0005B084FEA3202B6EB020E75EB030E22BF55
:1008D000B61A754640EADC0055EA060E18D04FEA13
:1008E000051545EA16754FEA06164FEAC30343EAB3
:1008F00052734FEAC2025FEA1C1CC0D111F4801F80
:100900000BD141EA00014FF000004FF0004CB6E778
:1009100011F4801F04BF01430020B4F1FD0C88BF17
:10092000BCF5E06F3FF6AFAEB5EB030C04BFB6EB22
:10093000020C5FEA500C50F1000041EB045170BD15
:100940000EF0004E4EEA113114EB5C04C2BFD4EB42
:100950000C0541EA045170BD41F480114FF0000EC6
:10096000013C90E645EA060E8DE60CEA135594EA42
:100970000C0F08BF95EA0C0F3FF43BAF94EA0C0F45
:100980000AD150EA01347FF434AF95EA0C0F7FF4BA
:1009900025AF104619462CE795EA0C0F06D152EA0E
:1009A00003353FF4FDAE1046194622E750EA4106F2
:1009B00018BF52EA43067FF4C5AE50EA41047FF403
:1009C0000DAF52EA43057FF4EBAE12E74FF0FF3C68
:1009D00006E000BF4FF0010C02E000BF4FF0010C39
:1009E0004DF804CD4FEA410C7FEA6C5C4FEA430CB2
:1009F00018BF7FEA6C5C1BD001B050EA410C0CBF01
:100A000052EA430C91EA030F02BF90EA020F002062
:100A1000704710F1000F91EA030F58BF994208BFC9
:100A200090422CBFD8176FEAE37040F00100704786
:100A30004FEA410C7FEA6C5C02D150EA013C07D1DD
:100A40004FEA430C7FEA6C5CD6D152EA033CD3D028
:100A50005DF8040B704700BF8446104662468C4622
:100A60001946634600E000BF01B5FFF7B7FF002855
:100A700048BF10F1000F01BD4DF808EDFFF7F4FF7E
:100A80000CBF012000205DF808FB00BF4DF808ED09
:100A9000FFF7EAFF34BF012000205DF808FB00BF2C
:100AA0004DF808EDFFF7E0FF94BF012000205DF84E
:100AB00008FB00BF4DF808EDFFF7CEFF94BF012003
:100AC00000205DF808FB00BF4DF808EDFFF7C4FFFC
:100AD00034BF012000205DF808FB00BF4FEA41024F
:100AE00012F5001215D211D56FF47873B3EB625280
:100AF00012D94FEAC12343F0004343EA505311F0A7
:100B0000004F23FA02F018BF404270474FF0000038
:100B1000704750EA013005D111F0004008BF6FF076
:100B2000004070474FF00000704700BF4A0011D2EC
:100B300012F5001211D20DD56FF47873B3EB625237
:100B40000ED44FEAC12343F0004343EA505323FA43
:100B500002F070474FF00000704750EA013002D1B8
:100B60004FF0FF3070474FF000007047844641EA75
:100B7000000313F0030349D1403A23D30B68036009
:100B80004B6843608B688360CB68C3600B6903610B
:100B90004B6943618B698361CB69C3610B6A0362F3
:100BA0004B6A43628B6A8362CB6AC3620B6B0363DB
:100BB0004B6B43638B6B8363CB6BC36340304031C0
:100BC000403ADBD230320BD30B6803604B68436092
:100BD0008B688360CB68C36010301031103AF3D259
:100BE0000C3205D351F8043B40F8043B043AF9D2E7
:100BF000043208D0D2071CBF11F8013B00F8013BBA
:100C000001D30B8803806046704700BF082A13D3C6
:100C10008B07B1D010F00303AED0C3F10403D21A96
:100C2000DB071CBF11F8013B00F8013BA4D331F8EE
:100C3000023B20F8023B9FE7043AD9D3013A11F86E
:100C4000013B00F8013BF9D20B7803704B784370FD
:100C50008B788370604670474FEA410C7FEA6C5C8A
:100C600002D150EA013C0AD14FEA430C7FEA6C5CA6
:100C700002D152EA033C02D14FF0000070474FF01E
:100C80000100704753B94AB9002908BF00281CBFAA
:100C90004FF0FF314FF0FF3000F076B9ADF1080CA6
:100CA0006DE904CE00F006F8DDF804E0DDE902238A
:100CB00004B070472DE9F047089E0D46044688466B
:100CC000002B4DD18A42944668D9B2FA82F252B1D1
:100CD00001FA02F3C2F1200120FA01F10CFA02FC40
:100CE00041EA030894404FEA1C41B8FBF1F71FFAB0
:100CF0008CFE01FB178807FB0EF0230C43EA084328
:100D000098420AD91CEB030307F1FF3580F01E81DE
:100D1000984240F21B81023F63441B1AB3FBF1F07F
:100D200001FB103300FB0EFEA4B244EA0344A645C7
:100D30000AD91CEB040400F1FF3380F00981A645B9
:100D400040F20681644402380021A4EB0E0440EA1C
:100D500007401EB10023D440C6E90043BDE8F08738
:100D60008B4208D9002E00F0EE800021C6E9000574
:100D70000846BDE8F087B3FA83F100294AD1AB42B7
:100D800002D3824200F2FC80841A65EB0303012047
:100D90009846002EE2D0C6E90048DFE702B9FFDE40
:100DA000B2FA82F2002A40F09180A1EB0C000121FE
:100DB0004FEA1C471FFA8CFEB0FBF7F307FB13004A
:100DC000250C45EA00450EFB03F0A84208D91CEBB0
:100DD000050503F1FF3802D2A84200F2CE80434657
:100DE0002D1AB5FBF7F007FB10550EFB00FEA4B261
:100DF00044EA0544A64508D91CEB040400F1FF357C
:100E000002D2A64500F2B6802846A4EB0E0440EAC2
:100E100003409EE7C1F120078B4022FA07FC4CEA11
:100E2000030C25FA07FA4FEA1C49BAFBF9F820FA35
:100E300007F309FB18AA8D401FFA8CFE1D4300FA28
:100E400001F308FB0EF02C0C44EA0A44A04202FA1B
:100E500001F20BD91CEB040408F1FF3A80F0888002
:100E6000A04240F28580A8F102086444241AB4FB31
:100E7000F9F009FB104400FB0EFEADB245EA044454
:100E8000A64508D91CEB040400F1FF356CD2A64539
:100E90006AD90238644440EA0840A0FB0295A4EBFA
:100EA0000E04AC42C846AE4656D353D0002E69D08D
:100EB000B3EB080264EB0E0422FA01F304FA07F71D
:100EC0001F43CC40C6E90074002147E70CFA02FC3E
:100ED000C2F1200125FA01F34FEA1C4720FA01F183
:100EE00095400D43B3FBF7F107FB11331FFA8CFE5E
:100EF000280C40EA034001FB0EF3834204FA02F49B
:100F000008D91CEB000001F1FF382FD283422DD904
:100F100002396044C01AB0FBF7F307FB1300ADB20F
:100F200045EA004503FB0EF0A84208D91CEB050575
:100F300003F1FF3816D2A84214D9023B6544281A9F
:100F400043EA014138E73146304607E72F46E4E6F9
:100F50001846F9E64B45A9D2B9EB020865EB0C0E31
:100F60000138A3E74346EAE7284694E74146D1E73C
:100F7000D0467BE76444023847E7023B65442FE7ED
:100F8000084606E73146E9E6704700BF002009E061
:100F9000074A5A2101FB00220021D1540133592B69
:100FA000F6DD0130592801DC0023F8E7704700BF67
:100FB000DC09002000B58646002303604360184624
:100FC0009C4610E00133592B0CDC0A4A5A2101FBE4
:100FD0000022D25C6245F5D9CEF80000CEF804308C
:100FE0009446EFE70130592801DC0023EBE7704617
:100FF0005DF804FBDC0900202DE9F04F89B0049076
:1010000005910392FFF7C2FF4FF0000BDA467BE039
:101010000BF10A0BBBF5B47F74DA0AEB4A04584BA8
:1010200003EBC4046068FFF755FA06460F46A06854
:10103000FFF750FA804689460398FFF74BFA0446BB
:101040000D465846FFF746FA4BA3D3E90023FFF7B6
:10105000ABFA02460B46CDE900230BF007FC024633
:101060000B4620462946FFF79FFA32463B46FFF7DC
:10107000E5F806460F46DDE900010BF049FC0246A3
:101080000B4620462946FFF78FFA42464B46FFF7AC
:10109000D5F804460D4600223A4B30463946FFF754
:1010A000ADFB06460F460022364B20462946FFF789
:1010B000A5FB04460D460022002330463946FFF7C3
:1010C000BDF806460F4600222F4B20462946FFF763
:1010D000B5F804460D4630463946FFF7FFFC064694
:1010E00020462946FFF7FAFC592E91D800288FDBBD
:1010F00059288DDC254B5A2202FB0636335C01331E
:10110000335485E70AF1010ABAF5B47F11DA0AEB24
:101110004A031B4A02EBC3039B781D2BF2D90AEB4F
:101120004A0332F83330B3F5FA6FEBD84FF0000BC7
:1011300070E706A8FFF73EFF069A079B13495A205F
:1011400000FB0211C95C0498816002EB820252002C
:1011500002602D3B03EB83035B004360059B9942D8
:1011600005D20023C360049809B0BDE8F08F049B4A
:10117000039ADA60F7E700BF1839359D46DF913FE3
:10118000503200200000244000804640DC0900204E
:1011900000B5A1B0002400947C22214601A805F0EE
:1011A00063FB104B1B88104A4021684605F0AEFBDC
:1011B0000E4D4FF0FF31286804F0CAF8684605F07C
:1011C000E7FB642382B26946094802F0DBFE23464E
:1011D00022462146286803F0BCFE4FF47A7003F0E3
:1011E000EBF9D7E72C58002058DC000884290020B0
:1011F000BC59002000B583B004F014FF0D4B1860FB
:1012000001220D490D4803F006F902E0012003F028
:10121000D3F9002001904FF0FF3301AA194605F0E1
:1012200009F80128F2D1019A054B9A42EED100F05B
:10123000E1F9EBE7242E0020A02D0020045A002025
:101240007856341208B50A4B1A680A4B1A6004F033
:10125000E9FE094B186001220849094803F0DBF850
:1012600000F08EFA0028FBD1012003F0A5F9F7E782
:1012700084290020402E002090290020285400209E
:101280004C5A002000B585B000F014FC00F014FCAE
:10129000FFF77CFE0BE0DDE9020100F069FD00F0E4
:1012A000FDFC00200B4900F019FD00F001FD0120BC
:1012B00003F082F9684600F017FC009B002BEAD18E
:1012C00000F0ECFC0020034900F008FD00F0F0FC09
:1012D000EDE700BF00004E4070B598B006E0204C2E
:1012E000206804F06FFD206804F054FB012003F037
:1012F00063F97D220A2104A8FFF77EFE00240894EA
:101300003C22214609A805F0AFFA079D069B0293EF
:10131000059B0193049B00932B46124A402108A889
:1013200005F0F4FA104E4FF0FF31306804F010F879
:1013300008A805F02DFB642382B208A90B4802F02F
:1013400021FE234622462146306803F002FE002D8E
:10135000C5D100224FF40041054801F009FDC5E761
:101360009429002068DC000884290020BC59002052
:101370000008014008B5144803F040F9134B186009
:10138000134A0021134803F0A1F8134B1860134AC5
:101390000021134803F09AF8124B1860124A0021FA
:1013A000124803F093F8124B1860124A00211248B9
:1013B00003F08CF8114B1860114A0021114803F01A
:1013C00085F8114B186008BD00DD00088429002055
:1013D00010DD0008911100088829002034DD000884
:1013E000F51100088C29002058DD0008451200087E
:1013F000902900207CDD0008851200089429002037
:10140000DCDC0008D91200088029002030B589B042
:10141000002404940594069407941D4B9A6942F0A5
:1014200020029A619A6902F020020092009A9A6959
:1014300042F004029A619A6902F004020192019A50
:101440009A6942F008029A619A6902F008020292CF
:10145000029A9A6942F010029A619B6903F01003A4
:101460000393039B0B4D22464FF40041284601F0A5
:101470007FFC4FF400430493012305930694022359
:10148000079304A9284601F053FB09B030BD00BF03
:10149000001002400008014084460023184605E081
:1014A0001CF803205040034A105C01339942F7DCDA
:1014B000704700BFA0DF0008844600231846994209
:1014C0000FDD10B41CF8032082EA1022054C34F919
:1014D000122082EA002080B201339942F2DC10BC73
:1014E00070477047A0DD000810B584B0244B1B681E
:1014F00013BB234B01221A60224B234A1A6040225D
:101500002249234802F087FF0023039303AA009295
:10151000032220492048006804F0D8FE039B4BB109
:101520004FF0E0234FF08052C3F8042DBFF34F8FEC
:10153000BFF36F8F04B010BD0024114B1C60114B22
:10154000124A1A6040221049114802F064FF0394C5
:1015500003AB0093234603220E490F48006804F0B2
:10156000B5FE039B002BE5D04FF0E0234FF08052F7
:10157000C3F8042DBFF34F8FBFF36F8FDAE700BFBF
:10158000202E00209C2D0020A02D0020E02D0020EA
:10159000045A002078563412242E00200000000047
:1015A000402820D038B50C46412800D038BDC86846
:1015B00000F10040FEF7A0FF0D4DC5E900012069D4
:1015C00000F10040FEF798FFC5E902016069FEF7EF
:1015D00093FF02460B4604A1D1E90001FEF72CFE61
:1015E000C5E90401E2E770474AD8124DFB211940D2
:1015F000282E0020F8B5404B196819B33F4B1B68E3
:101600004033B3F5806F02D33C4B00221A603B4B52
:1016100018680B463A4A02444031D3F800C05D686E
:101620009C68D868C2F800C055609460D0601033E0
:1016300010328B42F1D1314A1368403313602E4B84
:1016400000221A60002400E001342C4B1B68052B9B
:1016500014D92A4B1B68043BA3420DD9284D042101
:101660002819FFF719FF2B5DFC2BEDD1231DEB5C37
:101670008342E9D1012302E0002300E0002343B9C3
:101680001F4C04212046FFF707FF2378FC2B0BD0CB
:10169000F8BD1A4D2A681A48121B0119FFF766FA9D
:1016A0002B681C1B2C60EBE723798342F0D1677811
:1016B000A57805F10804114B1B689C42E8D8104836
:1016C0004379867946EA032629460730FFF7F4FE78
:1016D00086420AD0094D2A680948121B0119FFF7F2
:1016E00045FA2B681C1B2C60D2E72A460549384670
:1016F000FFF756FFEEE700BF9C2D0020982D00203D
:10170000982900209F29002003460022104608E067
:1017100013F801CB8CEA000C044810F80C000132DD
:1017200092B21FFA81FC9445F2D87047A0E00008FD
:1017300008B50E4B1B6863B90C4B01221A600C4BA9
:101740000C4A1A604FF400720B490C4802F063FE19
:1017500008BD064B00221A60054B074A1A604FF479
:1017600000720449054802F056FEF1E728580020AF
:101770004832002028540020285600204C5A0020CF
:101780002DE9F04F85B07C4B1968C1B17B4B1B68CC
:1017900003F50073B3F5806F02D9784B00221A600D
:1017A000764C23684FF4007275481844FFF7DEF951
:1017B000236803F5007323606F4B00221A60002436
:1017C00000E001346D4B1B68022B11D96B4B1B6879
:1017D000013BA3420AD96A4B1B5D542BF1D1631C18
:1017E000674AD35C2C2BECD1012302E0002300E0FC
:1017F000002343B9614B1B682E2B0FD800242046D1
:1018000005B0BDE8F08F5D4D2A685D48121B0119D7
:10181000FFF7ACF92B681C1B2C60EBE7584C2E2112
:101820002046FFF771FF94F82E3083420CD000243D
:10183000524D2A6852482F3A00F12F01FFF796F9CE
:101840002B682F3B2B60DAE7A18D4E4A1180608D0B
:10185000B4F804B0A0EB0B00FEF73CFE00224A4BAC
:10186000FEF7CCFFCDE900010025CDF80CB049E032
:101870000024464B04EB440203EBC20623F832106B
:10188000B070FEF727FE804689462046FEF722FE0E
:1018900035A3D3E90023FEF787FE82468B460AF084
:1018A000E5FF02460B4640464946FEF77DFEFFF740
:1018B00015F97060504659460BF02AF802460B465F
:1018C00040464946FEF770FEFFF708F9B060304B1E
:1018D000D3E9042350465946FEF7B0FC80468946BA
:1018E000C6E9048922A3D3E90023FFF7EDF840B14C
:1018F0001FA3D3E9002340464946FEF79DFCC6E9F5
:10190000040101350B2D2BDC2846FEF7E3FDDDE954
:101910000023FEF749FE06460F460398FEF7DAFD60
:1019200032463B46FEF78AFC00221A4BFEF766FF62
:10193000FFF7D4F8034605EB4501114A0A44D18864
:1019400088B2C3F50774B4F5B47F01DDC3F1B40404
:10195000002C8DDBB4F5B47F8BDD4FF4B47488E7D5
:10196000012465E7AFF300801839359D46DF913FCC
:101970004AD8124DFB211940483200204432002041
:10198000442E00202C580020000026405032002019
:10199000282E00200000594008B50368064A9342EB
:1019A00003D0064A934203D008BDFFF79DFDFBE735
:1019B000FFF7BEFEF8E700BF0044004000480040CB
:1019C00010B504460268074B9A4204D02268064BC1
:1019D0009A4203D010BD00F067FFF7E700F0AAFEBF
:1019E000F8E700BF001000400014004072B6FEE7A8
:1019F00000B591B02822002106A804F035FF00238D
:101A000001930293039304930593012206924FF4EA
:101A1000803307930A9202220D920E934FF4E01343
:101A20000F9306A801F0C0F980B90F23019302219A
:101A30000291002303934FF480620492059301A85E
:101A400001F0E4FB20B911B05DF804FBFFF7CEFF15
:101A5000FFF7CCFF08B500F015FFFFF7C9FFFFF750
:101A6000D5FC00F045FC00F0FBFA00F053FB00F061
:101A7000B5FC00F0CDFC00F0E5FC00F023FB00F02D
:101A8000A7FD094801F07EFD0421084802F0B8F8DE
:101A90000421074802F0B4F802F0D0FCFFF76AFC1A
:101AA00002F0EEFCFEE700BF2C590020E4580020B5
:101AB000745900207047000010B5094C282323609A
:101AC0006360084BD3E9042303A1D1E90001FEF7C9
:101AD000B3FBC4E9020110BD4AD8124DFB211940E5
:101AE00030580020282E002070B5002404602346C2
:101AF00000E001332C2B0FDC03EB4302664901EBC2
:101B0000C20292781D2AF4D903EB430231F8322045
:101B1000C72AEED80134ECE72D2300E00133592B1E
:101B20000FDC03EB43025C4901EBC20292781D2AF1
:101B3000F4D903EB430231F83220952AEED8013470
:101B4000ECE740F23B1300E00133B3F5B47F0FDA6A
:101B500003EB4302504901EBC20292781D2AF3D9EC
:101B600003EB430231F83220C72AEDD80134EBE70A
:101B70004FF4877300E00133B3F59D7F0FDC03EB77
:101B80004302454901EBC20292781D2AF3D903EBC7
:101B9000430231F83220952AEDD80134EBE7042CCA
:101BA0005BDD00231E464FF4B4744FF0FF3518E0A0
:101BB00003EB430231F83220FA2A20D91D461EE0F9
:101BC00003EB4302344931F83220F92A1AD81C4673
:101BD00018E0A646AC4616464FF4B4744FF0FF35F5
:101BE0000133B3F5B47F18DA03EB43022A4901EB62
:101BF000C20292781D2AF3D9B5F1FF3FD8D0B4F5CF
:101C0000B47FDDD0B4F5B47FEAD0621BB242E0DC31
:101C10004FF4B4744FF0FF35E2E7B5F1FF3F04D065
:101C2000631BB34201DDA646AC460CF11E0CAEF1BF
:101C30001E0EF44501DA002412E001230360F4448F
:101C40000CEBDC7C2CF0010303EB6C0C124B03EB74
:101C5000CC03D3E90423C0E9022370BD0CF1010CCD
:101C6000F445FADC0CEB4C030B4A02EBC3039B7804
:101C70001D2BF3D90CEB4C0332F83310A142EDD9F4
:101C8000012303600CEB4C0302EBC303D3E90423F1
:101C9000C0E902230C46E1E750320020034B00204C
:101CA0000021C3E90001C3E9020170474058002048
:101CB000074BD3E90001074AC2E90801D3E9020151
:101CC000024601F100430449C1E90823704700BFFF
:101CD00040580020985A0020F05A0020D0B50646FF
:101CE0000F46094C02460B46D4E90001FEF7A6FA5E
:101CF000C4E9000132463B46D4E90201FEF79EFAF0
:101D0000C4E90201D0BD00BF40580020D0B506464E
:101D10000F46094C02460B46D4E90001FEF78CFA47
:101D2000C4E9000132463B46D4E90201FEF786FAD7
:101D3000C4E90201D0BD00BF40580020D0B506461E
:101D40000F46094C02460B46D4E90001FEF776FA2D
:101D5000C4E9000132463B46D4E90201FEF76CFAC1
:101D6000C4E90201D0BD00BF4058002000000000BF
:101D7000F8B506460F4607E0FFF790FF20462946D4
:101D8000FFF7C4FFFFF794FF3B4BD3E90423304632
:101D90003946FEF751FA054621F0004430A3D3E955
:101DA000002328462146FEF771FE002850D100226C
:101DB000324B28462146FEF7F7FB04460D4600222B
:101DC0002F4BFEF781FE08B100242D4D2A4BD3E99D
:101DD000042330463946FEF72FFA00220023FEF78F
:101DE00073FEB0B1244BD3E9042330463946FEF7E5
:101DF00023FA1DA3D3E90023FEF766FE0028BBD01B
:101E0000FFF74CFF20462946FFF798FFFFF750FFEA
:101E1000BAE7194BD3E9042330463946FEF70CFAEA
:101E200013A3D3E90023FEF74FFE40B1FFF736FFBF
:101E300020462946FFF782FFFFF73AFFA4E7FFF7A6
:101E40002DFF20462946FFF761FFFFF731FF9BE793
:101E5000FFF724FFFFF72CFFF8BD00BFAFF30080B2
:101E60007B14AE47E17A843F4AD8124DFB210940EA
:101E70004AD8124DFB2109C0282E00200080614065
:101E800000004E4000B583B0114B9A6942F0010248
:101E90009A619A6902F001020092009ADA6942F0AE
:101EA0008052DA61DB6903F080530193019B0022C9
:101EB0000F216FF0010000F01BFD064A536823F06C
:101EC000E06343F00073536003B05DF804FB00BFB0
:101ED000001002400000014000B589B00146002218
:101EE000362000F005FD362000F03AFD154BDA698A
:101EF00042F01002DA61DB6903F010030193019BE9
:101F000002A903A801F05EFA01F03CFA43000E4872
:101F1000A0FB03239B0C013B0C480D4A026040F2DE
:101F2000E732C260436000230361836001F074FC08
:101F300018B1012009B05DF804FB044801F022FB50
:101F4000F8E700BF0010024083DE1B43505800201A
:101F500000100040FEE7FEE7FEE7FEE7FEE7704701
:101F600008B5024802F0F8F808BD00BF045A002086
:101F700008B5024802F0F0F808BD00BF4C5A002036
:101F800008B5024801F03FFB08BD00BF50580020D3
:101F900008B5024801F037FB08BD00BF2C590020EE
:101FA0000120704708B504F035FC162303604FF09C
:101FB000FF3008BD08B54FF0FF31FFF7F3FFFEE734
:101FC00070B50C461646002506E0AFF300802146AA
:101FD00001F8010B01350C46B542F6DB304670BD09
:101FE00070B50C461646002504E014F8010BAFF35B
:101FF00000800135B542F8DB304670BD4FF0FF3050
:1020000070474FF400534B60002070470120704729
:102010000020704710B503460C4A0D490D48006872
:1020200040B10C4800680344521A934206D8094A4A
:10203000136010BD0748084C0460F2E704F0EAFBA7
:102040000C2303604FF0FF30F3E700BF00C0002017
:102050000010000098580020D8930020704700001E
:1020600000B58DB02422002103A804F0FDFB00235D
:10207000019302931148124A0260436083604FF655
:10208000FF72C260036183610323039301230593FD
:10209000099303A901F018FC50B90023019302939E
:1020A00001A9064801F012FE28B90DB05DF804FB45
:1020B000FFF79CFCF1E7FFF799FCF6E7E4580020F6
:1020C0000008004000B583B00023009301930F483F
:1020D0000F4A026047224260836040F2E732C260EA
:1020E000836101F099FB50B9002300930193694685
:1020F000064801F0EBFD28B903B05DF804FBFFF7DB
:1021000075FCF1E7FFF772FCF6E700BF2C590020E1
:102110000014004000B58DB02422002103A804F073
:10212000A3FB0023019302931248134A0260436009
:1021300083604FF6FF72C2600361436183610323D2
:10214000039301230593099303A901F0BDFB50B943
:1021500000230193029301A9064801F0B7FD28B9B5
:102160000DB05DF804FBFFF741FCF1E7FFF73EFC23
:10217000F6E700BF745900200034014000B583B079
:102180000368134A934205D0124A93420DD003B01C
:102190005DF804FB104BDA6942F00202DA61DB6998
:1021A00003F002030093009BF1E70B4BDA6942F066
:1021B0002002DA61DB6903F020030193019B002216
:1021C0000421372000F094FB372000F0C9FBDEE744
:1021D00000040040001400400010024000B589B027
:1021E0000023049305930693079303681E4A9342C2
:1021F00005D01E4A93421CD009B05DF804FB1C4B6D
:10220000DA6942F00402DA61DA6902F0040200924B
:10221000009A9A6942F008029A619B6903F00803E8
:102220000193019BC023049304A9124800F080FC91
:10223000E2E70F4B9A6942F400529A619A6902F4FC
:1022400000520292029A9A6942F010029A619B69C6
:1022500003F010030393039BC023049304A90648CF
:1022600000F066FCC8E700BF0008004000340140F1
:1022700000100240000C01400010014010B586B073
:10228000002302930393049305930268154B9A422B
:1022900001D006B010BD03F503339A6942F0040281
:1022A0009A619A6902F004020092009A9A6942F0D7
:1022B00008029A619B6903F008030193019BC02304
:1022C000029302240394059402A9074800F030FC0D
:1022D000032302930394059402A9044800F028FC08
:1022E000D7E700BF0004004000080140000C014097
:1022F00000B58FB000230A930B930C930D930893B2
:102300000993019302930393049305930693079310
:102310003048314A026047224260836040F2E7322F
:10232000C2600361836101F077FA002839D14FF46C
:1023300080530A930AA9274801F0D4FB002833D11F
:10234000244801F095FA002831D10023089309931D
:1023500008A9204801F0BAFC60BB60230193002269
:1023600002920392059201A91A4801F041FB20BB99
:1023700004220DEB0201174801F03AFB00BB0822D2
:1023800001A9144801F034FBE8B90C2201A9114855
:1023900001F02EFBD0B90F48FFF770FF0FB05DF8CA
:1023A00004FBFFF723FBC2E7FFF720FBC8E7FFF7BB
:1023B0001DFBCAE7FFF71AFBCFE7FFF717FBD7E7CD
:1023C000FFF714FBDBE7FFF711FBDEE7FFF70EFB80
:1023D000E1E700BF9C5800200004004008B50A480F
:1023E0000A4B03604FF4E133436000238360C36012
:1023F00003610C2242618361C36101F093FD00B966
:1024000008BDFFF7F3FAFBE7BC5900200038014094
:1024100008B50A480A4B03604FF4E13343600023D8
:102420008360C36003610C2242618361C36101F078
:1024300079FD00B908BDFFF7D9FAFBE7045A00207F
:102440000044004008B50A480A4B03604FF4E133EA
:10245000436000238360C36003610C224261836197
:10246000C36101F05FFD00B908BDFFF7BFFAFBE7EC
:102470004C5A00200048004030B58BB00023069332
:1024800007930893099303684B4A934207D04B4A3A
:1024900093422ED04A4A93425BD00BB030BD494B99
:1024A0009A6942F480429A619A6902F480420092E9
:1024B000009A9A6942F004029A619B6903F004034E
:1024C0000193019B4FF400730693022307930323A8
:1024D00009933D4C06A9204600F02AFB4FF4806387
:1024E000069300230793089306A9204600F020FBDB
:1024F000D3E7344BDA6942F40032DA61DA6902F484
:1025000000320292029A9A6942F004029A619B692F
:1025100003F004030393039B04230693022307930E
:1025200003230993284D06A9284600F001FB082340
:10253000069300240794089406A9284600F0F8FAA8
:1025400022460521262000F0D3F9262000F008FAC3
:10255000A3E71C4BDA6942F48022DA61DA6902F4FB
:1025600080220492049A9A6942F008029A619B6957
:1025700003F008030593059B4FF480630693022341
:10258000079303230993114D06A9284600F0D0FABA
:102590004FF40063069300240794089406A9284684
:1025A00000F0C6FA22462146272000F0A1F9272094
:1025B00000F0D6F971E700BF003801400044004048
:1025C000004800400010024000080140000C01409B
:1025D0002DE9F003DFF860C00026184FCCE9006752
:1025E0000024174DCCE9024500220023CCE9042346
:1025F000CCE908230EA1D1E90001CCE910014FF08C
:102600000008DFF84090CCE91289DFF83CC0CCE943
:102610000067CCE90245CCE90423CCE90823CCE9E6
:102620001001CCE91289BDE8F0037047AFF30080D8
:102630000000000000408FC0985A002000008E402B
:1026400000006E4000408F40F05A00202DE9F04716
:102650008246D0E90C23C0E90E23D0E90A23C0E961
:102660000C2300F12001D1E90001DAE90623FDF78E
:10267000E3FDCAE90A01DAE90045DAE90A01DAE923
:102680000C23FDF7D9FD02460B4620462946FDF7EF
:102690008BFF04460D46DAE90201DAE90A23FDF769
:1026A00083FF02460B4620462946FDF7C7FD044638
:1026B0000D46DAE90467DAE90A89DAE90C0102462B
:1026C0000B46FDF7BBFD02460B4640464946FDF76B
:1026D000B3FDDAE90E23FDF7B1FD02460B463046A5
:1026E0003946FDF761FF02460B4620462946FDF7B5
:1026F000A5FD02460B46DAE91401FDF79FFDCAE984
:102700001401DAE91401DAE91223FEF7DDF918B150
:10271000DAE91223CAE91423DAE91401DAE9102309
:10272000FEF7B4F918B1DAE91023CAE91423BDE8B9
:10273000F0870000F8B53B4B1D68686A00B2FDF7F2
:10274000C9FE394CC4E9060100276F62374B1E6889
:10275000706A00B2FDF7BEFE354DC5E9060177622D
:102760002046FFF773FF2846FFF770FF0022002383
:10277000D4E91401FEF7A8F9D8B12E4B1C682A4BF6
:10278000D3E91401FEF7D2F9E063276400220023A5
:102790002749D1E91401FEF797F930B3254B1C689E
:1027A000234BD3E91401FEF7C1F960630023A3634F
:1027B000F8BD002200231C49D1E91401FEF766F997
:1027C00028B91C4B1B680022DA631A64DEE7194B38
:1027D0001C680023E363144BD3E91456284606F122
:1027E0000041FEF7A3F92064D0E70022002310493E
:1027F000D1E91401FEF74AF928B90E4B1B680022F3
:102800005A639A63D4E70B4B1C6800236363084B3D
:10281000D3E91456284606F10041FEF787F9A06374
:10282000C6E700BF74590020985A0020E4580020E1
:10283000F05A00209C580020FFF710FC0B480C4970
:102840000C4A002302E0D458C4500433C4188C420C
:10285000F9D3094A094C002301E013600432A24273
:10286000FBD303F0DDFFFFF7F5F870470000002011
:10287000C009002084E70008C0090020D49300208C
:10288000FEE7000008B5074A136843F01003136021
:10289000032000F01BF80F20FFF71EFBFFF7F2FAF2
:1028A000002008BD00200240034A1168034B1B783A
:1028B0000B441360704700BF485B002004000020F9
:1028C000014B1868704700BF485B0020074AD36877
:1028D00023F4E0631B041B0C000200F4E0600343DC
:1028E00043F0BF6343F40033D360704700ED00E072
:1028F00000B5194BDB68C3F30223C3F1070CBCF12D
:10290000040F28BF4FF0040C03F1040EBEF1060FB4
:1029100018D9033B4FF0FF3E0EFA0CFC21EA0C01E4
:1029200099400EFA03F322EA0303194300280BDB54
:102930000901C9B200F1604000F5614080F8001360
:102940005DF804FB0023E5E700F00F000901C9B2C0
:10295000024B1954F4E700BF00ED00E014ED00E075
:10296000002807DB00F01F02400901239340024AC0
:1029700042F82030704700BF00E100E090F82130BD
:10298000DBB2022B06D004238363002380F82030BF
:10299000012070470268136823F00E031360026879
:1029A000136823F001031360036CC16B012202FA68
:1029B00003F34B6080F82120002380F82030184674
:1029C0007047000008B590F82130DBB2022B03D02D
:1029D00004238363012008BD0268136823F00E03FB
:1029E00013600268136823F00103136003684C4A04
:1029F00093424ED9783A934224D01432934230D045
:102A0000143293422FD0143293422FD01432934277
:102A10002FD0143293422FD0143293422FD002F58C
:102A2000627293422ED0143293422DD014329342CC
:102A30002CD01432934202D04FF4803203E04FF492
:102A4000805200E00122374B5A60012380F8213088
:102A5000002380F82030436B002B5ED09847002085
:102A6000B9E71022EFE74FF48072ECE74FF48052A1
:102A7000E9E74FF48032E6E74FF48012E3E74FF0E6
:102A80008072E0E70122DEE71022DCE74FF480727B
:102A9000D9E7254A934224D01432934225D01432E8
:102AA000934224D01432934224D01432934224D03F
:102AB0001432934224D01432934224D002F562722D
:102AC000934223D01432934222D01432934221D025
:102AD0001432934202D04FF4803203E04FF480521C
:102AE00000E00122114B5A60AFE71022FAE74FF4E1
:102AF0008072F7E74FF48052F4E74FF48032F1E749
:102B00004FF48012EEE74FF08072EBE70122E9E725
:102B10001022E7E74FF48072E4E700205BE700BF94
:102B20008000024000040240080002400000024011
:102B300070B582B00024A446B0E0874DAA4210D000
:102B400007D9864DAA420CD005F58035AA4208D097
:102B500013E0A5F58015AA4203D005F57025AA4219
:102B600007D18A68002A62D0012A5BD04361082419
:102B700003E0A5F58015AA42F3D0BEF1FF0F58D8A7
:102B80000646BEF1FF0F56D84FEA8C0233680F2578
:102B9000954023EA050304FA02F2134333604B68BD
:102BA00013F0805F78D06E4B9A6942F001029A610F
:102BB0009B6903F001030193019B4FEA9C02951C62
:102BC000684B53F825600CF003039D000F23AB40C6
:102BD00026EA0306644B984233D003F5806398429B
:102BE00000F0988003F58063984200F0958003F52B
:102BF0008063984200F0928003F58063984200F071
:102C00008F8003F58063984219D006231AE0CC68C0
:102C1000B3E7CC680434B0E7CC680834ADE7CC68DF
:102C20000C34AAE703610824A7E70024A5E70424DD
:102C3000A3E7061DA5E7ACF108029200A6E705236D
:102C400000E00023AB4033430232464D45F82230CA
:102C50004B6813F4801F65D0444A936843EA0E031F
:102C600093604B6813F4001F62D0404AD36843EA74
:102C70000E03D3604B6813F4003F5FD03B4A5368A8
:102C800043EA0E0353604B6813F4803F5CD0374A2D
:102C9000136843EA0E0313600CF1010C0A6832FA60
:102CA0000CF357D0012303FA0CF302EA030E33EAC4
:102CB0000202F1D14A68122A3FF63FAF122A3FF6CC
:102CC0005CAF01A555F822F0632B00080F2C00081B
:102CD000192C00082B2C00087B2B00087B2B0008EC
:102CE0007B2B00087B2B00087B2B00087B2B00082C
:102CF0007B2B00087B2B00087B2B00087B2B00081C
:102D00007B2B00087B2B00087B2B0008132C000872
:102D10001F2C0008012395E7022393E7032391E783
:102D200004238FE7114A936823EA0E03936098E720
:102D30000E4AD36823EA0E03D3609BE70B4A53681D
:102D400023EA0E0353609EE7084A136823EA0E0342
:102D50001360A1E702B070BD000022100000311026
:102D60000010024000000140000801400004014042
:102D70000AB10161704709040161704782B0084BD4
:102D80001B68084AA2FB03235B0A00FB03F30193C1
:102D900000BF019B5A1E0192002BF9D102B070476F
:102DA00000000020D34D6210002800F0F18170B5C2
:102DB00082B00446036813F0010F2CD0994B5B6876
:102DC00003F00C03042B1DD0964B5B6803F00C033F
:102DD000082B12D06368B3F5803F41D0002B55D14A
:102DE00003F1804303F504331A6822F480321A6039
:102DF0001A6822F480221A6037E08A4B5B6813F469
:102E0000803FE7D0874B1B6813F4003F03D0636813
:102E1000002B00F0BF81236813F0020F75D0814BA7
:102E20005B6813F00C0F5FD07E4B5B6803F00C0304
:102E3000082B54D02369002B00F08A807A4B0122A2
:102E40001A60FFF73DFD0546764B1B6813F0020F35
:102E500075D1FFF735FD401B0228F5D903209EE10F
:102E6000704A136843F480331360636843B3FFF719
:102E700027FD05466B4B1B6813F4003FCBD1FFF7D2
:102E80001FFD401B6428F5D9032088E1B3F5A02F6E
:102E900009D0644B1A6822F480321A601A6822F44E
:102EA00080221A60E1E703F18043A3F53C331A68FE
:102EB00042F480221A601A6842F480321A60D4E721
:102EC000FFF7FEFC0546574B1B6813F4003FA2D0EA
:102ED000FFF7F6FC401B6428F5D903205FE1514B56
:102EE0005B6813F4803FA5D14E4B1B6813F0020FB3
:102EF00003D02369012B40F04F814A4A136823F025
:102F0000F803616943EAC1031360236813F0080FF3
:102F100033D0A369002B5CD0434B0122C3F880243B
:102F2000FFF7CEFC05463F4B5B6A13F0020F21D141
:102F3000FFF7C6FC401B0228F5D903202FE1394AD0
:102F4000136823F0F803616943EAC1031360DCE707
:102F5000354B00221A60FFF7B3FC0546314B1B6866
:102F600013F0020FD1D0FFF7ABFC401B0228F5D9BC
:102F7000032014E10120FFF701FF236813F0040F81
:102F800000F09680274BDB6913F0805F34D1254B2E
:102F9000DA6942F08052DA61DB6903F08053019311
:102FA000019B0125214B1B6813F4807F26D0E36829
:102FB000012B3DD0002B53D103F1804303F50433A3
:102FC0001A6A22F001021A621A6A22F004021A62D4
:102FD00033E0154B0022C3F88024FFF771FC05464F
:102FE000104B5B6A13F0020FC7D0FFF769FC401B60
:102FF0000228F5D90320D2E00025D3E70B4A136855
:1030000043F480731360FFF75BFC0646074B1B68B5
:1030100013F4807FCBD1FFF753FC801B6428F5D9D4
:103020000320BCE00010024000004242007000405B
:103030005F4A136A43F001031362E36833B3FFF797
:103040003FFC06465A4B1B6A13F0020F2FD1FFF7C5
:1030500037FC801B41F288339842F3D903209EE06D
:10306000052B09D0524B1A6A22F001021A621A6A21
:1030700022F004021A62E0E74D4B1A6A42F00402A1
:103080001A621A6A42F001021A62D6E7FFF718FCC8
:103090000646474B1B6A13F0020F08D0FFF710FCDF
:1030A000801B41F288339842F3D9032077E0E5B9D9
:1030B000E369002B72D03E4A526802F00C02082AE3
:1030C00056D0022B17D03B4B00221A66FFF7F8FBB5
:1030D0000446374B1B6813F0007F47D0FFF7F0FB27
:1030E000001B0228F5D9032059E0314AD36923F0A7
:1030F0008053D361DCE72F4B00221A66FFF7E0FB19
:1031000005462B4B1B6813F0007F06D0FFF7D8FB5A
:10311000401B0228F5D9032041E0236AB3F5803F24
:103120001AD023494B6823F47413226A606A02435D
:1031300013434B601F4B01221A66FFF7C1FB044685
:103140001B4B1B6813F0007F0ED1FFF7B9FB001B70
:103150000228F5D9032022E0154A536823F40033EE
:10316000A1680B435360DCE7002018E0002016E064
:10317000012B16D00E4B5B6803F48031226A91421A
:1031800011D103F47013626A93420ED1002006E05D
:1031900001207047012002E0012000E0002002B081
:1031A00070BD0120FBE70120F9E70120F7E700BF30
:1031B00000100240000042420F4B5B6803F00C021B
:1031C000082A01D00D487047C3F383420C49885C3C
:1031D00013F4803F0BD0084B5B68C3F34043094AAC
:1031E000D35C064A02FB00F0B0FBF3F07047064BDD
:1031F00003FB00F0704700BF0010024000127A008D
:10320000B8E10008C8E1000800093D00002800F00E
:10321000A08070B50D460446524B1B6803F00703AF
:103220008B420BD24F4A136823F007030B43136002
:10323000136803F007038B4240F08D80236813F07E
:10324000020F17D013F0040F04D0474A536843F419
:10325000E0635360236813F0080F04D0424A5368B8
:1032600043F460535360404A536823F0F003A1686D
:103270000B435360236813F0010F31D06368012BB7
:1032800020D0022B25D0384A126812F0020F64D0E9
:1032900035494A6822F0030213434B60FFF710FBE5
:1032A0000646314B5B6803F00C036268B3EB820F98
:1032B00016D0FFF705FB801B41F288339842F0D906
:1032C000032045E0284A126812F4003FE0D10120B3
:1032D0003EE0254A126812F0007FD9D1012037E084
:1032E000204B1B6803F00703AB420AD91D4A136841
:1032F00023F007032B431360136803F00703AB426B
:103300002DD1236813F0040F06D0174A536823F415
:10331000E063E1680B435360236813F0080F07D0A4
:10332000114A536823F46053216943EAC10353608F
:10333000FFF742FF0C4B5B68C3F303130B4AD35CEC
:10334000D8400B4B18600B4B1868FEF7C5FD0020EA
:1033500070BD012070470120FAE70120F8E7012045
:10336000F6E700BF0020024000100240A0E1000884
:103370000000002008000020014B1868704700BFC3
:103380000000002008B5FFF7F7FF044B5B68C3F3AC
:103390000223034AD35CD84008BD00BF001002409E
:1033A000B0E1000808B5FFF7E7FF044B5B68C3F323
:1033B000C223034AD35CD84008BD00BF00100240BE
:1033C000B0E100080F2303600B4B5A6802F00302C0
:1033D00042605A6802F0F00282605A6802F4E062C9
:1033E000C2605B68DB0803F4E0630361034B1B68A6
:1033F00003F007030B6070470010024000200240FA
:1034000030B4036A026A22F00102026242688469EF
:1034100024F073040D682C4323F0020C8B6843EAFC
:103420000C03104DA84203D005F50065A84205D154
:1034300023F00803CD682B4323F00403094DA84271
:1034400003D005F50065A84205D122F440724D690C
:103450002A438D692A43426084614A684263036259
:1034600030BC7047002C014030B4036A026A22F479
:10347000807202624268C46924F0730C0C6844EAEA
:103480000C0523F400738C6843EA0423114CA0421A
:1034900003D004F50064A04206D123F40063CC6895
:1034A00043EA042323F480630A4CA04203D004F5CA
:1034B0000064A04207D122F440524C6942EA04124F
:1034C0008C6942EA04124260C5614A68C2630362C1
:1034D00030BC7047002C014030B4036A026A22F409
:1034E000805202624468C26922F4E6420D6842EAF0
:1034F000052223F400538D6843EA0533094DA842A1
:1035000003D005F50065A84204D124F480444D6938
:1035100044EA85144460C2614A680264036230BCB4
:10352000704700BF002C014010B4036A046A24F005
:1035300001040462846924F0F00C4CEA021223F0C6
:103540000A030B438261036210BC704710B4036A24
:10355000046A24F010040462846924F4704C4CEA78
:10356000023223F0A00343EA01138261036210BC1C
:103570007047836823F070030B4343F007038360B5
:103580007047000090F83D30DBB2012B2FD10223B1
:1035900080F83D300268D36843F00103D3600368CC
:1035A000154A934218D002F50062934214D0B3F149
:1035B000804F11D0A2F5983293420DD002F580626F
:1035C000934209D002F58062934205D01A6842F016
:1035D00001021A60002070479A6802F00702062A6A
:1035E00007D01A6842F001021A60002070470120DB
:1035F00070470020704700BF002C014070477047A3
:1036000070477047704710B5044603681A6912F096
:10361000020F11D0DA6812F0020F0DD06FF0020223
:103620001A610123037703689B6913F0030F70D0BD
:10363000FFF7E6FF0023237723681A6912F0040FCF
:1036400012D0DA6812F0040F0ED06FF004021A6183
:103650000223237723689B6913F4407F5FD02046C1
:10366000FFF7CEFF0023237723681A6912F0080FB3
:1036700012D0DA6812F0080F0ED06FF008021A614B
:10368000042323772368DB6913F0030F4ED0204611
:10369000FFF7B6FF0023237723681A6912F0100F93
:1036A00012D0DA6812F0100F0ED06FF010021A610B
:1036B000082323772368DB6913F4407F3DD020463D
:1036C000FFF79EFF0023237723681A6912F0010F8A
:1036D00003D0DA6812F0010F36D123681A6912F0AC
:1036E000800F03D0DA6812F0800F34D123681A6992
:1036F00012F0400F03D0DA6812F0400F32D1236885
:103700001A6912F0200F03D0DA6812F0200F30D1BE
:1037100010BDFFF774FF2046FFF773FF8AE72046CE
:10372000FFF76DFF2046FFF76CFF9BE72046FFF792
:1037300066FF2046FFF765FFACE72046FFF75FFF17
:103740002046FFF75EFFBDE76FF001021A612046D9
:10375000FEF736F9C1E76FF080021A61204600F0EB
:10376000F4FAC3E76FF040021A612046FFF74AFF00
:10377000C5E76FF020021A61204600F0E5FAC7E7BE
:103780000368244A904212D002F5006290420ED0A3
:10379000B0F1804F0BD0A2F59832904207D002F5DD
:1037A0008062904203D002F58062904203D123F000
:1037B00070034A681343174A904212D002F5006220
:1037C00090420ED0B0F1804F0BD0A2F598329042CB
:1037D00007D002F58062904203D002F580629042E9
:1037E00003D123F44073CA68134323F080034A696A
:1037F000134303608B68C3620B688362054B984276
:1038000003D003F50063984201D10B6903630123E0
:1038100043617047002C014040B310B5044690F856
:103820003D30F3B1022384F83D30214651F8040BBA
:10383000FFF7A6FF012384F8463084F83E3084F871
:103840003F3084F8403084F8413084F8423084F8C6
:10385000433084F8443084F8453084F83D3000200B
:1038600010BD80F83C30FEF789FCDBE70120704793
:1038700040B310B5044690F83D30F3B1022384F80C
:103880003D30214651F8040BFFF77AFF012384F8FD
:10389000463084F83E3084F83F3084F8403084F875
:1038A000413084F8423084F8433084F8443084F85E
:1038B000453084F83D30002010BD80F83C30FFF7E3
:1038C0009DFEDBE701207047002857D070B50D46FC
:1038D000044690F83D30002B4BD0022384F83D3055
:1038E0002268936823F4804323F007039360214602
:1038F00051F8040BFFF744FF21688A688B690E6A50
:103900002868104323F4407C2CF0030CAA68AB69B0
:1039100042EA032343EA0C0323F47C4323F0FC0331
:10392000EA69D5F80CC04CEA022C4CEA030C2A6A6E
:1039300013032A6943EA021343EA0C0326F0220622
:103940006A686D6942EA05123243886021688B61BA
:1039500023681A62012384F8463084F83E3084F8E4
:103960003F3084F8423084F8433084F83D30002002
:1039700070BD80F83C30FEF731FCAEE701207047A7
:1039800030B4036A026A22F010020262446882695B
:1039900022F4E6420D6842EA052223F020038D68F6
:1039A00043EA0513114DA84203D005F50065A8426E
:1039B00006D123F08003CD6843EA051323F04003CA
:1039C0000A4DA84203D005F50065A84207D124F4AA
:1039D00040644D6944EA85048D6944EA8504446085
:1039E00082614A688263036230BC7047002C0140E8
:1039F00038B590F83C30012B66D004460D460123C3
:103A000080F83C300C2A5AD8DFE802F0075959599F
:103A10001B5959593059595944000068FFF7F0FCB7
:103A20002268936943F0080393612268936923F045
:103A3000040393612268936929690B439361002011
:103A40003EE00068FFF79CFF2268936943F400633F
:103A500093612268936923F4806393612268936978
:103A6000296943EA01239361002029E00068FFF7F8
:103A7000FBFC2268D36943F00803D3612268D36951
:103A800023F00403D3612268D36929690B43D3610E
:103A9000002015E00068FFF71FFD2268D36943F49A
:103AA0000063D3612268D36923F48063D361226801
:103AB000D369296943EA0123D361002000E0012092
:103AC000002384F83C3038BD0220FCE710B4846841
:103AD00024F47F4C42EA03220A4342EA0C02826049
:103AE00010BC704790F83C30012B78D010B50446DC
:103AF000012380F83C30022380F83D30026893684F
:103B000023F47F4323F0770393600B68602B4CD042
:103B100029D8402B54D00CD9502B22D1CA684968DF
:103B20000068FFF701FD50212068FFF722FD00200B
:103B300005E0202B0DD009D9302B0AD0012001231C
:103B400084F83D30002384F83C3010BD0BB1102BBD
:103B500005D119462068FFF70CFD0020EFE7012092
:103B6000EDE70120EBE7B3F5805F34D0B3F5005FFC
:103B70000CD1CB684A6889680068FFF7A7FF226804
:103B8000936843F4804393600020D8E7702B24D1DE
:103B9000CB684A6889680068FFF798FF22689368D5
:103BA00043F0770393600020C9E7CA68496800685A
:103BB000FFF7CCFC60212068FFF7DBFC0020BEE7AC
:103BC000CA6849680068FFF7AFFC40212068FFF72A
:103BD000D0FC0020B3E70020B1E70120AFE70220CE
:103BE000704701F01F01012303FA01FC036A23EA75
:103BF0000C030362036A02FA01F10B43036270478C
:103C000038B5044690F83E00C0B294F83F3094F8BE
:103C10004220D2B294F843C00D46B1B9012849D12F
:103C2000012A48D1022384F83E3084F842307DB323
:103C3000042D39D0012200212068FFF7D2FF012294
:103C400004212068FFF7CDFF27E0DBB25FFA8CFC90
:103C5000042912D0012833D1012B2CD1012A31D1D2
:103C6000BCF1010F30D1022384F83E3084F83F309C
:103C700084F8423084F84330D9E7012B1CD1BCF1E1
:103C8000010F1BD1022384F83F3084F84330CEE784
:103C9000012200212068FFF7A4FF2268136843F087
:103CA00001031360002006E0012204212068FFF7D1
:103CB00098FFF2E7012038BD0120FCE71846FAE73B
:103CC0000120F8E71846F6E71046F4E790F83C3094
:103CD000012B34D010B4012380F83C30022380F84B
:103CE0003D3003685A689C6822F0700C0A6842EA0A
:103CF0000C025A600368134A934212D002F5006224
:103D000093420ED0B3F1804F0BD0A2F5983293427C
:103D100007D002F58062934203D002F5806293429D
:103D200004D124F080044A6814439C60012380F885
:103D30003D30002380F83C30184610BC704702200C
:103D4000704700BF002C014070477047026802F1C5
:103D50000C0353E8003F23F490730C3242E8003127
:103D60000029F3D1026802F1140353E8003F23F065
:103D70000103143242E800310029F3D1036B012B17
:103D800005D0202380F84230002303637047026887
:103D900002F10C0353E8003F23F010030C3242E819
:103DA00000310029F3D1ECE790F84130DBB2212B50
:103DB00001D0022070478368B3F5805F17D0036A93
:103DC0005A1C02621A7803685A60C38C9BB2013B8A
:103DD0009BB2C3844BB90268D36823F08003D360DD
:103DE0000268D36843F04003D36000207047036942
:103DF000002BE4D1036A1B880268C3F308035360F5
:103E0000036A02330362E0E710B5044602681369EF
:103E100023F44053C1680B43136183680269134361
:103E200042691A430168CB6823F4B05323F00C03B2
:103E30001343CB600268536923F4407381690B43D9
:103E400053610268134B9A4220D0FFF79BFA024657
:103E500002EB820202EB820263689B00B2FBF3F288
:103E60000D48A0FB02314909642303FB11231B0108
:103E70003233A0FB03235B0903F0F00202EB0112D3
:103E800003F00F03216813448B6010BDFFF78AFA1B
:103E90000246DDE7003801401F85EB512DE9F8436C
:103EA00005460F4616469946DDF820802C682468A2
:103EB00037EA04030CBF4FF0010C4FF0000CB4457F
:103EC0002DD1B8F1FF3FF1D0B8F1000F05D0FEF7CA
:103ED000F7FCA0EB09004045E8D92A6802F10C0381
:103EE00053E8003F23F4D0730C3242E8003100293C
:103EF000F3D12A6802F1140353E8003F23F00103D1
:103F0000143242E800310029F3D1202385F84130F2
:103F100085F84230002385F84030032000E000207F
:103F2000BDE8F88360B310B5044690F8413013B390
:103F3000242384F841302268D36823F40053D360EB
:103F40002046FFF761FF2268136923F49043136151
:103F50002268536923F02A0353612268D36843F42B
:103F60000053D36000206064202384F8413084F83B
:103F70004230606310BD80F84030FEF77DFAD7E72D
:103F8000012070472DE9F04182B01E4690F8413083
:103F9000DBB2202B4BD104460D46904600294AD077
:103FA0000AB9012044E000234364212380F8413012
:103FB000FEF786FC0746A4F82480A4F82680A368B0
:103FC000B3F5805F02D04FF000080FE02369FBB12A
:103FD0004FF000080AE038F8023B2268C3F30803F8
:103FE0005360E28C92B2013A92B2E284E38C9BB2CB
:103FF0008BB100963B46002280212046FFF74EFF02
:10400000D8B9002DE7D015F8012B23685A60E8E7EE
:10401000A8460025EAE700963B46002240212046BC
:10402000FFF73CFF58B9202384F8413000E002201C
:1040300002B0BDE8F0810120FAE70320F8E7032091
:10404000F6E7704708B50168CA6822F04002CA6006
:10405000202280F84120FFF7F4FF002008BD7047C0
:1040600008B5406A0023C385C384FFF7F8FF08BD85
:10407000704790F84230DBB2222B69D18368B3F5E8
:10408000805F4FD0826AB3F5805F04D0002B56D199
:104090000369002B53D103685B681370836A013393
:1040A0008362C38D9BB2013B9BB2C385002B51D170
:1040B00000B583B00268D36823F02003D3600268A0
:1040C000D36823F48073D3600268536923F001033B
:1040D0005361202380F8423000234363036B012B9C
:1040E00033D100230363026802F10C0353E8003F5D
:1040F00023F010030C3242E800310029F3D10368A9
:104100001A6812F0100F06D0002201921A6801926C
:104110005B680193019B818DFFF7AAFF002003B02C
:104120005DF804FB0269002AACD1826A03685B680F
:10413000C3F308031380836A02338362B1E7036821
:104140005B6803F07F031370A8E7FDF725FCE5E744
:10415000022070470020704730B583B004460268E3
:104160001368D068516913F00F0505D113F0200FC3
:1041700002D010F0200F19D12DB111F0010119D189
:1041800010F4907F16D1216B01297DD013F0800FA0
:1041900003D010F0800F40F0188113F0400F03D0CF
:1041A00010F0400F40F0158103B030BD2046FFF7FE
:1041B00060FFF9E713F0010F06D010F4807F03D001
:1041C000626C42F00102626413F0040F04D019B172
:1041D000626C42F00202626413F0020F04D019B163
:1041E000626C42F00402626413F0080F07D010F012
:1041F000200F00D119B1626C42F008026264626C57
:10420000002AD1D013F0200F02D010F0200F29D1B6
:1042100023685B6903F04003626C12F0080F00D161
:1042200063B32046FFF792FD23685B6913F0400FEC
:1042300020D0226802F1140353E8003F23F040032A
:10424000143242E800310029F3D1E36B73B1634AC1
:104250005A63E06BFEF7B6FB0028A5D0E06B436B1A
:104260009847A1E72046FFF704FFD1E72046FFF774
:10427000F6FE99E72046FFF7F2FE95E72046FFF7A6
:10428000EEFE002363648FE713F0100F3FF47EAF60
:1042900010F0100F3FF47AAF0023019313680193DD
:1042A00053680193019B536913F0400F51D0E26BA7
:1042B00013685B689BB2002B3FF476AFA18D9942E7
:1042C0007FF672AFE3859369202B37D0226802F125
:1042D0000C0353E8003F23F480730C3242E80031B2
:1042E0000029F3D1226802F1140353E8003F23F0C0
:1042F0000103143242E800310029F3D1226802F1AF
:10430000140353E8003F23F04003143242E8003125
:104310000029F3D1202384F842300023236322684C
:1043200002F10C0353E8003F23F010030C3242E883
:1043300000310029F3D1E06BFEF720FB0223636319
:10434000A18DE38D9BB2C91A89B22046FFF790FE7A
:104350002AE7A18DE38D9BB2C91A89B2E38D9BB286
:10436000002B3FF421AF00293FF41EAF226802F179
:104370000C0353E8003F23F490730C3242E8003002
:104380000028F3D1226802F1140353E8003F23F020
:104390000103143242E800300028F3D1202384F8CE
:1043A000423000232363226802F10C0353E8003FEC
:1043B00023F010030C3242E800300028F3D102232E
:1043C00063632046FFF754FEEEE62046FFF7ECFC61
:1043D000EAE62046FFF736FEE6E600BF6140000849
:1043E00081628285C28500234364222380F84230A3
:1043F000036923B10268D36843F48073D360026811
:10440000536943F0010353610268D36843F020030A
:10441000D3600020704708B590F84230DBB2202B03
:1044200008D149B10AB9012008BD00230363FFF791
:10443000D7FFF9E70220F7E70120F5E7EFF305835F
:1044400093B9EFF3108393B90C4B1868022804D08A
:1044500080B90A4B01221A607047EFF31183002BD9
:10446000F6D06FF0050070476FF0050070476FF0F1
:10447000050070474FF0FF30704700BFA85D002077
:1044800008B5EFF30583B3B9EFF31083B3B90E4B5F
:104490001B68022B08D0012B13D10B4B02221A6090
:1044A00001F0BCFA002008BDEFF31182002AF2D01F
:1044B0006FF00500F7E76FF00500F4E76FF0050017
:1044C000F1E74FF0FF30EEE7A85D0020F0B587B0D0
:1044D00000240494EFF30584002C43D1EFF3108300
:1044E000002B3FD1334B1B68022B16D0002839D04C
:1044F00000238DF8173062B3156895B1936903B93D
:1045000018235C1E372C51D8546814F0010F4FD17A
:1045100056694EB14FEA960C08E0EFF311830BBBDE
:10452000E4E70DF11705E9E74FF0800C94682CB132
:10453000D7685B2F02D9176907B1B6B914B14FF02C
:10454000FF340CE0D46894B914699CB14FF0FF3487
:1045500005E0002418234FF0800C0DF11705012C05
:104560000AD0ACB1049807B0F0BD0124F7E74FF0D2
:10457000FF34F4E70024F2E7146992680292019490
:1045800000930B466246294601F096F90490E9E74C
:1045900004AA019200930B461FFA8CF2294601F0FF
:1045A000C5F90128DED000230493DBE70020DAE719
:1045B0000020D8E7A85D002008B5EFF30583A3B974
:1045C000EFF31083A3B90C4B1B68022B02D040B948
:1045D000002008BDEFF31183002BF8D06FF0050029
:1045E000F7E701F07FFB0020F3E76FF00500F0E74D
:1045F0006FF00500EDE700BFA85D002070B5EFF398
:104600000583002B4ED10446EFF310821346002A97
:104610004BD1284A1268022A23D004B1636813F0F0
:10462000010600D0012613F0080F40D17CB3A16829
:1046300011B1E3684F2B1FD8C9B14FF0FF337BBBDB
:104640004EB3042000F055FD05462DB104B1246899
:104650002146284600F050FF2DB326B345F0010552
:1046600021E0EFF31182002AD7D000251BE0E36898
:104670007BB14FF0FF33E2E726B1042000F044FDA8
:104680000546E2E7012000F03FFD0546DDE7002397
:10469000D5E70023D3E7012000F02BFD0546D4E742
:1046A0000025D9E70025284670BD0025FBE7002539
:1046B000F9E700BFA85D0020034B0360034B0B60CC
:1046C00080231360704700BF4C5D00204C5B0020CE
:1046D000034B0360034B0B604FF480731360704710
:1046E000AC610020AC5D002000F1080343604FF096
:1046F000FF328260C36003610023036070470023C0
:104700000361704743684B609A688A6051609960A2
:104710000861036801330360704730B40D68B5F178
:10472000FF3F11D000F108031C465B681A68AA42DB
:10473000FAD963684B6099608C60616008610368B6
:104740000133036030BC70470469F2E703694168D4
:1047500082688A60416851605A68824206D00022AD
:1047600002611A68013A1A601868704782685A60D4
:10477000F5E7000082B0002301930D4B1B68B3F1F5
:10478000FF3F08D04FF0500383F31188BFF36F8FC2
:10479000BFF34F8FFEE74FF0500383F31188BFF351
:1047A0006F8FBFF34F8F019B002BFCD002B070477F
:1047B0000C00002006480068006880F3088862B694
:1047C00061B6BFF34F8FBFF36F8F00DF00BF0000F4
:1047D00008ED00E04FF0807340F8043C21F0010147
:1047E00040F8081C034B40F80C3C40F8202C4038A3
:1047F000704700BF7547000800000000000000007F
:10480000074B19680868B0E8F00F80F30988BFF318
:104810006F8F4FF0000080F311884EF00D0E70473F
:10482000608D00204FF0500383F31188BFF36F8F2A
:10483000BFF34F8F0B4A136801331360012B00D075
:1048400070474FF0E023D3F8043D13F0FF0FF7D08B
:104850004FF0500383F31188BFF36F8FBFF34F8F77
:10486000FEE700BF0C000020094B1B6843B94FF066
:10487000500383F31188BFF36F8FBFF34F8FFEE7B1
:10488000013B034A13600BB983F31188704700BFE3
:104890000C000020000000000000000000000000EC
:1048A000EFF30980BFF36F8F0D4B1A6820E9F00F0B
:1048B00010602DE908404FF0500080F3118801F09E
:1048C00037FA4FF0000080F31188BDE808401968FE
:1048D0000868B0E8F00F80F30988BFF36F8F704766
:1048E000608D002008B54FF0500383F31188BFF3AB
:1048F0006F8FBFF34F8F01F0EDF828B14FF0E02339
:104900004FF08052C3F8042D002383F3118808BDB3
:104910004FF0E022002313619361054B1B680549AA
:10492000A1FB03139B09013B5361072313617047EC
:1049300000000020D34D621010B582B02A4B1A78C7
:10494000D2B20192FF221A701B78DBB28DF80330CD
:104950009DF8033003F05003244A1370244B0722C0
:104960001A6009E0224A1368013B13609DF8033086
:104970005B00DBB28DF803309DF8033013F0800F3D
:10498000F0D11B4B1B68032B08D04FF0500383F36F
:104990001188BFF36F8FBFF34F8FFEE71B02144ADE
:1049A000136003F4E0631360019BDBB20E4A1370E3
:1049B0004FF0E023D3F8202D42F47002C3F8202DED
:1049C000D3F8202D42F07042C3F8202DFFF7A0FF4E
:1049D0000024084B1C60FFF7EDFE01F0A9F9FFF77A
:1049E000C9FE204602B010BD00E400E008620020CD
:1049F0000C6200200C000020EFF305830F2B0FD971
:104A0000114A9B5CDBB2114A12789A4208D94FF0E6
:104A1000500383F31188BFF36F8FBFF34F8FFEE70F
:104A20004FF0E023D3F80C3D03F4E063084A12682A
:104A3000934208D94FF0500383F31188BFF36F8F6F
:104A4000BFF34F8FFEE77047F0E300E008620020FD
:104A50000C620020134A12F0070F1FD0D11D21F065
:104A60000701C1F52B53383313440A460E48026040
:104A7000002141601344083B23F007030B48036007
:104A800059601960991A51601360094B1960094BFC
:104A90001960094B4FF000421A60704742F6F82344
:104AA000E4E700BF14620020188D0020106200208F
:104AB000148D0020108D00200C8D0020154B1A46FF
:104AC0001B688342FBD3516802EB010C844509D07B
:104AD000416800EB010C634509D00360904218D097
:104AE000106070474068014451601046F0E710B410
:104AF000094C2468A3420AD05B68194441601368DA
:104B00001B680360904200D0106010BC70470460C6
:104B1000F8E77047188D00201062002070B5054638
:104B200000F0CAFF344B1B68A3B1344B1B681D4215
:104B30004AD135B1083515F0070F02D025F0070529
:104B40000835002D42D02E4B1B68AB424DD32D4A69
:104B5000146804E0FFF77EFFE7E722461C4663681F
:104B6000AB4202D22368002BF7D1234B1B68A34230
:104B70003DD0166808362368136063685B1B102BF2
:104B800010D9601910F0070F08D04FF0500383F3CD
:104B90001188BFF36F8FBFF34F8FFEE743606560EF
:104BA000FFF78CFF626816490B689B1A0B60164969
:104BB00009688B4201D214490B60104B1B681343E8
:104BC00063600023236002E0002600E0002601F07D
:104BD0000DF816F0070F0CD04FF0500383F3118837
:104BE000BFF36F8FBFF34F8FFEE70026EFE700267E
:104BF000EDE7304670BD00BF106200200C8D002034
:104C0000108D0020188D0020148D002080B338B541
:104C10000446A0F1080550F8043C164A12681342F5
:104C200008D14FF0500383F31188BFF36F8FBFF3A8
:104C30004F8FFEE750F8081C41B14FF0500383F34B
:104C40001188BFF36F8FBFF34F8FFEE723EA020394
:104C500040F8043C00F030FF54F8041C064A136886
:104C60000B4413602846FFF729FF00F0BFFF38BD53
:104C7000704700BF0C8D0020108D00200346406A55
:104C800018B11B6B1868C0F13800704710B50446A6
:104C9000FFF7C8FDA26BE36B9A4204D00024FFF734
:104CA000E3FD204610BD0124F9E710B50446FFF7E7
:104CB000B9FDA36B23B90124FFF7D6FD204610BD33
:104CC0000024F9E770B504461546866B026C5AB9A4
:104CD00003681BB100200136A66370BD406801F077
:104CE00003FA00236360F6E76DB98068FBF73EFFC7
:104CF000226CA3681344A3606268934219D32368AB
:104D0000A3602846E7E7C068FBF730FF226C5142FA
:104D1000E3689B1AE3602268934202D263680B4403
:104D2000E360022D01D00020D5E726B1013E00202E
:104D3000D1E72846CFE70020CDE708B50346026C4F
:104D400062B10846D9681144D960D3F804C06145FE
:104D500001D31968D960D968FBF708FF08BD38B5D9
:104D60000546FFF75FFD95F8454064B201E0013C60
:104D700064B2002C0ADD6B6A43B105F1240001F036
:104D8000B7F80028F3D001F047F9F0E7FF2385F8E2
:104D90004530FFF769FDFFF745FD95F8444064B2E3
:104DA00001E0013C64B2002C0ADD2B6943B105F13E
:104DB000100001F09DF80028F3D001F02DF9F0E784
:104DC000FF2385F84430FFF74FFD38BD38B5E0B11B
:104DD0000D460446FFF726FD2368E26B216C01FBBC
:104DE000023060600020A063A360013A02FB01333F
:104DF000E360FF2384F8443084F84530FDB923692B
:104E000063B9FFF731FD012038BD4FF0500383F344
:104E10001188BFF36F8FBFF34F8FFEE704F11000CF
:104E200001F066F80028ECD04FF0E0234FF08052FC
:104E3000C3F8042DBFF34F8FBFF36F8FE1E704F189
:104E40001000FFF751FC04F12400FFF74DFCD8E7F8
:104E500038B51D46049C0B4649B92460E0632364C1
:104E600001212046FFF7B2FF84F84C5038BD226084
:104E7000F4E740B94FF0500383F31188BFF36F8F0D
:104E8000BFF34F8FFEE710B584B01C46844653B184
:104E900092B189B94FF0500383F31188BFF36F8F3C
:104EA000BFF34F8FFEE74FF0500383F31188BFF33A
:104EB0006F8FBFF34F8FFEE76AB150230393039BBD
:104EC000502B13D04FF0500383F31188BFF36F8F33
:104ED000BFF34F8FFEE70029EFD04FF0500383F36D
:104EE0001188BFF36F8FBFF34F8FFEE7012384F864
:104EF000463000949DF818306046FFF7A9FF204621
:104F000004B010BD40B94FF0500383F31188BFF3D4
:104F10006F8FBFF34F8FFEE7F0B583B00C46154699
:104F20000746A1B101FB00F05030FFF7F7FD064640
:104F300050B1002380F8463000902B4600F150021B
:104F400021463846FFF784FF304603B0F0BD0846DF
:104F5000EAE7F0B585B0019288B10F461D460446D8
:104F6000B1B1022D20D1E36B012B1DD04FF05003C6
:104F700083F31188BFF36F8FBFF34F8FFEE74FF0BE
:104F8000500383F31188BFF36F8FBFF34F8FFEE79A
:104F9000036C002BE5D04FF0500383F31188BFF36F
:104FA0006F8FBFF34F8FFEE701F042F8064658B906
:104FB000019B002B48D04FF0500383F31188BFF3BF
:104FC0006F8FBFF34F8FFEE700263DE02A4639463C
:104FD0002046FFF777FE636A7BB948B14FF0E023C4
:104FE0004FF08052C3F8042DBFF34F8FBFF36F8F84
:104FF000FFF73AFC012005B0F0BD04F1240000F0F9
:1050000077FF0028F4D04FF0E0234FF08052C3F830
:10501000042DBFF34F8FBFF36F8FE9E7FFF724FC39
:105020000020E8E702A800F0A9FF012619E000230C
:1050300084F8443021E0002384F8453023E0204602
:10504000FFF78DFE00F0D2FDFFF7ECFBA26BE36BE8
:105050009A42BBD3022DB9D0019B002BDED0002E8B
:10506000E0D0FFF701FC00F027FDFFF7DBFB94F831
:10507000442052B2B2F1FF3FD9D094F8452052B249
:10508000B2F1FF3FD7D0FFF7EFFB01A902A800F074
:1050900081FFD8B92046FFF7F9FD0028CFD001994C
:1050A00004F1100000F0F0FE2046FFF758FE00F07B
:1050B0009DFD0028C8D14FF0E0234FF08052C3F887
:1050C000042DBFF34F8FBFF36F8FBDE72046FFF76F
:1050D00046FE00F08BFD00208DE748B108B50021A9
:1050E00041600160C1600B460A46FFF732FF08BD10
:1050F000704710B5024600210120FFF703FF044668
:10510000FFF7EBFF204610BD10B582B00B460090B4
:10511000002211460120FFF7ACFE0446FFF7DDFF39
:10512000204602B010BD2DE9F84390B10F46164657
:105130001C460546B1B1022C20D1EB6B012B1DD0D2
:105140004FF0500383F31188BFF36F8FBFF34F8F7E
:10515000FEE74FF0500383F31188BFF36F8FBFF367
:105160004F8FFEE7036C002BE5D04FF0500383F325
:105170001188BFF36F8FBFF34F8FFEE7FFF73CFC43
:10518000EFF311894FF0500383F31188BFF36F8F52
:10519000BFF34F8FAA6BEB6B9A4206D3022C04D05D
:1051A000002089F31188BDE8F88395F845804FFA0F
:1051B00088F8224639462846FFF784FDB8F1FF3FBC
:1051C00006D008F101035BB285F845300120E8E71D
:1051D0006B6A0BB90120E4E705F1240000F088FEBA
:1051E00018B126B101203060DBE70120D9E70120AA
:1051F000D7E7F0B585B0019290B10F460446C1B132
:1052000000F016FF064600BB019B002B5ED04FF05E
:10521000500383F31188BFF36F8FBFF34F8FFEE707
:105220004FF0500383F31188BFF36F8FBFF34F8F9D
:10523000FEE7036C002BE3D04FF0500383F311889B
:10524000BFF36F8FBFF34F8FFEE700263EE0394676
:105250002046FFF772FD013DA563236923B9FFF7DF
:1052600003FB012005B0F0BD04F1100000F040FE8A
:105270000028F4D04FF0E0234FF08052C3F8042D03
:10528000BFF34F8FBFF36F8FE9E7FFF7EDFA002011
:10529000E8E702A800F072FE012621E0002384F86E
:1052A000443029E0002384F845302BE02046FFF706
:1052B00056FD00F09BFC09E02046FFF750FD00F092
:1052C00095FC2046FFF7F1FC00283FD1FFF7AAFA32
:1052D000A56B002DBBD1019B002BD6D0002ED8D0C2
:1052E000FFF7C2FA00F0E8FBFFF79CFA94F84430AD
:1052F0005BB2B3F1FF3FD1D094F845305BB2B3F16C
:10530000FF3FCFD0FFF7B0FA01A902A800F042FE9C
:105310000028D1D12046FFF7C8FC0028C6D001994B
:1053200004F1240000F0B0FD2046FFF718FD00F066
:105330005DFC0028CAD14FF0E0234FF08052C3F843
:10534000042DBFF34F8FBFF36F8FBFE7002089E7B6
:1053500070B584B0019158B10446036C8BB14FF025
:10536000500383F31188BFF36F8FBFF34F8FFEE7B6
:105370004FF0500383F31188BFF36F8FBFF34F8F4C
:10538000FEE700F055FE054650B9019B5BB14FF0BA
:10539000500383F31188BFF36F8FBFF34F8FFEE786
:1053A0000026354655E0064653E0013BA3632368DB
:1053B0003BB123694BB9FFF757FA0126304604B0D9
:1053C00070BD00F029FF6060F3E704F1100000F009
:1053D0008FFD0028EFD04FF0E0234FF08052C3F84C
:1053E000042DBFF34F8FBFF36F8FE4E746B14FF04B
:1053F000500383F31188BFF36F8FBFF34F8FFEE726
:10540000FFF732FADAE702A800F0B8FD01252AE03A
:10541000002384F8443032E0002384F8453034E03F
:10542000FFF700FA606800F013FE0646FFF71CFA6B
:105430003BE02046FFF793FC00F0D8FB09E0204654
:10544000FFF78DFC00F0D2FB2046FFF72EFC002872
:1054500042D1FFF7E7F9A36B002BA6D1019B002BEC
:10546000C4D0002DCFD0FFF7FFF900F025FBFFF7E8
:10547000D9F994F844305BB2B3F1FF3FC8D094F847
:1054800045305BB2B3F1FF3FC6D0FFF7EDF901A99C
:1054900002A800F07FFD0028D1D12046FFF705FCCF
:1054A0000028C6D02368002BBAD0019904F124004B
:1054B00000F0EAFC2046FFF752FC00F097FB0028C2
:1054C000C7D14FF0E0234FF08052C3F8042DBFF353
:1054D0004F8FBFF36F8FBCE70EB900266EE7FFF763
:1054E000A1F92046FFF7CAFB0146606800F044FEC0
:1054F000FFF7BAF9F1E700000023072B0CD8074AA1
:1055000052F833200AB10133F7E7044A42F8331066
:1055100002EBC30358607047704700BF208D002026
:1055200070B504460D461646FFF77CF994F84430F2
:105530005BB2B3F1FF3F0DD094F845305BB2B3F1ED
:10554000FF3F0BD0FFF790F9A36B5BB12046FFF74D
:1055500006FC70BD002384F84430EDE7002384F896
:105560004530EFE73246294604F1240000F0A4FC60
:10557000ECE7000028B141690C4A91420AD00020B2
:1055800070474FF0500383F31188BFF36F8FBFF361
:105590004F8FFEE7836A064A934202D01BB1002078
:1055A0007047002070470120704700BF30920020F4
:1055B00018920020084B1B681B6823B9074B4FF05B
:1055C000FF321A607047044B1B68DB68DB685A685F
:1055D000024B1A60704700BF648D002010920020BB
:1055E0002DE9F04780460D4617469946089EDDF89E
:1055F00024A00A9C9200A521206B01F035F9236BB1
:1056000007F18042013A03EB820727F007074FF0CA
:10561000000CBCF10F0F0BD815F80C2004EB0C0399
:1056200083F8342015F80C3013B10CF1010CF0E7BD
:10563000002384F84330372E00D93726E662E6642B
:1056400000252565201DFFF75AF804F11800FFF723
:1056500056F82461C6F13806A6616462656584F86F
:1056600058504A4641463846FFF7B4F82060BAF130
:10567000000F01D0CAF80040BDE8F08738B500241B
:1056800007E004EB840293000E481844FFF72CF85F
:105690000134372CF5D90C4D2846FFF725F80B4C73
:1056A0002046FFF721F80A48FFF71EF80948FFF7E0
:1056B0001BF80948FFF718F8084B1D60084B1C60E1
:1056C00038BD00BF6C8D0020E4910020F8910020CF
:1056D000189200204492002030920020648D002017
:1056E000688D002010B50446FFF79CF8224A136825
:1056F00001331360214B1B685BB1214B1B686BB9F5
:105700001E4B1B68DA6AE36A9A4207D81B4B1C607F
:1057100004E01A4B1C601368012B29D0194A136846
:10572000013313606364E06A174B1B68984201D928
:10573000154B186000EB8000211D144B03EB80001B
:10574000FEF7E0FFFFF790F80D4B1B687BB10B4BAA
:105750001B68DA6AE36A9A4209D24FF0E0234FF0FD
:105760008052C3F8042DBFF34F8FBFF36F8F10BD6E
:10577000FFF784FFD2E700BFCC910020608D0020AE
:105780002C920020DC910020E09100206C8D002004
:1057900010B5044690F8593063B1012B11D0022B9B
:1057A0000ED04FF0500383F31188BFF36F8FBFF318
:1057B0004F8FFEE7006BFFF729FA2046FFF726FA26
:1057C00010BDFFF723FAFBE70F4B1B68D3B110B5F1
:1057D000FFF728F80D4BDB68DC68201DFEF7B6FFED
:1057E0000B4A1368013B1360074A1368013B1360BF
:1057F000FFF73AF82046FFF7CBFF034B1B68002B5F
:10580000E6D110BD704700BFD09100204492002027
:10581000CC91002008B5FFF7D7FF074B1B68012B81
:10582000F9D94FF0E0234FF08052C3F8042DBFF3B5
:105830004F8FBFF36F8FEEE76C8D002070B504467D
:105840000D46174B1E68174B18680430FEF77EFF95
:10585000B4F1FF3F0DD03444124B1B685C60A6428C
:1058600010D9114B18680F4B19680431FEF755FF1A
:1058700070BD002DEFD00B4B196804310B48FEF7BB
:1058800041FFF5E70A4B1868064B19680431FEF72B
:1058900044FF084B1B68A342EAD9064B1C60E7E7AC
:1058A00058920020608D0020688D002030920020EA
:1058B000648D00201092002030B587B00B9C7CB125
:1058C0000C9DB5B15C250495049D5C2D1AD04FF05C
:1058D000500383F31188BFF36F8FBFF34F8FFEE741
:1058E0004FF0500383F31188BFF36F8FBFF34F8FD7
:1058F000FEE74FF0500383F31188BFF36F8FBFF3C0
:105900004F8FFEE70C9D2C63022485F8594000243C
:105910000394029505AC01940A9C0094FFF760FE85
:105920000C98FFF7DFFE059807B030BD2DE9F04376
:1059300085B00746884614461E469000FFF7EEF8ED
:1059400000B381465C20FFF7E9F80546B0B1C0F826
:105950003090E5B1002385F85930039302950D9BF3
:1059600001930C9B00933346224641463846FFF78D
:1059700037FE2846FFF7B6FE012005E04846FFF750
:1059800045F9E6E74FF0FF3005B0BDE8F0834FF092
:10599000FF30F9E738B568B104461D4B1B688342F8
:1059A00007D0FEF73FFF2046FFF7E4FD58B9FEF7AA
:1059B0005BFF38BD4FF0500383F31188BFF36F8F47
:1059C000BFF34F8FFEE7251D2846FEF7BFFEE06AB6
:1059D000104B1B68984201D90E4B186000EB8000F9
:1059E00029460D4B03EB8000FEF78CFEE26A084B64
:1059F0001B68DB6A9A42DAD34FF0E0234FF0805203
:105A0000C3F8042DBFF34F8FBFF36F8FCFE700BFF5
:105A1000608D0020E09100206C8D002010B588B0D2
:105A200000240594069407AA06A905A8FEF744FEDB
:105A3000059B0293069B019300942346079A1849FD
:105A40001848FFF739FF184B186040B100F036FDD9
:105A5000012806D0B0F1FF3F18D008B010BD0020DB
:105A6000F6E74FF0500383F31188BFF36F8FBFF356
:105A70004F8F0E4B4FF0FF321A600D4B01221A6010
:105A80000C4B00221A60FEF757FFE6E74FF0500379
:105A900083F31188BFF36F8FBFF34F8FFEE700BF13
:105AA000CCE10008155800080C920020109200204C
:105AB0002C92002058920020024A13680133136090
:105AC000704700BFD8910020014B1868704700BF95
:105AD00058920020F8B53A4B1B68002B64D1394B23
