:020000040800F2
:1000000000C00020391B0008951200089712000854
:10001000991200089B1200089D12000800000000C1
:100020000000000000000000000000009134000803
:100030009F120008000000003135000875350008E7
:10004000811B0008811B0008811B0008811B000820
:10005000811B0008811B0008811B0008811B000810
:10006000811B0008811B0008811B0008811B000800
:10007000811B0008811B0008811B0008811B0008F0
:10008000811B0008811B0008811B0008811B0008E0
:10009000811B0008811B0008811B0008811B0008D0
:1000A000811B0008811B0008811B0008811B0008C0
:1000B000811B0008811B0008811B0008811B0008B0
:1000C000811B0008811B0008811B0008811B0008A0
:1000D000811B0008811B0008811B0008811B000890
:1000E000811B0008811B0008811B0008811B000880
:1000F000811B0008811B0008811B0008811B000870
:10010000811B0008811B0008811B0008811B00085F
:10011000811B0008811B0008A1120008B112000811
:10012000811B0008811B0008811B0008811B00083F
:1001300000000000000000000000000000000000BF
:1001400000000000000000000000000000000000AF
:10015000000000000000000000000000000000009F
:10016000000000000000000000000000000000008F
:10017000000000000000000000000000000000007F
:10018000000000000000000000000000000000006F
:10019000000000000000000000000000000000005F
:1001A000000000000000000000000000000000004F
:1001B000000000000000000000000000000000003F
:1001C000000000000000000000000000000000002F
:1001D000000000000000000000000000000000001F
:0401E0005FF8E0F1F3
:1001F00010B5054C237833B9044B13B10448AFF361
:1002000000800123237010BDC00900200000000001
:10021000ACB1000808B5034B1BB103490348AFF369
:10022000008008BD00000000C4090020ACB1000837
:1002300081F0004102E000BF83F0004330B54FEA97
:1002400041044FEA430594EA050F08BF90EA020F04
:100250001FBF54EA000C55EA020C7FEA645C7FEA97
:10026000655C00F0E2804FEA5454D4EB5555B8BFBA
:100270006D420CDD2C4480EA020281EA030382EA2B
:10028000000083EA010180EA020281EA0303362DBD
:1002900088BF30BD11F0004F4FEA01314FF4801C90
:1002A0004CEA113102D0404261EB410113F0004FA2
:1002B0004FEA03334CEA133302D0524263EB430359
:1002C00094EA050F00F0A780A4F10104D5F1200EF7
:1002D0000DDB02FA0EFC22FA05F2801841F1000152
:1002E00003FA0EF2801843FA05F359410EE0A5F126
:1002F00020050EF1200E012A03FA0EFC28BF4CF057
:10030000020C43FA05F3C01851EBE37101F000450C
:1003100007D54FF0000EDCF1000C7EEB00006EEB19
:100320000101B1F5801F1BD3B1F5001F0CD34908A3
:100330005FEA30004FEA3C0C04F101044FEA4452FA
:1003400012F5800F80F09A80BCF1004F08BF5FEA81
:10035000500C50F1000041EB045141EA050130BD61
:100360005FEA4C0C404141EB0101013C28BFB1F573
:10037000801FE9D291F0000F04BF01460020B1FABE
:1003800081F308BF2033A3F10B03B3F120020CDA91
:100390000C3208DD02F1140CC2F10C0201FA0CF06F
:1003A00021FA02F10CE002F11402D8BFC2F1200CD4
:1003B00001FA02F120FA0CFCDCBF41EA0C0190408A
:1003C000E41AA2BF01EB0451294330BD6FEA0404D3
:1003D0001F3C1CDA0C340EDC04F11404C4F12002BE
:1003E00020FA04F001FA02F340EA030021FA04F3D0
:1003F00045EA030130BDC4F10C04C4F1200220FA27
:1004000002F001FA04F340EA0300294630BD21FA64
:1004100004F0294630BD94F0000F83F4801306BF2A
:1004200081F480110134013D4EE77FEA645C18BF1E
:100430007FEA655C29D094EA050F08BF90EA020FB5
:1004400005D054EA000C04BF1946104630BD91EAAD
:10045000030F1EBF0021002030BD5FEA545C05D1B0
:100460004000494128BF41F0004130BD14F58004EF
:100470003CBF01F5801130BD01F0004545F0FE4163
:1004800041F470014FF0000030BD7FEA645C1ABF98
:10049000194610467FEA655C1CBF0B46024650EACF
:1004A000013406BF52EA033591EA030F41F40021FB
:1004B00030BD00BF90F0000F04BF0021704730B581
:1004C0004FF4806404F132044FF000054FF0000156
:1004D00050E700BF90F0000F04BF0021704730B517
:1004E0004FF4806404F1320410F0004548BF4042EC
:1004F0004FF000013EE700BF42004FEAE2014FEA41
:1005000031014FEA02701FBF12F07F4393F07F4F1B
:1005100081F06051704732F07F4208BF704793F01E
:100520007F4F04BF41F40021704730B54FF4607431
:1005300001F0004521F000411CE700BF50EA010234
:1005400008BF704730B54FF000050AE050EA0102DD
:1005500008BF704730B511F0004502D5404261EB4D
:1005600041014FF4806404F132045FEA915C3FF48E
:10057000D8AE4FF003025FEADC0C18BF03325FEA2B
:10058000DC0C18BF033202EBDC02C2F1200300FADC
:1005900003FC20FA02F001FA03FE40EA0E0021FA01
:1005A00002F11444BDE600BF4FF0FF3C06E000BF7F
:1005B0004FF0010C02E000BF4FF0010C4DF804CDEC
:1005C0004FEA410C7FEA6C5C4FEA430C18BF7FEAAC
:1005D0006C5C1BD001B050EA410C0CBF52EA430CDA
:1005E00091EA030F02BF90EA020F0020704710F15A
:1005F000000F91EA030F58BF994208BF90422CBFE9
:10060000D8176FEAE37040F0010070474FEA410CE1
:100610007FEA6C5C02D150EA013C07D14FEA430CFF
:100620007FEA6C5CD6D152EA033CD3D05DF8040B70
:10063000704700BF8446104662468C4619466346A2
:1006400000E000BF01B5FFF7B7FF002848BF10F179
:10065000000F01BD4DF808EDFFF7F4FF0CBF0120BE
:1006600000205DF808FB00BF4DF808EDFFF7EAFF3A
:1006700034BF012000205DF808FB00BF4DF808EDF5
:10068000FFF7E0FF94BF012000205DF808FB00BFEA
:100690004DF808EDFFF7CEFF94BF012000205DF874
:1006A00008FB00BF4DF808EDFFF7C4FF34BF012081
:1006B00000205DF808FB00BF4A0011D212F50012BD
:1006C00011D20DD56FF47873B3EB62520ED44FEAAA
:1006D000C12343F0004343EA505323FA02F070472A
:1006E0004FF00000704750EA013002D14FF0FF3068
:1006F00070474FF000007047844641EA000313F052
:10070000030349D1403A23D30B6803604B6843602D
:100710008B688360CB68C3600B6903614B6943617D
:100720008B698361CB69C3610B6A03624B6A436265
:100730008B6A8362CB6AC3620B6B03634B6B43634D
:100740008B6B8363CB6BC36340304031403ADBD269
:1007500030320BD30B6803604B6843608B68836057
:10076000CB68C36010301031103AF3D20C3205D38D
:1007700051F8043B40F8043B043AF9D2043208D063
:10078000D2071CBF11F8013B00F8013B01D30B88D5
:1007900003806046704700BF082A13D38B07B1D08F
:1007A00010F00303AED0C3F10403D21ADB071CBF61
:1007B00011F8013B00F8013BA4D331F8023B20F8CB
:1007C000023B9FE7043AD9D3013A11F8013B00F804
:1007D000013BF9D20B7803704B7843708B788370B0
:1007E0006046704770B54FF0FF0C4CF4E06C1CEAAB
:1007F00011541DBF1CEA135594EA0C0F95EA0C0F17
:1008000000F0DEF82C4481EA030621EA4C5123EA89
:100810004C5350EA013518BF52EA033541F48011B8
:1008200043F4801338D0A0FB02CE4FF00005E1FB6B
:1008300002E506F00042E0FB03E54FF00006E1FBB5
:1008400003569CF0000F18BF4EF0010EA4F1FF04F8
:10085000B6F5007F64F5407404D25FEA4E0E6D4138
:1008600046EB060642EAC62141EA55514FEAC52049
:1008700040EA5E504FEACE2EB4F1FD0C88BFBCF5C5
:10088000E06F1ED8BEF1004F08BF5FEA500E50F176
:10089000000041EB045170BD06F0004646EA01013C
:1008A00040EA020081EA0301B4EB5C04C2BFD4EB6E
:1008B0000C0541EA045170BD41F480114FF0000E67
:1008C000013C00F3AB8014F1360FDEBF002001F0D5
:1008D000004170BDC4F10004203C35DA0C341BDC4F
:1008E00004F11404C4F1200500FA05F320FA04F021
:1008F00001FA05F240EA020001F0004221F0004155
:1009000010EBD37021FA04F642EB06015EEA430EC7
:1009100008BF20EAD37070BDC4F10C04C4F12005F7
:1009200000FA04F320FA05F001FA04F240EA0200AA
:1009300001F0004110EBD37041F100015EEA430E7B
:1009400008BF20EAD37070BDC4F1200500FA05F29B
:100950004EEA020E20FA04F301FA05F243EA02031A
:1009600021FA04F001F0004121FA04F220EA020029
:1009700000EBD3705EEA430E08BF20EAD37070BD6F
:1009800094F0000F0FD101F00046400041EB01014F
:1009900011F4801F08BF013CF7D041EA060195F031
:1009A000000F18BF704703F00046520043EB0303EB
:1009B00013F4801F08BF013DF7D043EA06037047D8
:1009C00094EA0C0F0CEA135518BF95EA0C0F0CD0E3
:1009D00050EA410618BF52EA4306D1D181EA030129
:1009E00001F000414FF0000070BD50EA410606BF23
:1009F0001046194652EA430619D094EA0C0F02D168
:100A000050EA013613D195EA0C0F05D152EA0336AC
:100A10001CBF104619460AD181EA030101F00041CA
:100A200041F0FE4141F470014FF0000070BD41F013
:100A3000FE4141F4780170BD70B54FF0FF0C4CF4ED
:100A4000E06C1CEA11541DBF1CEA135594EA0C0F0C
:100A500095EA0C0F00F0A7F8A4EB050481EA030E59
:100A600052EA03354FEA013100F088804FEA033340
:100A70004FF0805545EA131343EA12634FEA02220E
:100A800045EA111545EA10654FEA00260EF00041CF
:100A90009D4208BF964244F1FD0404F5407402D221
:100AA0005B084FEA3202B61A65EB03055B084FEAB2
:100AB00032024FF480104FF4002CB6EB020E75EBAF
:100AC000030E22BFB61A754640EA0C005B084FEAD7
:100AD0003202B6EB020E75EB030E22BFB61A754654
:100AE00040EA5C005B084FEA3202B6EB020E75EB9F
:100AF000030E22BFB61A754640EA9C005B084FEA17
:100B00003202B6EB020E75EB030E22BFB61A754623
:100B100040EADC0055EA060E18D04FEA051545EA12
:100B200016754FEA06164FEAC30343EA52734FEABB
:100B3000C2025FEA1C1CC0D111F4801F0BD141EA34
:100B400000014FF000004FF0004CB6E711F4801F99
:100B500004BF01430020B4F1FD0C88BFBCF5E06F79
:100B60003FF6AFAEB5EB030C04BFB6EB020C5FEA89
:100B7000500C50F1000041EB045170BD0EF0004EDE
:100B80004EEA113114EB5C04C2BFD4EB0C0541EA10
:100B9000045170BD41F480114FF0000E013C90E60D
:100BA00045EA060E8DE60CEA135594EA0C0F08BFD1
:100BB00095EA0C0F3FF43BAF94EA0C0F0AD150EAD0
:100BC00001347FF434AF95EA0C0F7FF425AF104663
:100BD00019462CE795EA0C0F06D152EA03353FF48B
:100BE000FDAE1046194622E750EA410618BF52EA08
:100BF00043067FF4C5AE50EA41047FF40DAF52EADC
:100C000043057FF4EBAE12E74FEA410C7FEA6C5CE0
:100C100002D150EA013C0AD14FEA430C7FEA6C5CF6
:100C200002D152EA033C02D14FF0000070474FF06E
:100C3000010070474FEA410212F5001215D211D59A
:100C40006FF47873B3EB625212D94FEAC12343F0C9
:100C5000004343EA505311F0004F23FA02F018BF4B
:100C6000404270474FF00000704750EA013005D114
:100C700011F0004008BF6FF0004070474FF00000D7
:100C8000704700BF53B94AB9002908BF00281CBFEC
:100C90004FF0FF314FF0FF3000F076B9ADF1080CA6
:100CA0006DE904CE00F006F8DDF804E0DDE902238A
:100CB00004B070472DE9F047089E0D46044688466B
:100CC000002B4DD18A42944668D9B2FA82F252B1D1
:100CD00001FA02F3C2F1200120FA01F10CFA02FC40
:100CE00041EA030894404FEA1C41B8FBF1F71FFAB0
:100CF0008CFE01FB178807FB0EF0230C43EA084328
:100D000098420AD91CEB030307F1FF3580F01E81DE
:100D1000984240F21B81023F63441B1AB3FBF1F07F
:100D200001FB103300FB0EFEA4B244EA0344A645C7
:100D30000AD91CEB040400F1FF3380F00981A645B9
:100D400040F20681644402380021A4EB0E0440EA1C
:100D500007401EB10023D440C6E90043BDE8F08738
:100D60008B4208D9002E00F0EE800021C6E9000574
:100D70000846BDE8F087B3FA83F100294AD1AB42B7
:100D800002D3824200F2FC80841A65EB0303012047
:100D90009846002EE2D0C6E90048DFE702B9FFDE40
:100DA000B2FA82F2002A40F09180A1EB0C000121FE
:100DB0004FEA1C471FFA8CFEB0FBF7F307FB13004A
:100DC000250C45EA00450EFB03F0A84208D91CEBB0
:100DD000050503F1FF3802D2A84200F2CE80434657
:100DE0002D1AB5FBF7F007FB10550EFB00FEA4B261
:100DF00044EA0544A64508D91CEB040400F1FF357C
:100E000002D2A64500F2B6802846A4EB0E0440EAC2
:100E100003409EE7C1F120078B4022FA07FC4CEA11
:100E2000030C25FA07FA4FEA1C49BAFBF9F820FA35
:100E300007F309FB18AA8D401FFA8CFE1D4300FA28
:100E400001F308FB0EF02C0C44EA0A44A04202FA1B
:100E500001F20BD91CEB040408F1FF3A80F0888002
:100E6000A04240F28580A8F102086444241AB4FB31
:100E7000F9F009FB104400FB0EFEADB245EA044454
:100E8000A64508D91CEB040400F1FF356CD2A64539
:100E90006AD90238644440EA0840A0FB0295A4EBFA
:100EA0000E04AC42C846AE4656D353D0002E69D08D
:100EB000B3EB080264EB0E0422FA01F304FA07F71D
:100EC0001F43CC40C6E90074002147E70CFA02FC3E
:100ED000C2F1200125FA01F34FEA1C4720FA01F183
:100EE00095400D43B3FBF7F107FB11331FFA8CFE5E
:100EF000280C40EA034001FB0EF3834204FA02F49B
:100F000008D91CEB000001F1FF382FD283422DD904
:100F100002396044C01AB0FBF7F307FB1300ADB20F
:100F200045EA004503FB0EF0A84208D91CEB050575
:100F300003F1FF3816D2A84214D9023B6544281A9F
:100F400043EA014138E73146304607E72F46E4E6F9
:100F50001846F9E64B45A9D2B9EB020865EB0C0E31
:100F60000138A3E74346EAE7284694E74146D1E73C
:100F7000D0467BE76444023847E7023B65442FE7ED
:100F8000084606E73146E9E6704700BF00B595B070
:100F9000002404943C22214605A804F007F9254BBF
:100FA000D3E90601D3E91423CDE90223CDE90001F9
:100FB000214A402104A804F04BF9204D4FF0FF31A5
:100FC000286803F00BF804A804F084F91C4E64238D
:100FD00082B204A9304602F017F823462246214681
:100FE000286802F0FCFD174BD3E90601D3E914236E
:100FF000CDE90223CDE90001134A402104A804F001
:1010000027F94FF0FF31286802F0E8FF04A804F048
:1010100061F9642382B204A9304601F0F5FF23464A
:1010200022462146286802F0DAFD642002F00AF91F
:10103000AEE700BF280C0020C8B10008DC09002082
:10104000500B0020800C0020E4B1000808B50648D1
:1010500002F01AF9054B1860054A0021054802F014
:101060007BF8054B186008BD1CB20008DC090020A5
:101070002CB200088D0F0008E009002084B0134B4B
:101080009A6942F020029A619A6902F02002009265
:10109000009A9A6942F004029A619A6902F0040285
:1010A0000192019A9A6942F008029A619A6902F0E3
:1010B00008020292029A9A6942F010029A619B69B0
:1010C00003F010030393039B04B070470010024029
:1010D00010B504460268074B9A4204D02268064BBA
:1010E0009A4203D010BD00F05FFDF7E700F0A2FCCC
:1010F000F8E700BF001000400014004072B6FEE7A1
:1011000000B591B02822002106A804F04FF8002372
:1011100001930293039304930593012206924FF4E3
:10112000803307930A9202220D920E934FF4E0133C
:101130000F9306A800F0D8FE80B90F230193022177
:101140000291002303934FF480620492059301A857
:1011500001F0FCF820B911B05DF804FBFFF7CEFFF9
:10116000FFF7CCFF08B500F00DFDFFF7C9FFFFF753
:1011700085FF00F04DFA00F003F900F05BF900F094
:10118000BDFA00F0D5FA00F0EDFA00F02BF900F00E
:101190009FFB094801F096FA0421084801F0D0FDB0
:1011A0000421074801F0CCFD01F08EFFFFF74EFF50
:1011B00001F0ACFFFEE700BFC00A0020780A002063
:1011C000080B002000B583B0114B9A6942F0010270
:1011D0009A619A6902F001020092009ADA6942F07B
:1011E0008052DA61DB6903F080530193019B002296
:1011F0000F216FF0010000F0FBFC064A536823F05A
:10120000E06343F00073536003B05DF804FB00BF7C
:10121000001002400000014000B589B001460022E4
:10122000362000F0E5FC362000F01AFD154BDA6997
:1012300042F01002DA61DB6903F010030193019BB5
:1012400002A903A801F05EF901F03CF943000E4841
:10125000A0FB03239B0C013B0C480D4A026040F2AB
:10126000E732C260436000230361836001F074FBD6
:1012700018B1012009B05DF804FB044801F022FA1E
:10128000F8E700BF0010024083DE1B43E4090020A2
:1012900000100040FEE7FEE7FEE7FEE7FEE77047CE
:1012A00008B5024801F04FFA08BD00BFE40900206C
:1012B00008B5024801F047FA08BD00BFC00A002087
:1012C0000120704708B503F047FF162303604FF075
:1012D000FF3008BD08B54FF0FF31FFF7F3FFFEE721
:1012E00070B50C461646002506E0AFF30080214697
:1012F00001F8010B01350C46B542F6DB304670BDF6
:1013000070B50C461646002504E014F8010BAFF347
:1013100000800135B542F8DB304670BD4FF0FF303C
:1013200070474FF400534B60002070470120704716
:101330000020704710B503460C4A0D490D4800685F
:1013400040B10C4800680344521A934206D8094A37
:10135000136010BD0748084C0460F2E703F0FCFE80
:101360000C2303604FF0FF30F3E700BF00C0002004
:10137000000400002C0A00207026002070470000A6
:1013800000B58DB02422002103A803F00FFF002335
:10139000019302931148124A0260436083604FF642
:1013A000FF72C260036183610323039301230593EA
:1013B000099303A901F028FB50B90023019302937C
:1013C00001A9064801F022FD28B90DB05DF804FB23
:1013D000FFF794FEF1E7FFF791FEF6E7780A0020A9
:1013E0000008004000B583B00023009301930F482C
:1013F0000F4A026047224260836040F2E732C260D7
:10140000836101F0A9FA50B9002300930193694662
:10141000064801F0FBFC28B903B05DF804FBFFF7B8
:101420006DFEF1E7FFF76AFEF6E700BFC00A002095
:101430000014004000B58DB02422002103A803F061
:10144000B5FE0023019302931248134A02604360E1
:1014500083604FF6FF72C2600361436183610323BF
:10146000039301230593099303A901F0CDFA50B921
:1014700000230193029301A9064801F0C7FC28B993
:101480000DB05DF804FBFFF739FEF1E7FFF736FE1C
:10149000F6E700BF080B00200034014000B583B020
:1014A0000368134A934205D0124A93420DD003B009
:1014B0005DF804FB104BDA6942F00202DA61DB6985
:1014C00003F002030093009BF1E70B4BDA6942F053
:1014D0002002DA61DB6903F020030193019B002203
:1014E0001146372000F084FB372000F0B9FBDEE71F
:1014F00000040040001400400010024000B589B014
:101500000023049305930693079303681E4A9342AE
:1015100005D01E4A93421CD009B05DF804FB1C4B59
:10152000DA6942F00402DA61DA6902F00402009238
:10153000009A9A6942F008029A619B6903F00803D5
:101540000193019BC023049304A9124800F096FB69
:10155000E2E70F4B9A6942F400529A619A6902F4E9
:1015600000520292029A9A6942F010029A619B69B3
:1015700003F010030393039BC023049304A90648BC
:1015800000F07CFBC8E700BF0008004000340140C9
:1015900000100240000C01400010014010B586B060
:1015A000002302930393049305930268154B9A4218
:1015B00001D006B010BD03F503339A6942F004026E
:1015C0009A619A6902F004020092009A9A6942F0C4
:1015D00008029A619B6903F008030193019BC023F1
:1015E000029302240394059402A9074800F046FBE5
:1015F000032302930394059402A9044800F03EFBE0
:10160000D7E700BF0004004000080140000C014083
:1016100000B58FB000230A930B930C930D9308939E
:1016200009930193029303930493059306930793FD
:101630003048314A026047224260836040F2E7321C
:10164000C2600361836101F087F9002839D14FF44A
:1016500080530A930AA9274801F0E4FA002833D1FD
:10166000244801F0A5F9002831D1002308930993FB
:1016700008A9204801F0CAFB60BB60230193002247
:1016800002920392059201A91A4801F051FA20BB77
:1016900004220DEB0201174801F04AFA00BB0822B0
:1016A00001A9144801F044FAE8B90C2201A9114833
:1016B00001F03EFAD0B90F48FFF770FF0FB05DF8A8
:1016C00004FBFFF71BFDC2E7FFF718FDC8E7FFF7B4
:1016D00015FDCAE7FFF712FDCFE7FFF70FFDD7E7CC
:1016E000FFF70CFDDBE7FFF709FDDEE7FFF706FD7F
:1016F000E1E700BF300A00200004004008B50A48B6
:101700000A4B03604FF4E133436000238360C360FE
:1017100003610C2242618361C36101F045FC00B9A1
:1017200008BDFFF7EBFCFBE7500B00200038014041
:1017300008B50A480A4B03604FF4E13343600023C5
:101740008360C36003610C2242618361C36101F065
:101750002BFC00B908BDFFF7D1FCFBE7980B00207C
:101760000044004008B50A480A4B03604FF4E133D7
:10177000436000238360C36003610C224261836184
:10178000C36101F011FC00B908BDFFF7B7FCFBE72E
:10179000E00B00200048004010B58AB000230693FB
:1017A0000793089309930368434A934207D0434A37
:1017B00093422ED0424A934253D00AB010BD414BBF
:1017C0009A6942F480429A619A6902F480420092D6
:1017D000009A9A6942F004029A619B6903F004033B
:1017E0000193019B4FF40073069302230793032395
:1017F0000993354C06A9204600F040FA4FF4806367
:10180000069300230793089306A9204600F036FAB2
:10181000D3E72C4BDA6942F40032DA61DA6902F478
:1018200000320292029A9A6942F004029A619B691C
:1018300003F004030393039B0423069302230793FB
:1018400003230993204C06A9204600F017FA082329
:10185000069300230793089306A9204600F00EFA8A
:10186000ABE7184BDA6942F48022DA61DA6902F4F4
:1018700080220492049A9A6942F008029A619B6954
:1018800003F008030593059B4FF48063069302233E
:101890000793032309930D4C06A9204600F0EEF9A7
:1018A0004FF40063069300230793089306A920468C
:1018B00000F0E4F981E700BF003801400044004037
:1018C000004800400010024000080140000C0140A8
:1018D0002DE9F003DFF860C00026184FCCE900675F
:1018E0000024174DCCE9024500220023CCE9042353
:1018F000CCE908230EA1D1E90001CCE910014FF099
:101900000008DFF84090CCE91289DFF83CC0CCE950
:101910000067CCE90245CCE90423CCE90823CCE9F3
:101920001001CCE91289BDE8F0037047AFF30080E5
:101930000000000000408FC0280C002000008E40F6
:1019400000006E4000408F40800C00202DE9F047E1
:101950008246D0E90C23C0E90E23D0E90A23C0E96E
:101960000C2300F12001D1E90001DAE90623FEF79A
:1019700063FCCAE90A01DAE90045DAE90A01DAE9B1
:101980000C23FEF759FC02460B4620462946FEF77B
:1019900029FF04460D46DAE90201DAE90A23FEF7D7
:1019A00021FF02460B4620462946FEF747FC044627
:1019B0000D46DAE90467DAE90A89DAE90C01024638
:1019C0000B46FEF73BFC02460B4640464946FEF7F7
:1019D00033FCDAE90E23FEF731FC02460B463046B3
:1019E0003946FEF7FFFE02460B4620462946FEF723
:1019F00025FC02460B46DAE91401FEF71FFCCAE992
:101A00001401DAE91401DAE91223FEF74BFE18B1EA
:101A1000DAE91223CAE91423DAE91401DAE9102316
:101A2000FEF722FE18B1DAE91023CAE91423BDE853
:101A3000F0870000F8B53B4B1D68686A00B2FEF7FE
:101A400049FD394CC4E9060100276F62374B1E6817
:101A5000706A00B2FEF73EFD354DC5E906017762BA
:101A60002046FFF773FF2846FFF770FF0022002390
:101A7000D4E91401FEF716FED8B12E4B1C682A4B90
:101A8000D3E91401FEF718FEE06327640022002367
:101A90002749D1E91401FEF705FE30B3254B1C6838
:101AA000234BD3E91401FEF707FE60630023A36311
:101AB000F8BD002200231C49D1E91401FEF7D4FD32
:101AC00028B91C4B1B680022DA631A64DEE7194B45
:101AD0001C680023E363144BD3E91456284606F12F
:101AE0000041FEF7E9FD2064D0E700220023104901
:101AF000D1E91401FEF7B8FD28B90E4B1B6800228E
:101B00005A639A63D4E70B4B1C6800236363084B4A
:101B1000D3E91456284606F10041FEF7CDFDA06337
:101B2000C6E700BF080B0020280C0020780A002020
:101B3000800C0020300A0020FFF720FC0B480C49E5
:101B40000C4A002302E0D458C4500433C4188C4219
:101B5000F9D3094A094C002301E013600432A24280
:101B6000FBD303F0FFFAFFF7FDFA704700000020F7
:101B7000C00900205CB60008C00900206C260020C7
:101B8000FEE7000008B5074A136843F0100313602E
:101B9000032000F01BF80F20FFF73EFBFFF712FBBE
:101BA000002008BD00200240034A1168034B1B7847
:101BB0000B441360704700BFD80C002004000020C5
:101BC000014B1868704700BFD80C0020074AD36843
:101BD00023F4E0631B041B0C000200F4E0600343E9
:101BE00043F0BF6343F40033D360704700ED00E07F
:101BF00000B5194BDB68C3F30223C3F1070CBCF13A
:101C0000040F28BF4FF0040C03F1040EBEF1060FC1
:101C100018D9033B4FF0FF3E0EFA0CFC21EA0C01F1
:101C200099400EFA03F322EA0303194300280BDB61
:101C30000901C9B200F1604000F5614080F800136D
:101C40005DF804FB0023E5E700F00F000901C9B2CD
:101C5000024B1954F4E700BF00ED00E014ED00E082
:101C6000002807DB00F01F02400901239340024ACD
:101C700042F82030704700BF00E100E070B582B04C
:101C80000024A446B0E0874DAA4210D007D9864D63
:101C9000AA420CD005F58035AA4208D013E0A5F57C
:101CA0008015AA4203D005F57025AA4207D18A689B
:101CB000002A62D0012A5BD04361082403E0A5F525
:101CC0008015AA42F3D0BEF1FF0F58D80646BEF1E8
:101CD000FF0F56D84FEA8C0233680F25954023EA50
:101CE000050304FA02F2134333604B6813F0805F7C
:101CF00078D06E4B9A6942F001029A619B6903F0B9
:101D000001030193019B4FEA9C02951C684B53F819
:101D100025600CF003039D000F23AB4026EA030669
:101D2000644B984233D003F58063984200F098806A
:101D300003F58063984200F0958003F58063984234
:101D400000F0928003F58063984200F08F8003F5E5
:101D50008063984219D006231AE0CC68B3E7CC68B8
:101D60000434B0E7CC680834ADE7CC680C34AAE79B
:101D700003610824A7E70024A5E70424A3E7061DC0
:101D8000A5E7ACF108029200A6E7052300E00023D6
:101D9000AB4033430232464D45F822304B6813F4D2
:101DA000801F65D0444A936843EA0E0393604B68F2
:101DB00013F4001F62D0404AD36843EA0E03D36095
:101DC0004B6813F4003F5FD03B4A536843EA0E036D
:101DD00053604B6813F4803F5CD0374A136843EA82
:101DE0000E0313600CF1010C0A6832FA0CF357D0A1
:101DF000012303FA0CF302EA030E33EA0202F1D1E3
:101E00004A68122A3FF63FAF122A3FF65CAF01A59F
:101E100055F822F0AF1C00085B1D0008651D000886
:101E2000771D0008C71C0008C71C0008C71C000855
:101E3000C71C0008C71C0008C71C0008C71C0008F6
:101E4000C71C0008C71C0008C71C0008C71C0008E6
:101E5000C71C0008C71C00085F1D00086B1D000898
:101E6000012395E7022393E7032391E704238FE7F8
:101E7000114A936823EA0E03936098E70E4AD368E9
:101E800023EA0E03D3609BE70B4A536823EA0E0351
:101E900053609EE7084A136823EA0E031360A1E724
:101EA00002B070BD0000221000003110001002408E
:101EB00000000140000801400004014082B0084BCE
:101EC0001B68084AA2FB03235B0A00FB03F3019390
:101ED00000BF019B5A1E0192002BF9D102B070473E
:101EE00000000020D34D6210002800F0F18170B591
:101EF00082B00446036813F0010F2CD0994B5B6845
:101F000003F00C03042B1DD0964B5B6803F00C030D
:101F1000082B12D06368B3F5803F41D0002B55D118
:101F200003F1804303F504331A6822F480321A6007
:101F30001A6822F480221A6037E08A4B5B6813F437
:101F4000803FE7D0874B1B6813F4003F03D06368E2
:101F5000002B00F0BF81236813F0020F75D0814B76
:101F60005B6813F00C0F5FD07E4B5B6803F00C03D3
:101F7000082B54D02369002B00F08A807A4B012271
:101F80001A60FFF71DFE0546764B1B6813F0020F23
:101F900075D1FFF715FE401B0228F5D903209EE1FD
:101FA000704A136843F480331360636843B3FFF7E8
:101FB00007FE05466B4B1B6813F4003FCBD1FFF7C0
:101FC000FFFD401B6428F5D9032088E1B3F5A02F5D
:101FD00009D0644B1A6822F480321A601A6822F41D
:101FE00080221A60E1E703F18043A3F53C331A68CD
:101FF00042F480221A601A6842F480321A60D4E7F0
:10200000FFF7DEFD0546574B1B6813F4003FA2D0D7
:10201000FFF7D6FD401B6428F5D903205FE1514B43
:102020005B6813F4803FA5D14E4B1B6813F0020F81
:1020300003D02369012B40F04F814A4A136823F0F3
:10204000F803616943EAC1031360236813F0080FC2
:1020500033D0A369002B5CD0434B0122C3F880240A
:10206000FFF7AEFD05463F4B5B6A13F0020F21D12F
:10207000FFF7A6FD401B0228F5D903202FE1394ABE
:10208000136823F0F803616943EAC1031360DCE7D6
:10209000354B00221A60FFF793FD0546314B1B6854
:1020A00013F0020FD1D0FFF78BFD401B0228F5D9AA
:1020B000032014E10120FFF701FF236813F0040F50
:1020C00000F09680274BDB6913F0805F34D1254BFD
:1020D000DA6942F08052DA61DB6903F080530193E0
:1020E000019B0125214B1B6813F4807F26D0E368F8
:1020F000012B3DD0002B53D103F1804303F5043372
:102100001A6A22F001021A621A6A22F004021A62A2
:1021100033E0154B0022C3F88024FFF751FD05463C
:10212000104B5B6A13F0020FC7D0FFF749FD401B4D
:102130000228F5D90320D2E00025D3E70B4A136823
:1021400043F480731360FFF73BFD0646074B1B68A3
:1021500013F4807FCBD1FFF733FD801B6428F5D9C2
:102160000320BCE00010024000004242007000402A
:102170005F4A136A43F001031362E36833B3FFF766
:102180001FFD06465A4B1B6A13F0020F2FD1FFF7B3
:1021900017FD801B41F288339842F3D903209EE05B
:1021A000052B09D0524B1A6A22F001021A621A6AF0
:1021B00022F004021A62E0E74D4B1A6A42F0040270
:1021C0001A621A6A42F001021A62D6E7FFF7F8FCB7
:1021D0000646474B1B6A13F0020F08D0FFF7F0FCCE
:1021E000801B41F288339842F3D9032077E0E5B9A8
:1021F000E369002B72D03E4A526802F00C02082AB2
:1022000056D0022B17D03B4B00221A66FFF7D8FCA2
:102210000446374B1B6813F0007F47D0FFF7D0FC14
:10222000001B0228F5D9032059E0314AD36923F075
:102230008053D361DCE72F4B00221A66FFF7C0FC06
:1022400005462B4B1B6813F0007F06D0FFF7B8FC48
:10225000401B0228F5D9032041E0236AB3F5803FF3
:102260001AD023494B6823F47413226A606A02432C
:1022700013434B601F4B01221A66FFF7A1FC044673
:102280001B4B1B6813F0007F0ED1FFF799FC001B5E
:102290000228F5D9032022E0154A536823F40033BD
:1022A000A1680B435360DCE7002018E0002016E033
:1022B000012B16D00E4B5B6803F48031226A9142E9
:1022C00011D103F47013626A93420ED1002006E02C
:1022D00001207047012002E0012000E0002002B050
:1022E00070BD0120FBE70120F9E70120F7E700BFFF
:1022F00000100240000042420F4B5B6803F00C02EA
:10230000082A01D00D487047C3F383420C49885C0A
:1023100013F4803F0BD0084B5B68C3F34043094A7A
:10232000D35C064A02FB00F0B0FBF3F07047064BAB
:1023300003FB00F0704700BF0010024000127A005B
:1023400068B2000878B2000800093D00002800F0DB
:10235000A08070B50D460446524B1B6803F007037E
:102360008B420BD24F4A136823F007030B431360D1
:10237000136803F007038B4240F08D80236813F04D
:10238000020F17D013F0040F04D0474A536843F4E8
:10239000E0635360236813F0080F04D0424A536887
:1023A00043F460535360404A536823F0F003A1683C
:1023B0000B435360236813F0010F31D06368012B86
:1023C00020D0022B25D0384A126812F0020F64D0B8
:1023D00035494A6822F0030213434B60FFF7F0FBD4
:1023E0000646314B5B6803F00C036268B3EB820F67
:1023F00016D0FFF7E5FB801B41F288339842F0D9F5
:10240000032045E0284A126812F4003FE0D1012081
:102410003EE0254A126812F0007FD9D1012037E052
:10242000204B1B6803F00703AB420AD91D4A13680F
:1024300023F007032B431360136803F00703AB4239
:102440002DD1236813F0040F06D0174A536823F4E4
:10245000E063E1680B435360236813F0080F07D073
:10246000114A536823F46053216943EAC10353605E
:10247000FFF742FF0C4B5B68C3F303130B4AD35CBB
:10248000D8400B4B18600B4B1868FEF7C5FE0020B8
:1024900070BD012070470120FAE70120F8E7012014
:1024A000F6E700BF002002400010024050B20008D2
:1024B0000000002008000020014B1868704700BF92
:1024C0000000002008B5FFF7F7FF044B5B68C3F37B
:1024D0000223034AD35CD84008BD00BF001002406D
:1024E00060B2000808B5FFF7E7FF044B5B68C3F371
:1024F000C223034AD35CD84008BD00BF001002408D
:1025000060B200080F2303600B4B5A6802F003020D
:1025100042605A6802F0F00282605A6802F4E06297
:10252000C2605B68DB0803F4E0630361034B1B6874
:1025300003F007030B6070470010024000200240C8
:1025400030B4036A026A22F00102026242688469BE
:1025500024F073040D682C4323F0020C8B6843EACB
:102560000C03104DA84203D005F50065A84205D123
:1025700023F00803CD682B4323F00403094DA84240
:1025800003D005F50065A84205D122F440724D69DB
:102590002A438D692A43426084614A684263036228
:1025A00030BC7047002C014030B4036A026A22F448
:1025B000807202624268C46924F0730C0C6844EAB9
:1025C0000C0523F400738C6843EA0423114CA042E9
:1025D00003D004F50064A04206D123F40063CC6864
:1025E00043EA042323F480630A4CA04203D004F599
:1025F0000064A04207D122F440524C6942EA04121E
:102600008C6942EA04124260C5614A68C26303628F
:1026100030BC7047002C014030B4036A026A22F4D7
:10262000805202624468C26922F4E6420D6842EABE
:10263000052223F400538D6843EA0533094DA8426F
:1026400003D005F50065A84204D124F480444D6907
:1026500044EA85144460C2614A680264036230BC83
:10266000704700BF002C014010B4036A046A24F0D4
:1026700001040462846924F0F00C4CEA021223F095
:102680000A030B438261036210BC704710B4036AF3
:10269000046A24F010040462846924F4704C4CEA47
:1026A000023223F0A00343EA01138261036210BCEB
:1026B0007047836823F070030B4343F00703836084
:1026C0007047000090F83D30DBB2012B2FD1022380
:1026D00080F83D300268D36843F00103D36003689B
:1026E000154A934218D002F50062934214D0B3F118
:1026F000804F11D0A2F5983293420DD002F580623E
:10270000934209D002F58062934205D01A6842F0E4
:1027100001021A60002070479A6802F00702062A38
:1027200007D01A6842F001021A60002070470120A9
:1027300070470020704700BF002C01407047704771
:1027400070477047704710B5044603681A6912F065
:10275000020F11D0DA6812F0020F0DD06FF00202F2
:102760001A610123037703689B6913F0030F70D08C
:10277000FFF7E6FF0023237723681A6912F0040F9E
:1027800012D0DA6812F0040F0ED06FF004021A6152
:102790000223237723689B6913F4407F5FD0204690
:1027A000FFF7CEFF0023237723681A6912F0080F82
:1027B00012D0DA6812F0080F0ED06FF008021A611A
:1027C000042323772368DB6913F0030F4ED02046E0
:1027D000FFF7B6FF0023237723681A6912F0100F62
:1027E00012D0DA6812F0100F0ED06FF010021A61DA
:1027F000082323772368DB6913F4407F3DD020460C
:10280000FFF79EFF0023237723681A6912F0010F58
:1028100003D0DA6812F0010F36D123681A6912F07A
:10282000800F03D0DA6812F0800F34D123681A6960
:1028300012F0400F03D0DA6812F0400F32D1236853
:102840001A6912F0200F03D0DA6812F0200F30D18D
:1028500010BDFFF774FF2046FFF773FF8AE720469D
:10286000FFF76DFF2046FFF76CFF9BE72046FFF761
:1028700066FF2046FFF765FFACE72046FFF75FFFE6
:102880002046FFF75EFFBDE76FF001021A612046A8
:10289000FEF71EFCC1E76FF080021A61204600F0CF
:1028A000F4FAC3E76FF040021A612046FFF74AFFCF
:1028B000C5E76FF020021A61204600F0E5FAC7E78D
:1028C0000368244A904212D002F5006290420ED072
:1028D000B0F1804F0BD0A2F59832904207D002F5AC
:1028E0008062904203D002F58062904203D123F0CF
:1028F00070034A681343174A904212D002F50062EF
:1029000090420ED0B0F1804F0BD0A2F59832904299
:1029100007D002F58062904203D002F580629042B7
:1029200003D123F44073CA68134323F080034A6938
:10293000134303608B68C3620B688362054B984244
:1029400003D003F50063984201D10B6903630123AF
:1029500043617047002C014040B310B5044690F825
:102960003D30F3B1022384F83D30214651F8040B89
:10297000FFF7A6FF012384F8463084F83E3084F840
:102980003F3084F8403084F8413084F8423084F895
:10299000433084F8443084F8453084F83D300020DA
:1029A00010BD80F83C30FEF779FDDBE70120704771
:1029B00040B310B5044690F83D30F3B1022384F8DB
:1029C0003D30214651F8040BFFF77AFF012384F8CC
:1029D000463084F83E3084F83F3084F8403084F844
:1029E000413084F8423084F8433084F8443084F82D
:1029F000453084F83D30002010BD80F83C30FFF7B2
:102A00009DFEDBE701207047002857D070B50D46CA
:102A1000044690F83D30002B4BD0022384F83D3023
:102A20002268936823F4804323F0070393602146D0
:102A300051F8040BFFF744FF21688A688B690E6A1E
:102A40002868104323F4407C2CF0030CAA68AB697F
:102A500042EA032343EA0C0323F47C4323F0FC0300
:102A6000EA69D5F80CC04CEA022C4CEA030C2A6A3D
:102A700013032A6943EA021343EA0C0326F02206F1
:102A80006A686D6942EA05123243886021688B6189
:102A900023681A62012384F8463084F83E3084F8B3
:102AA0003F3084F8423084F8433084F83D300020D1
:102AB00070BD80F83C30FEF721FDAEE70120704785
:102AC00030B4036A026A22F010020262446882692A
:102AD00022F4E6420D6842EA052223F020038D68C5
:102AE00043EA0513114DA84203D005F50065A8423D
:102AF00006D123F08003CD6843EA051323F0400399
:102B00000A4DA84203D005F50065A84207D124F478
:102B100040644D6944EA85048D6944EA8504446053
:102B200082614A688263036230BC7047002C0140B6
:102B300038B590F83C30012B66D004460D46012391
:102B400080F83C300C2A5AD8DFE802F0075959596E
:102B50001B5959593059595944000068FFF7F0FC86
:102B60002268936943F0080393612268936923F014
:102B7000040393612268936929690B4393610020E0
:102B80003EE00068FFF79CFF2268936943F400630E
:102B900093612268936923F4806393612268936947
:102BA000296943EA01239361002029E00068FFF7C7
:102BB000FBFC2268D36943F00803D3612268D36920
:102BC00023F00403D3612268D36929690B43D361DD
:102BD000002015E00068FFF71FFD2268D36943F469
:102BE0000063D3612268D36923F48063D3612268D0
:102BF000D369296943EA0123D361002000E0012061
:102C0000002384F83C3038BD0220FCE710B484680F
:102C100024F47F4C42EA03220A4342EA0C02826017
:102C200010BC704790F83C30012B78D010B50446AA
:102C3000012380F83C30022380F83D30026893681D
:102C400023F47F4323F0770393600B68602B4CD011
:102C500029D8402B54D00CD9502B22D1CA684968AE
:102C60000068FFF701FD50212068FFF722FD0020DA
:102C700005E0202B0DD009D9302B0AD001200123EB
:102C800084F83D30002384F83C3010BD0BB1102B8C
:102C900005D119462068FFF70CFD0020EFE7012061
:102CA000EDE70120EBE7B3F5805F34D0B3F5005FCB
:102CB0000CD1CB684A6889680068FFF7A7FF2268D3
:102CC000936843F4804393600020D8E7702B24D1AD
:102CD000CB684A6889680068FFF798FF22689368A4
:102CE00043F0770393600020C9E7CA684968006829
:102CF000FFF7CCFC60212068FFF7DBFC0020BEE77B
:102D0000CA6849680068FFF7AFFC40212068FFF7F8
:102D1000D0FC0020B3E70020B1E70120AFE702209C
:102D2000704701F01F01012303FA01FC036A23EA43
:102D30000C030362036A02FA01F10B43036270475A
:102D400038B5044690F83E00C0B294F83F3094F88D
:102D50004220D2B294F843C00D46B1B9012849D1FE
:102D6000012A48D1022384F83E3084F842307DB3F2
:102D7000042D39D0012200212068FFF7D2FF012263
:102D800004212068FFF7CDFF27E0DBB25FFA8CFC5F
:102D9000042912D0012833D1012B2CD1012A31D1A1
:102DA000BCF1010F30D1022384F83E3084F83F306B
:102DB00084F8423084F84330D9E7012B1CD1BCF1B0
:102DC000010F1BD1022384F83F3084F84330CEE753
:102DD000012200212068FFF7A4FF2268136843F056
:102DE00001031360002006E0012204212068FFF7A0
:102DF00098FFF2E7012038BD0120FCE71846FAE70A
:102E00000120F8E71846F6E71046F4E790F83C3062
:102E1000012B34D010B4012380F83C30022380F819
:102E20003D3003685A689C6822F0700C0A6842EAD8
:102E30000C025A600368134A934212D002F50062F2
:102E400093420ED0B3F1804F0BD0A2F5983293424B
:102E500007D002F58062934203D002F5806293426C
:102E600004D124F080044A6814439C60012380F854
:102E70003D30002380F83C30184610BC70470220DB
:102E8000704700BF002C01407047704710B50446E2
:102E90000268136923F44053C1680B4313618368CC
:102EA0000269134342691A430168CB6823F4B053A3
:102EB00023F00C031343CB600268536923F440737F
:102EC00081690B4353610268134B9A4220D0FFF78C
:102ED000F9FA024602EB820202EB820263689B006F
:102EE000B2FBF3F20D48A0FB02314909642303FB56
:102EF00011231B013233A0FB03235B0903F0F00213
:102F000002EB011203F00F03216813448B6010BD24
:102F1000FFF7E8FA0246DDE7003801401F85EB5174
:102F20002DE9F84305460F4616469946DDF8208000
:102F30002C68246837EA04030CBF4FF0010C4FF0F3
:102F4000000CB4452DD1B8F1FF3FF1D0B8F1000F1E
:102F500005D0FEF735FEA0EB09004045E8D92A6808
:102F600002F10C0353E8003F23F4D0730C3242E823
:102F700000310029F3D12A6802F1140353E8003F1D
:102F800023F00103143242E800310029F3D1202359
:102F900085F8413085F84230002385F84030032021
:102FA00000E00020BDE8F88360B310B5044690F857
:102FB000413013B3242384F841302268D36823F4CA
:102FC0000053D3602046FFF761FF2268136923F4A2
:102FD000904313612268536923F02A0353612268E6
:102FE000D36843F40053D36000206064202384F846
:102FF000413084F84230606310BD80F84030FEF705
:10300000CBFBD7E7012070472DE9F04182B01E4687
:1030100090F84130DBB2202B4BD104460D46904650
:1030200000294AD00AB9012044E000234364212347
:1030300080F84130FEF7C4FD0746A4F82480A4F8C8
:103040002680A368B3F5805F02D04FF000080FE040
:103050002369FBB14FF000080AE038F8023B226810
:10306000C3F308035360E28C92B2013A92B2E28455
:10307000E38C9BB28BB100963B4600228021204618
:10308000FFF74EFFD8B9002DE7D015F8012B2368C4
:103090005A60E8E7A8460025EAE700963B4600228A
:1030A00040212046FFF73CFF58B9202384F84130E7
:1030B00000E0022002B0BDE8F0810120FAE7032021
:1030C000F8E70320F6E70000EFF3058393B9EFF389
:1030D000108393B90C4B1868022804D080B90A4BAE
:1030E00001221A607047EFF31183002BF6D06FF0C6
:1030F000050070476FF0050070476FF005007047DE
:103100004FF0FF30704700BF380F002008B5EFF3D5
:103110000583B3B9EFF31083B3B90E4B1B68022BD1
:1031200008D0012B13D10B4B02221A6001F058FA80
:10313000002008BDEFF31182002AF2D06FF00500E5
:10314000F7E76FF00500F4E76FF00500F1E74FF0E7
:10315000FF30EEE7380F0020F0B587B0002404946C
:10316000EFF30584002C43D1EFF31083002B3FD104
:10317000334B1B68022B16D0002839D000238DF862
:10318000173062B3156895B1936903B918235C1EB3
:10319000372C51D8546814F0010F4FD156694EB1F5
:1031A0004FEA960C08E0EFF311830BBBE4E70DF157
:1031B0001705E9E74FF0800C94682CB1D7685B2FB6
:1031C00002D9176907B1B6B914B14FF0FF340CE05A
:1031D000D46894B914699CB14FF0FF3405E0002421
:1031E00018234FF0800C0DF11705012C0AD0ACB15B
:1031F000049807B0F0BD0124F7E74FF0FF34F4E77F
:103200000024F2E7146992680292019400930B463D
:103210006246294601F076F90490E9E704AA019292
:1032200000930B461FFA8CF2294601F0A5F90128FC
:10323000DED000230493DBE70020DAE70020D8E7A4
:10324000380F002008B5EFF30583A3B9EFF310831F
:10325000A3B90C4B1B68022B02D040B9002008BD5B
:10326000EFF31183002BF8D06FF00500F7E701F0C2
:103270001BFB0020F3E76FF00500F0E76FF005009F
:10328000EDE700BF380F002070B5EFF30583002B8A
:103290004ED10446EFF310821346002A4BD1284A40
:1032A0001268022A23D004B1636813F0010600D02B
:1032B000012613F0080F40D17CB3A16811B1E36877
:1032C0004F2B1FD8C9B14FF0FF337BBB4EB3042047
:1032D00000F055FD05462DB104B12468214628466D
:1032E00000F050FF2DB326B345F0010521E0EFF3C8
:1032F0001182002AD7D000251BE0E3687BB14FF094
:10330000FF33E2E726B1042000F044FD0546E2E782
:10331000012000F03FFD0546DDE70023D5E700234F
:10332000D3E7012000F02BFD0546D4E70025D9E7BF
:103330000025284670BD0025FBE70025F9E700BF02
:10334000380F0020034B0360034B0B608023136096
:10335000704700BFDC0E0020DC0C0020034B036034
:10336000034B0B604FF48073136070473C130020D5
:103370003C0F002000F1080343604FF0FF328260F1
:10338000C36003610023036070470023036170473B
:1033900043684B609A688A6051609960086103686D
:1033A00001330360704730B40D68B5F1FF3F11D0B1
:1033B00000F108031C465B681A68AA42FAD96368E0
:1033C0004B6099608C606160086103680133036041
:1033D00030BC70470469F2E70369416882688A601B
:1033E000416851605A68824206D0002202611A6820
:1033F000013A1A601868704782685A60F5E7000061
:1034000082B0002301930D4B1B68B3F1FF3F08D03E
:103410004FF0500383F31188BFF36F8FBFF34F8FCB
:10342000FEE74FF0500383F31188BFF36F8FBFF3B4
:103430004F8F019B002BFCD002B070470C00002086
:1034400006480068006880F3088862B661B6BFF37A
:103450004F8FBFF36F8F00DF00BF000008ED00E06B
:103460004FF0807340F8043C21F0010140F8081C43
:10347000034B40F80C3C40F8202C4038704700BF0C
:1034800001340008000000000000000000000000FF
:10349000074B19680868B0E8F00F80F30988BFF39C
:1034A0006F8F4FF0000080F311884EF00D0E7047C3
:1034B000F81F00204FF0500383F31188BFF36F8F84
:1034C000BFF34F8F0B4A136801331360012B00D0F9
:1034D00070474FF0E023D3F8043D13F0FF0FF7D00F
:1034E0004FF0500383F31188BFF36F8FBFF34F8FFB
:1034F000FEE700BF0C000020094B1B6843B94FF0EA
:10350000500383F31188BFF36F8FBFF34F8FFEE734
:10351000013B034A13600BB983F31188704700BF66
:103520000C0000200000000000000000000000006F
:10353000EFF30980BFF36F8F0D4B1A6820E9F00F8E
:1035400010602DE908404FF0500080F3118801F021
:10355000D1F94FF0000080F31188BDE808401968E8
:103560000868B0E8F00F80F30988BFF36F8F7047E9
:10357000F81F002008B54FF0500383F31188BFF304
:103580006F8FBFF34F8F01F087F828B14FF0E02322
:103590004FF08052C3F8042D002383F3118808BD37
:1035A0004FF0E022002313619361054B1B6805492E
:1035B000A1FB03139B09013B536107231361704770
:1035C00000000020D34D621010B582B02A4B1A784B
:1035D000D2B20192FF221A701B78DBB28DF8033051
:1035E0009DF8033003F05003244A1370244B072244
:1035F0001A6009E0224A1368013B13609DF803300A
:103600005B00DBB28DF803309DF8033013F0800FC0
:10361000F0D11B4B1B68032B08D04FF0500383F3F2
:103620001188BFF36F8FBFF34F8FFEE71B02144A61
:10363000136003F4E0631360019BDBB20E4A137066
:103640004FF0E023D3F8202D42F47002C3F8202D70
:10365000D3F8202D42F07042C3F8202DFFF7A0FFD1
:103660000024084B1C60FFF7EBFE01F043F9FFF765
:10367000C7FE204602B010BD00E400E09813002011
:103680009C1300200C000020EFF305830F2B0FD9B3
:10369000114A9B5CDBB2114A12789A4208D94FF06A
:1036A000500383F31188BFF36F8FBFF34F8FFEE793
:1036B0004FF0E023D3F80C3D03F4E063084A1268AE
:1036C000934208D94FF0500383F31188BFF36F8FF3
:1036D000BFF34F8FFEE77047F0E300E09813002040
:1036E0009C130020124A12F0070F1ED0D11D21F0AA
:1036F0000701C1F5406313440A460E4802600021E9
:1037000041601344083B23F007030B4803605960F2
:103710001960991A51601360084B1960084B1960C1
:10372000084B4FF000421A6070474FF44063E4E7E3
:10373000A4130020B01F0020A0130020AC1F002005
:10374000A81F0020A41F0020154B1A461B688342A7
:10375000FBD3516802EB010C844509D0416800EBB2
:10376000010C634509D00360904218D01060704787
:103770004068014451601046F0E710B4094C2468D9
:10378000A3420AD05B681944416013681B68036058
:10379000904200D0106010BC70470460F8E770479A
:1037A000B01F0020A013002070B5054600F066FF92
:1037B000344B1B68A3B1344B1B681D424AD135B151
:1037C000083515F0070F02D025F007050835002D44
:1037D00042D02E4B1B68AB424DD32D4A146804E0F7
:1037E000FFF780FFE7E722461C466368AB4202D240
:1037F0002368002BF7D1234B1B68A3423DD01668EA
:1038000008362368136063685B1B102B10D960199E
:1038100010F0070F08D04FF0500383F31188BFF367
:103820006F8FBFF34F8FFEE743606560FFF78CFF3C
:10383000626816490B689B1A0B60164909688B422F
:1038400001D214490B60104B1B68134363600023C3
:10385000236002E0002600E0002600F0A9FF16F039
:10386000070F0CD04FF0500383F31188BFF36F8F15
:10387000BFF34F8FFEE70026EFE70026EDE7304667
:1038800070BD00BFA0130020A41F0020A81F0020AF
:10389000B01F0020AC1F002080B338B50446A0F153
:1038A000080550F8043C164A1268134208D14FF03C
:1038B000500383F31188BFF36F8FBFF34F8FFEE781
:1038C00050F8081C41B14FF0500383F31188BFF347
:1038D0006F8FBFF34F8FFEE723EA020340F8043CEB
:1038E00000F0CCFE54F8041C064A13680B44136025
:1038F0002846FFF729FF00F05BFF38BD704700BF87
:10390000A41F0020A81F00200346406A18B11B6BAB
:103910001868C0F13800704710B50446FFF7CAFDBB
:10392000A26BE36B9A4204D00024FFF7E5FD20462A
:1039300010BD0124F9E710B50446FFF7BBFDA36BEA
:1039400023B90124FFF7D8FD204610BD0024F9E774
:1039500070B504461546866B026C5AB903681BB1F4
:1039600000200136A66370BD406801F037F90023DE
:103970006360F6E76DB98068FCF7BEFE226CA36851
:103980001344A3606268934219D32368A360284656
:10399000E7E7C068FCF7B0FE226C5142E3689B1A6F
:1039A000E3602268934202D263680B44E360022D15
:1039B00001D00020D5E726B1013E0020D1E72846FE
:1039C000CFE70020CDE708B50346026C62B1084698
:1039D000D9681144D960D3F804C0614501D319688E
:1039E000D960D968FCF788FE08BD38B50546FFF7F1
:1039F00061FD95F8454064B201E0013C64B2002CE1
:103A00000ADD6B6A43B105F1240000F0F1FF0028E4
:103A1000F3D001F081F8F0E7FF2385F84530FFF798
:103A20006BFDFFF747FD95F8444064B201E0013CAF
:103A300064B2002C0ADD2B6943B105F1100000F0DF
:103A4000D7FF0028F3D001F067F8F0E7FF2385F8EF
:103A50004430FFF751FD38BD38B5E0B10D4604469E
:103A6000FFF728FD2368E26B216C01FB02306060E8
:103A70000020A063A360013A02FB0133E360FF234F
:103A800084F8443084F84530FDB9236963B9FFF701
:103A900033FD012038BD4FF0500383F31188BFF38D
:103AA0006F8FBFF34F8FFEE704F1100000F0A0FF0F
:103AB0000028ECD04FF0E0234FF08052C3F8042DE3
:103AC000BFF34F8FBFF36F8FE1E704F11000FFF7F3
:103AD00051FC04F12400FFF74DFCD8E738B51D4632
:103AE000049C0B4649B92460E0632364012120460D
:103AF000FFF7B2FF84F84C5038BD2260F4E740B9BC
:103B00004FF0500383F31188BFF36F8FBFF34F8FD4
:103B1000FEE710B584B01C46844653B192B189B912
:103B20004FF0500383F31188BFF36F8FBFF34F8FB4
:103B3000FEE74FF0500383F31188BFF36F8FBFF39D
:103B40004F8FFEE76AB150230393039B502B13D092
:103B50004FF0500383F31188BFF36F8FBFF34F8F84
:103B6000FEE70029EFD04FF0500383F31188BFF335
:103B70006F8FBFF34F8FFEE7012384F84630009428
:103B80009DF818306046FFF7A9FF204604B010BD2D
:103B900040B94FF0500383F31188BFF36F8FBFF329
:103BA0004F8FFEE7F0B583B00C4615460746A1B12E
:103BB00001FB00F05030FFF7F7FD064650B100233F
:103BC00080F8463000902B4600F1500221463846DE
:103BD000FFF784FF304603B0F0BD0846EAE7F0B5D2
:103BE00085B0019288B10F461D460446B1B1022D41
:103BF00020D1E36B012B1DD04FF0500383F31188CC
:103C0000BFF36F8FBFF34F8FFEE74FF0500383F387
:103C10001188BFF36F8FBFF34F8FFEE7036C002B4C
:103C2000E5D04FF0500383F31188BFF36F8FBFF3DC
:103C30004F8FFEE700F076FF064658B9019B002B38
:103C400048D04FF0500383F31188BFF36F8FBFF359
:103C50004F8FFEE700263DE02A4639462046FFF713
:103C600077FE636A7BB948B14FF0E0234FF0805292
:103C7000C3F8042DBFF34F8FBFF36F8FFFF73CFCEA
:103C8000012005B0F0BD04F1240000F0B1FE0028D1
:103C9000F4D04FF0E0234FF08052C3F8042DBFF36F
:103CA0004F8FBFF36F8FE9E7FFF726FC0020E8E7AF
:103CB00002A800F0E3FE012619E0002384F8443056
:103CC00021E0002384F8453023E02046FFF78DFEF5
:103CD00000F06EFDFFF7EEFBA26BE36B9A42BBD3E5
:103CE000022DB9D0019B002BDED0002EE0D0FFF7D3
:103CF00003FC00F0C3FCFFF7DDFB94F8442052B254
:103D0000B2F1FF3FD9D094F8452052B2B2F1FF3F53
:103D1000D7D0FFF7F1FB01A902A800F0BBFED8B98C
:103D20002046FFF7F9FD0028CFD0019904F11000DB
:103D300000F02AFE2046FFF758FE00F039FD00286B
:103D4000C8D14FF0E0234FF08052C3F8042DBFF3E9
:103D50004F8FBFF36F8FBDE72046FFF746FE00F0A1
:103D600027FD00208DE748B108B5002141600160C2
:103D7000C1600B460A46FFF732FF08BD704710B519
:103D8000024600210120FFF703FF0446FFF7EBFF87
:103D9000204610BD10B582B00B460090002211469F
:103DA0000120FFF7ACFE0446FFF7DDFF204602B01E
:103DB00010BD2DE9F84390B10F4616461C46054646
:103DC000B1B1022C20D1EB6B012B1DD04FF0500371
:103DD00083F31188BFF36F8FBFF34F8FFEE74FF070
:103DE000500383F31188BFF36F8FBFF34F8FFEE74C
:103DF000036C002BE5D04FF0500383F31188BFF321
:103E00006F8FBFF34F8FFEE7FFF73EFCEFF3118993
:103E10004FF0500383F31188BFF36F8FBFF34F8FC1
:103E2000AA6BEB6B9A4206D3022C04D0002089F3D4
:103E30001188BDE8F88395F845804FFA88F8224646
:103E400039462846FFF784FDB8F1FF3F06D008F158
:103E500001035BB285F845300120E8E76B6A0BB9D6
:103E60000120E4E705F1240000F0C2FD18B126B1FD
:103E700001203060DBE70120D9E70120D7E7F0B56A
:103E800085B0019290B10F460446C1B100F04AFEE0
:103E9000064600BB019B002B5ED04FF0500383F31E
:103EA0001188BFF36F8FBFF34F8FFEE74FF05003C2
:103EB00083F31188BFF36F8FBFF34F8FFEE7036C5F
:103EC000002BE3D04FF0500383F31188BFF36F8FC3
:103ED000BFF34F8FFEE700263EE039462046FFF74E
:103EE00072FD013DA563236923B9FFF705FB01209E
:103EF00005B0F0BD04F1100000F07AFD0028F4D008
:103F00004FF0E0234FF08052C3F8042DBFF34F8FE2
:103F1000BFF36F8FE9E7FFF7EFFA0020E8E702A8A9
:103F200000F0ACFD012621E0002384F8443029E0B4
:103F3000002384F845302BE02046FFF756FD00F0C3
:103F400037FC09E02046FFF750FD00F031FC204629
:103F5000FFF7F1FC00283FD1FFF7ACFAA56B002D6D
:103F6000BBD1019B002BD6D0002ED8D0FFF7C4FACE
:103F700000F084FBFFF79EFA94F844305BB2B3F193
:103F8000FF3FD1D094F845305BB2B3F1FF3FCFD0C3
:103F9000FFF7B2FA01A902A800F07CFD0028D1D1F8
:103FA0002046FFF7C8FC0028C6D0019904F1240080
:103FB00000F0EAFC2046FFF718FD00F0F9FB0028AE
:103FC000CAD14FF0E0234FF08052C3F8042DBFF365
:103FD0004F8FBFF36F8FBFE7002089E770B584B0C4
:103FE000019158B10446036C8BB14FF0500383F339
:103FF0001188BFF36F8FBFF34F8FFEE74FF0500371
:1040000083F31188BFF36F8FBFF34F8FFEE700F08C
:1040100089FD054650B9019B5BB14FF0500383F316
:104020001188BFF36F8FBFF34F8FFEE70026354631
:1040300055E0064653E0013BA36323683BB1236987
:104040004BB9FFF759FA0126304604B070BD00F0B5
:104050005DFE6060F3E704F1100000F0C9FC002889
:10406000EFD04FF0E0234FF08052C3F8042DBFF3A0
:104070004F8FBFF36F8FE4E746B14FF0500383F3E8
:104080001188BFF36F8FBFF34F8FFEE7FFF734FA4E
:10409000DAE702A800F0F2FC01252AE0002384F808
:1040A000443032E0002384F8453034E0FFF702FA70
:1040B000606800F047FD0646FFF71EFA3BE0204629
:1040C000FFF793FC00F074FB09E02046FFF78DFC3E
:1040D00000F06EFB2046FFF72EFC002842D1FFF7D0
:1040E000E9F9A36B002BA6D1019B002BC4D0002DB6
:1040F000CFD0FFF701FA00F0C1FAFFF7DBF994F82F
:1041000044305BB2B3F1FF3FC8D094F845305BB2A6
:10411000B3F1FF3FC6D0FFF7EFF901A902A800F005
:10412000B9FC0028D1D12046FFF705FC0028C6D0F5
:104130002368002BBAD0019904F1240000F024FC7C
:104140002046FFF752FC00F033FB0028C7D14FF0A8
:10415000E0234FF08052C3F8042DBFF34F8FBFF31D
:104160006F8FBCE70EB900266EE7FFF7A3F9204674
:10417000FFF7CAFB0146606800F078FDFFF7BCF965
:10418000F1E700000023072B0CD8074A52F8332030
:104190000AB10133F7E7044A42F8331002EBC303D4
:1041A00058607047704700BFB81F002070B50446C4
:1041B0000D461646FFF77EF994F844305BB2B3F132
:1041C000FF3F0DD094F845305BB2B3F1FF3F0BD009
:1041D000FFF792F9A36B5BB12046FFF706FC70BDB9
:1041E000002384F84430EDE7002384F84530EFE7FE
:1041F0003246294604F1240000F0DEFBECE7000023
:10420000084B1B681B6823B9074B4FF0FF321A603D
:104210007047044B1B68DB68DB685A68024B1A6006
:10422000704700BFFC1F0020A82400202DE9F047A4
:1042300080460D4617469946089EDDF824A00A9C44
:104240009200A521206B00F0B1FF236B07F18042A3
:10425000013A03EB820727F007074FF0000CBCF18F
:104260000F0F0BD815F80C2004EB0C0383F8342047
:1042700015F80C3013B10CF1010CF0E7002384F8B1
:104280004330372E00D93726E662E66400252565DF
:10429000201DFFF77AF804F11800FFF776F8246183
:1042A000C6F13806A6616462656584F858504A46CE
:1042B00041463846FFF7D4F82060BAF1000F01D02C
:1042C000CAF80040BDE8F08738B5002407E004EBE9
:1042D000840293000E481844FFF74CF80134372C41
:1042E000F5D90C4D2846FFF745F80B4C2046FFF753
:1042F00041F80A48FFF73EF80948FFF73BF809483C
:10430000FFF738F8084B1D60084B1C6038BD00BF34
:10431000042000207C24002090240020B0240020D1
:10432000DC240020C8240020FC1F002000200020E6
:1043300010B50446FFF7BEF8224A13680133136034
:10434000214B1B685BB1214B1B686BB91E4B1B6873
:10435000DA6AE36A9A4207D81B4B1C6004E01A4BE6
:104360001C601368012B29D0194A136801331360AC
:104370006364E06A174B1B68984201D9154B1860BB
:1043800000EB8000211D144B03EB8000FFF700F8C9
:10439000FFF7B2F80D4B1B687BB10B4B1B68DA6A59
:1043A000E36A9A4209D24FF0E0234FF08052C3F8FB
:1043B000042DBFF34F8FBFF36F8F10BDFFF784FF46
:1043C000D2E700BF64240020F81F0020C42400208E
:1043D00074240020782400200420002010B5044616
:1043E00090F8593063B1012B11D0022B0ED04FF051
:1043F000500383F31188BFF36F8FBFF34F8FFEE736
:10440000006BFFF749FA2046FFF746FA10BDFFF7A9
:1044100043FAFBE70F4B1B68D3B110B5FFF74AF81F
:104420000D4BDB68DC68201DFEF7D6FF0B4A1368D6
:10443000013B1360074A1368013B1360FFF75CF808
:104440002046FFF7CBFF034B1B68002BE6D110BDC6
:10445000704700BF68240020DC2400206424002072
:1044600008B5FFF7D7FF074B1B68012BF9D94FF0B1
:10447000E0234FF08052C3F8042DBFF34F8FBFF3FA
:104480006F8FEEE70420002070B504460D46174BF1
:104490001E68174B18680430FEF79EFFB4F1FF3F0B
:1044A0000DD03444124B1B685C60A64210D9114BEE
:1044B00018680F4B19680431FEF775FF70BD002DA9
:1044C000EFD00B4B196804310B48FEF761FFF5E79D
:1044D0000A4B1868064B19680431FEF764FF084B55
:1044E0001B68A342EAD9064B1C60E7E7F0240020D2
:1044F000F81F002000200020C8240020FC1F0020FE
:10450000A824002030B587B00B9C7CB10C9DB5B1C0
:104510005C250495049D5C2D1AD04FF0500383F365
:104520001188BFF36F8FBFF34F8FFEE74FF050033B
:1045300083F31188BFF36F8FBFF34F8FFEE74FF008
:10454000500383F31188BFF36F8FBFF34F8FFEE7E4
:104550000C9D2C63022485F8594000240394029595
:1045600005AC01940A9C0094FFF760FE0C98FFF7DD
:10457000DFFE059807B030BD2DE9F04385B0074652
:10458000884614461E469000FFF70EF900B3814698
:104590005C20FFF709F90546B0B1C0F83090E5B1ED
:1045A000002385F85930039302950D9B01930C9BD2
:1045B00000933346224641463846FFF737FE2846E9
:1045C000FFF7B6FE012005E04846FFF765F9E6E78C
:1045D0004FF0FF3005B0BDE8F0834FF0FF30F9E752
:1045E00010B588B000240594069407AA06A905A86A
:1045F000FEF7A8FE059B0293069B019300942346B9
:10460000079A18491848FFF77DFF184B186040B10A
:1046100000F0F6FB012806D0B0F1FF3F18D008B03B
:1046200010BD0020F6E74FF0500383F31188BFF36D
:104630006F8FBFF34F8F0E4B4FF0FF321A600D4B51
:1046400001221A600C4B00221A60FEF7BDFFE6E75C
:104650004FF0500383F31188BFF36F8FBFF34F8F79
:10466000FEE700BF7CB2000861440008A4240020DB
:10467000A8240020C4240020F0240020024A13684B
:1046800001331360704700BF70240020014B18688D
:10469000704700BFF0240020F8B53A4B1B68002B90
:1046A00064D1394B1D6801351D60C5B9374B1B6896
:1046B0001B6843B14FF0500383F31188BFF36F8F32
:1046C000BFF34F8FFEE7314A1168314B1868106015
:1046D0001960304A136801331360FFF791FD2E4BC8
:1046E0001B68AB4238D900272C4B1B68DB6A03EBF5
:1046F00083039A002A4B9B58012B3CD901273AE0AF
:104700000127224B1B681B6843B3204B1B68DB68E7
:10471000DC6863689D4226D3261D3046FEF75CFEAA
:10472000A36A1BB104F11800FEF756FEE36A1D4AA6
:104730001268934201D91B4A136003EB83039A006A
:10474000314617481044FEF723FEE26A134B1B68FC
:10475000DB6A9A42D4D2D4E70027D2E70E4B4FF05F
:10476000FF321A60C0E70C4A1360BDE70E4A1368B7
:104770000133136000270D4B1B6803B10127384636
:10478000F8BD00BF70240020F0240020FC1F002092
:1047900000200020AC240020A8240020F81F0020C6
:1047A00004200020782400206C240020F424002021
:1047B00038B5354B1B6843B94FF0500383F311886C
:1047C000BFF36F8FBFF34F8FFEE7FEF773FE2E4BE5
:1047D0001A68013A1A601B68002B4FD12B4B1B68DB
:1047E0000BB900244BE00024294B1B681BB3284B5A
:1047F000DB68DC6804F11800FEF7EEFD251D284695
:10480000FEF7EAFDE06A234B1B68984201D9214B71
:10481000186000EB800029461F4B03EB8000FEF779
:10482000B7FDE26A1D4B1B68DB6A9A42DCD31C4B66
:1048300001221A60D8E70CB1FFF7E2FC194B1C68A3
:1048400084B9174B1C68D4B14FF0E0234FF080526D
:10485000C3F8042DBFF34F8FBFF36F8F01240EE019
:10486000013C07D0FFF718FF0028F9D00C4B0122BC
:104870001A60F5E70B4B00221A60E2E70024FEF70E
:104880003BFE204638BD00BF702400206424002079
:10489000B02400207824002004200020F81F0020ED
:1048A000F42400206C24002010B5A8B10446104B5D
:1048B0001B6843B14FF0500383F31188BFF36F8F30
:1048C000BFF34F8FFEE7FFF7D9FE00212046FFF729
:1048D000DBFDFFF76DFF48B94FF0E0234FF080524A
:1048E000C3F8042DBFF34F8FBFF36F8F10BD00BF10
:1048F000702400201F4B1B681BB11F4B01221A6044
:1049000070471D4B00221A601C4B1B6803EB830190
:104910008A001B498A585AB90BB1013BF6E74FF0A0
:10492000500383F31188BFF36F8FBFF34F8FFEE700
:1049300003EB830082000A4450684068506003EB38
:10494000830C4FEA8C020832114488420BD003EBEF
:10495000830291000A4A0A445268D168094A1160E8
:10496000064A13607047406862469100044A0A4450
:104970005060ECE770240020F4240020782400200C
:1049800004200020F81F002058B110B50C46094A39
:1049900011681831FEF707FD01212046FFF774FD6D
:1049A00010BD4FF0500383F31188BFF36F8FBFF337
:1049B0004F8FFEE7F81F002038B570B10D46144642
:1049C0000A4A11681831FEF7E3FC0CB14FF0FF35CD
:1049D00021462846FFF758FD38BD4FF0500383F3BA
:1049E0001188BFF36F8FBFF34F8FFEE7F81F0020D2
:1049F00038B5C368DC6824B304F118052846FEF70F
:104A0000EBFC184B1B682BBB251D2846FEF7E4FC6E
:104A1000E06A154B1B68984201D9134B186000EBF4
:104A200080002946114B03EB8000FEF7B1FCE26ADF
:104A30000F4B1B68DB6A9A4211D901200D4B18609D
:104A400038BD4FF0500383F31188BFF36F8FBFF36E
:104A50004F8FFEE729460848FEF79AFCE7E700205B
:104A6000EEE700BF702400207824002004200020FE
:104A7000F81F0020F4240020B0240020034B1B6802
:104A80000360034B1B684360704700BFAC240020E9
:104A9000F0240020D8B170B50C46054601B3FEF7EE
:104AA00009FD1B4B19686B68C81A2268B2F1FF3FF9
:104AB00027D0184E3668D5F800C0B44501D08B42D7
:104AC00024D9824215D80023236001241AE04FF034
:104AD000500383F31188BFF36F8FBFF34F8FFEE74F
:104AE0004FF0500383F31188BFF36F8FBFF34F8FE5
:104AF000FEE75B1A134423602846FFF7BFFF00243C
:104B000000E00024FEF7F8FC204670BD0124F9E720
:104B1000F0240020AC240020014B01221A607047D1
:104B2000F4240020054B1B6833B1054B1B680BB107
:104B3000002070470220704701207047C4240020E5
:104B40007024002000283FD038B50446C36A204AAC
:104B50001268D26A93422FD28269002A05DB1C4A6E
:104B60001268D26AC2F138028261616903EB830381
:104B7000184A02EB8303994205D0154B1B68DB6A88
:104B8000E362012038BD251D2846FEF725FC104BA9
:104B90001B68D86AE062104B1B68984209D800EB8A
:104BA000800029460B4B03EB8000FEF7F1FB012050
:104BB000E8E7094B1860F2E7C26C054B1B68DB6A3B
:104BC0009A4203D30020DDE7002070470120D9E797
:104BD000F81F0020042000207824002000283BD06B
:104BE00038B504461E4B1B68834208D04FF0500373
:104BF00083F31188BFF36F8FBFF34F8FFEE7036D11
:104C000043B94FF0500383F31188BFF36F8FBFF3A5
:104C10004F8FFEE7013B0365C16AC26C91421DD014
:104C20000BB1002038BD051D2846FEF7D5FBE06C12
:104C3000E062C0F13803A3610A4B1B68984201D9B6
:104C4000084B186000EB80002946074B03EB8000FF
:104C5000FEF79EFB0120E5E7002070470020E1E71A
:104C6000F81F00207824002004200020002846D0CF
:104C700038B50446036D43B94FF0500383F31188F0
:104C8000BFF36F8FBFF34F8FFEE7C26C8A4200D233
:104C90000A46E16A914201D0012B00D038BD184B81
:104CA0001B68A34222D0E262A369002B02DBC2F19F
:104CB0003802A261626901EB8101124B03EB8101B1
:104CC0008A42EBD1251D2846FEF786FBE06A0E4B93
:104CD0001B68984201D90C4B186000EB80002946F4
:104CE000084B03EB8000FEF753FBD7E74FF0500370
:104CF00083F31188BFF36F8FBFF34F8FFEE77047C9
:104D0000F81F00200420002078240020054B1B6899
:104D100023B1044B1A68136D01331365014B1868F6
:104D2000704700BFF81F0020064B1A681368B3FADB
:104D300083F35B09036013B9D368186870470020D8
:104D4000704700BFF824002008B54160006191421F
:104D50000CD8D21A83699A4201D3012008BD011DE3
:104D6000094B1868FEF71FFB0020F7E79A4201D2B3
:104D7000994206D2011D054B1868FEF714FB00206E
:104D8000ECE70120EAE700BFFC240020F824002023
:104D900030B583B0FEF78EFB114B1B681BB1FEF7DD
:104DA000ABFB03B030BD0F4D2846FEF7E3FA0E4CC7
:104DB0002046FEF7DFFA0D4B1D600D4B1C600023F3
:104DC00000930C4B0C4A10210A20FEF798FE044B6E
:104DD00018600028E3D00949FFF7D4F9DFE700BFE6
:104DE0001C260020A0250020B4250020F824002047
:104DF000FC240020CC2500200025002084B20008DF
:104E000010B588B0FFF7C4FF124B1B68CBB100246C
:104E10000594069407AA06A905A8FEF79FFA059B24
:104E20000293069B0193022300932346079A0A49A3
:104E30000A48FFF767FB0A4B186010B1012008B061
:104E400010BD4FF0500383F31188BFF36F8FBFF392
:104E50004F8FFEE71C2600208CB20008415100084D
:104E600020260020B8B19C4603461848006858B375
:104E700000B585B000910192029305291CDCFFF773
:104E800051FE022810D000231A4669460F480068D8
:104E9000FEF7A5FE15E04FF0500383F31188BFF332
:104EA0006F8FBFF34F8FFEE70023069A69460748CE
:104EB0000068FEF794FE04E0002362466946FEF7B0
:104EC00078FF05B05DF804FB002070471C26002029
:104ED00070B582B01A4B1B681A6852B3DB681E6843
:104EE000DC68251D2846FEF777FA636A2046984756
:104EF000E369012BEED1A36933449E4207D263607C
:104F0000246129460E4B1868FEF74DFAE2E70021AE
:104F100000910B4632462046FFF7A4FF0028D9D166
:104F20004FF0500383F31188BFF36F8FBFF34F8FA0
:104F3000FEE7044A106802490860136002B070BDC1
:104F4000F8240020FC24002038B50546FFF79EFB1E
:104F50000446074B1B68834205D800232B60044B93
:104F60001C60204638BDFFF7B3FF01232B60F6E736
:104F7000C825002070B582B006460D461449096860
:104F8000C968CC68201DFEF727FAE169012904D021
:104F9000636A2046984702B070BDA16933462A462D
:104FA00031442046FFF7D0FE0028F1D000210091C7
:104FB0000B4632462046FFF755FF0028E8D14FF058
:104FC000500383F31188BFF36F8FBFF34F8FFEE75A
:104FD000F824002070B582B006460C46FFF74EFB61
:104FE00001A8FFF7B1FF019B2BBB05460CB9B042EE
:104FF0001AD22CB1124B1B681C68B4FA84F46409F1
:105000002246711B0F4B1868FFF7D0F8FFF7D0FB53
:1050100098B94FF0E0234FF08052C3F8042DBFF34E
:105020004F8FBFF36F8F08E0FFF7C2FB2946304672
:10503000FFF7A0FF01E0FFF7BBFB02B070BD00BFB0
:10504000FC2400201C26002010B588B002E0049B40
:10505000002B0FDA002204A9384B1868FEF70FFF67
:10506000002869D0049B002BF1DA07990698059B6C
:105070009847ECE7069C636913B1201DFEF7ACF975
:1050800003A8FFF761FF049B092BE3D801A252F8A4
:1050900023F000BFBD500008BD500008BD500008FF
:1050A000555000080351000829510008BD50000860
:1050B000BD5000085550000803510008059BA16928
:1050C000024619442046FFF73FFE0028C2D0636A1B
:1050D00020469847E369012BBCD1A26900210091C9
:1050E0000B46059802442046FFF7BCFE0028B1D1CC
:1050F0004FF0500383F31188BFF36F8FBFF34F8FCF
:10510000FEE70599A16131B10346024601442046FC
:10511000FFF71AFE9EE74FF0500383F31188BFF3A9
:105120006F8FBFF34F8FFEE794F82C30002B91D197
:105130002046FEF7B1FB8DE708B010BD1C2600200D
:1051400000B583B001A8FFF7EFFD0199FFF742FF1B
:10515000FFF77AFFF6E70000014B1868704700BFC1
:105160001000002070B50D4E0D4D761BB61006D008
:10517000002455F8043B01349847A642F9D1094E62
:10518000094D06F013F8761BB61006D0002455F82A
:10519000043B01349847A642F9D170BD50B60008CF
:1051A00050B6000858B6000850B60008830730B55E
:1051B00048D0541E002A3FD00346CAB201E0013C49
:1051C0003AD303F8012B9D07F9D1032C2DD9CDB289
:1051D00045EA05250F2C45EA054536D9A4F110020C
:1051E00022F00F0C03F1200EE6444FEA121C03F1EB
:1051F000100242E9045542E9025510327245F8D1D5
:105200000CF1010214F00C0F03EB021204F00F0C6E
:1052100013D0ACF1040323F003030433134442F826
:10522000045B9342FBD10CF003042CB1CAB21C44C2
:1052300003F8012B9C42FBD130BD64461346002C81
:10524000F4D1F9E703461446BFE71A46A446E0E75F
:105250000CB410B51E4B00291C689CB033DB4FF416
:1052600002734FF6FF7CADF81430029006901FAB2E
:1052700016D001391E9A04910791204602A9019384
:10528000ADF816C000F054F8421C01DA8B232360FD
:105290000022029B1A701CB0BDE8104002B070479B
:1052A0000491079120461E9A02A90193ADF816C0F9
:1052B00000F03EF8431C01DA8B2323601CB0BDE8EC
:1052C000104002B070478B234FF0FF302360F5E7AA
:1052D0001000002020F0030110F00300C0F10000D6
:1052E00051F8043B00F1040C4FEACC0C6FF00002C3
:1052F0001CBF22FA0CF213434FF0010C4CEA0C2CA9
:105300004CEA0C4CA3EB0C0222EA030212EACC1288
:1053100004BF51F8043B0430F4D0C2F1000102EAAA
:105320000102B2FA82F2C2F11F0200EBD200704712
:105330002DE9F04FD5B00C460C9191460E930A9092
:1053400002F0BAFE036818461793FFF7C3FFA3895C
:105350001690190603D52369002B00F08F870024CF
:105360002BAB224698464D46CDE92944289312940A
:1053700000230024CDE914342B78CDE91922CDE99E
:105380001B2218920892002B00F0CE81AA4604E05E
:105390001AF8013F002B00F00981252BF8D1BAEB58
:1053A000050640F007819AF80030002B00F0BC8120
:1053B00000234FF0FF324FF02B0920241F469AF8AC
:1053C000016007920AF1010A8DF8833009930AF10E
:1053D000010AA6F120035A2B00F22081DFE813F026
:1053E000CA021E011E01C5021E011E011E01A302EA
:1053F0001E011E016A00F3021E014702D9021E01AE
:10540000D4025B005B005B005B005B005B005B0049
:105410005B005B001E011E011E011E011E011E011C
:105420001E01B0011E010B027A00B001B001B001F3
:105430001E011E011E011E019E021E011E01B6005C
:105440001E011E011E0119021E014C021E011E0139
:105450003F071E011E011E011E011E011E011E012D
:105460001E01B0011E010B027C00B001B001B001B1
:1054700091027C0075001E0184021E017002B800BA
:105480005E0275001E01190272001C071E011E013A
:105490001F071E0172000022A6F130031AF8016BEB
:1054A00002EB820203EB4202A6F13003092BF5D98D
:1054B00009928EE70E9B53F8042B002A09920E9353
:1054C000C0F2D2819AF8006081E79AF8006047F054
:1054D00020077CE747F01007BA060E9B40F17D815C
:1054E000073323F007031A465B6852F8084B9946C6
:1054F0000E92002BC0F27F85079B013301F03980AB
:1055000054EA090327F0800B00F005850A2C79F195
:10551000000380F0938701235F4630348DF84F41BC
:105520000B930DF24F15079A0B9900238A42B8BFCF
:105530000A4606929DF883200D930F9313931093C0
:10554000002A7CD0069B0133069378E047F01007D1
:1055500017F0200900F032810E9B073323F0070378
:10556000D3F8049053F8084B0E93002327F4806B74
:1055700000228DF88320079A511C00F02A8254EAF9
:1055800009012BF0800740F02382002A41F02B8094
:10559000002B40F0C5841BF001030B9300F05485F1
:1055A00030230DF24F158DF84F31BCE7BAEB0506ED
:1055B00000F0BA802A9BC8E9005633442A93299BFD
:1055C0000133072B299305DC08F10808089B3344B5
:1055D0000893E8E60C990A9828AA03F09BFC80B986
:1055E0000DF1AC08F2E70C990A9828AA03F092FC96
:1055F000002800F08A800D9B1BB10D990A9802F0DB
:105600005BFC0C9B9B8913F0400F089B18BF4FF06D
:10561000FF330893089855B0BDE8F08F002E00F0D6
:105620008380012300228DF8EC6006933BAD8DF85A
:1056300083200B930D9207920F921392109217F002
:10564000020302D006990231069117F0840B07D1AC
:1056500009990698A1EB0009B9F1000F00F3368310
:105660002A9C82B10122C8F80420299A013401320F
:105670000DF18301072A2A942992C8F8001000F33B
:10568000698308F108087BB10223C8F80430299B1C
:105690000234013321AA072B2A942993C8F8002049
:1056A00000F36C8308F10808BBF1800F00F02E8234
:1056B000079B0B9AA3EB020BBBF1000F00F3718267
:1056C000FB0500F1C5810B9BC8F800501C44C8F8CD
:1056D0000430299B2A940133072B299300F3EA8293
:1056E00008F108087B0705D5099B069A9D1A002D2D
:1056F00000F35083DDE9083206998A42ACBF9B185B
:105700005B180893002C7FF46EAF002329930D9B48
:105710001BB10D990A9802F0CFFB55460DF1AC086C
:105720002B78002B7FF432AE2A9B002B3FF469AF1D
:105730000C9C0A98214628AA03F0ECFBA38962E797
:105740000E9B073323F00702F2E80234CDE914344C
:10575000DDE9143424F00044994618460E9221469F
:105760004FF0FF32B64BFBF74FFA002840F096841B
:10577000484621464FF0FF32B14BFAF77FFF002831
:1057800040F08C84DDE9140100220023FAF76CFF5D
:10579000002840F0A6879DF8832000210320A94D12
:1057A000A94B27F080070D910690472EC8BF1D46D4
:1057B00007910B900F9113911091C1E617F0100310
:1057C00040F0628417F0400200F07B870E9A994601
:1057D00052F8044B0E92A4B2C7E653F8044B0E9352
:1057E000FB0600F141847D0640F13B8444F3C0395F
:1057F0004B4624B27DE6012000220E9B069053F812
:10580000041B3BAD8DF883208DF8EC100E930B90AC
:1058100010E74FF000090E9C079B54F8045B8DF8CD
:105820008390002D00F0EE865A1C00F060851A4629
:105830004946284602F0F8FE0D90002801F09E80AF
:105840000D9B9DF883205B1B0B9323EAE373CDF83C
:105850001C900E940693CDF83490CDF83C90CDF882
:105860004C90CDF840906BE6099B5B4209939AF807
:10587000006047F00407AAE547F0100B1BF0200971
:1058800000F0AA830E9B073323F007031A4652F851
:10589000084BD3F804900E92012369E63022782653
:1058A0000E9B8DF8842053F8044B684A0E934FF0FA
:1058B0000009022347F0020B8DF88560189257E625
:1058C000BD0600F1D683FC0600F19386780600F150
:1058D0005D87B90540F18D860E9B089953F8042B1E
:1058E000554611700E931BE79AF800606C2E03BFAB
:1058F0009AF8016047F020070AF1010A47F0100703
:1059000065E59AF80060682E03BF9AF8016047F4D5
:1059100000770AF1010A47F0400758E59AF800605D
:1059200047F0080753E50A9E304602F0C5FB43687E
:1059300018461B93FFF7CEFC034630461C931E46C9
:1059400002F0BAFB83681993002E3FF4BBAD199B9C
:10595000002B3FF4B7AD199B1B78002B3FF4B2AD81
:105960009AF8006047F4806731E59AF8006047F0E4
:1059700001072CE59DF88330002B7FF4A3AD9AF846
:1059800000608DF8834022E59AF8006047F08007B8
:105990001DE5524612F8016B2A2E01F0EB81A6F1AB
:1059A0003003092B924698BF002201F203801AF8B7
:1059B000016B02EB820203EB4202A6F13003092BDA
:1059C000F5D9079205E59AF800608DF88390FEE41A
:1059D000BB46012B3FF49AAD022B54AD12D1189A5D
:1059E00004F00F03D35C240944EA09744FEA19193F
:1059F00005F8013D54EA0903F2D154AB5B1B5F4645
:105A00000B9390E504F00703E40844EA49744FEA75
:105A1000D909303354EA09012A4605F8013DF1D18C
:105A20001BF0010FE9D0302BE7D03023023A05F804
:105A3000013C54AB9B1A5F4615460B9373E500BFC0
:105A4000FFFFEF7F98B200089CB20008A8B20008E0
:105A5000652E40F3E980DDE9140100220023FAF706
:105A6000F9FD002800F0D2810123C8F80430299BF9
:105A7000BF4A01330134072B2A942993C8F8002028
:105A800000F37A8508F10808229B129A934280F26B
:105A9000D782169B179A1C44C8E90023299B2A9495
:105AA0000133072B299300F3DD8308F10808129BCB
:105AB0005D1E002D7FF716AE102D41F34181DFF8FA
:105AC000B492224649461026B946299B0F46DDF876
:105AD00028B00C9C05E008F10808103D102D40F39B
