:020000040800F2
:1000000000C00020812100089D1800089F180008EA
:10001000A1180008A3180008A51800080000000097
:100020000000000000000000000000004141000846
:10003000A718000800000000E14100082542000860
:10004000C9210008C9210008C9210008C9210008E8
:10005000C9210008C9210008C9210008C9210008D8
:10006000C9210008C9210008C9210008C9210008C8
:10007000C9210008C9210008C9210008C9210008B8
:10008000C9210008C9210008C9210008C9210008A8
:10009000C9210008C9210008C9210008C921000898
:1000A000C9210008C9210008C9210008C921000888
:1000B000C9210008C9210008C9210008C921000878
:1000C000C9210008C9210008C9210008C921000868
:1000D000C9210008C9210008A9180008B91800089A
:1000E000C9210008C9210008C9210008C921000848
:1000F000C9210008C9210008C9210008C921000838
:10010000C9210008C9210008C9210008C921000827
:10011000C9210008C9210008C9180008D918000819
:10012000C9210008C9210008C9210008C921000807
:1001300000000000000000000000000000000000BF
:1001400000000000000000000000000000000000AF
:10015000000000000000000000000000000000009F
:10016000000000000000000000000000000000008F
:10017000000000000000000000000000000000007F
:10018000000000000000000000000000000000006F
:10019000000000000000000000000000000000005F
:1001A000000000000000000000000000000000004F
:1001B000000000000000000000000000000000003F
:1001C000000000000000000000000000000000002F
:1001D000000000000000000000000000000000001F
:0401E0005FF8E0F1F3
:1001F00010B5054C237833B9044B13B10448AFF361
:1002000000800123237010BDC00900200000000001
:100210001CC0000808B5034B1BB103490348AFF3EA
:10022000008008BD00000000C40900201CC00008B8
:1002300081F0004102E000BF83F0004330B54FEA97
:1002400041044FEA430594EA050F08BF90EA020F04
:100250001FBF54EA000C55EA020C7FEA645C7FEA97
:10026000655C00F0E2804FEA5454D4EB5555B8BFBA
:100270006D420CDD2C4480EA020281EA030382EA2B
:10028000000083EA010180EA020281EA0303362DBD
:1002900088BF30BD11F0004F4FEA01314FF4801C90
:1002A0004CEA113102D0404261EB410113F0004FA2
:1002B0004FEA03334CEA133302D0524263EB430359
:1002C00094EA050F00F0A780A4F10104D5F1200EF7
:1002D0000DDB02FA0EFC22FA05F2801841F1000152
:1002E00003FA0EF2801843FA05F359410EE0A5F126
:1002F00020050EF1200E012A03FA0EFC28BF4CF057
:10030000020C43FA05F3C01851EBE37101F000450C
:1003100007D54FF0000EDCF1000C7EEB00006EEB19
:100320000101B1F5801F1BD3B1F5001F0CD34908A3
:100330005FEA30004FEA3C0C04F101044FEA4452FA
:1003400012F5800F80F09A80BCF1004F08BF5FEA81
:10035000500C50F1000041EB045141EA050130BD61
:100360005FEA4C0C404141EB0101013C28BFB1F573
:10037000801FE9D291F0000F04BF01460020B1FABE
:1003800081F308BF2033A3F10B03B3F120020CDA91
:100390000C3208DD02F1140CC2F10C0201FA0CF06F
:1003A00021FA02F10CE002F11402D8BFC2F1200CD4
:1003B00001FA02F120FA0CFCDCBF41EA0C0190408A
:1003C000E41AA2BF01EB0451294330BD6FEA0404D3
:1003D0001F3C1CDA0C340EDC04F11404C4F12002BE
:1003E00020FA04F001FA02F340EA030021FA04F3D0
:1003F00045EA030130BDC4F10C04C4F1200220FA27
:1004000002F001FA04F340EA0300294630BD21FA64
:1004100004F0294630BD94F0000F83F4801306BF2A
:1004200081F480110134013D4EE77FEA645C18BF1E
:100430007FEA655C29D094EA050F08BF90EA020FB5
:1004400005D054EA000C04BF1946104630BD91EAAD
:10045000030F1EBF0021002030BD5FEA545C05D1B0
:100460004000494128BF41F0004130BD14F58004EF
:100470003CBF01F5801130BD01F0004545F0FE4163
:1004800041F470014FF0000030BD7FEA645C1ABF98
:10049000194610467FEA655C1CBF0B46024650EACF
:1004A000013406BF52EA033591EA030F41F40021FB
:1004B00030BD00BF90F0000F04BF0021704730B581
:1004C0004FF4806404F132044FF000054FF0000156
:1004D00050E700BF90F0000F04BF0021704730B517
:1004E0004FF4806404F1320410F0004548BF4042EC
:1004F0004FF000013EE700BF42004FEAE2014FEA41
:1005000031014FEA02701FBF12F07F4393F07F4F1B
:1005100081F06051704732F07F4208BF704793F01E
:100520007F4F04BF41F40021704730B54FF4607431
:1005300001F0004521F000411CE700BF50EA010234
:1005400008BF704730B54FF000050AE050EA0102DD
:1005500008BF704730B511F0004502D5404261EB4D
:1005600041014FF4806404F132045FEA915C3FF48E
:10057000D8AE4FF003025FEADC0C18BF03325FEA2B
:10058000DC0C18BF033202EBDC02C2F1200300FADC
:1005900003FC20FA02F001FA03FE40EA0E0021FA01
:1005A00002F11444BDE600BF70B54FF0FF0C4CF4EF
:1005B000E06C1CEA11541DBF1CEA135594EA0C0FA1
:1005C00095EA0C0F00F0DEF82C4481EA030621EADC
:1005D0004C5123EA4C5350EA013518BF52EA033517
:1005E00041F4801143F4801338D0A0FB02CE4FF0C9
:1005F0000005E1FB02E506F00042E0FB03E54FF0F9
:100600000006E1FB03569CF0000F18BF4EF0010EF0
:10061000A4F1FF04B6F5007F64F5407404D25FEAEC
:100620004E0E6D4146EB060642EAC62141EA55519F
:100630004FEAC52040EA5E504FEACE2EB4F1FD0CE1
:1006400088BFBCF5E06F1ED8BEF1004F08BF5FEA5F
:10065000500E50F1000041EB045170BD06F0004611
:1006600046EA010140EA020081EA0301B4EB5C04BE
:10067000C2BFD4EB0C0541EA045170BD41F48011B6
:100680004FF0000E013C00F3AB8014F1360FDEBFDB
:10069000002001F0004170BDC4F10004203C35DAB7
:1006A0000C341BDC04F11404C4F1200500FA05F33A
:1006B00020FA04F001FA05F240EA020001F00042DB
:1006C00021F0004110EBD37021FA04F642EB060151
:1006D0005EEA430E08BF20EAD37070BDC4F10C047B
:1006E000C4F1200500FA04F320FA05F001FA04F23F
:1006F00040EA020001F0004110EBD37041F100012B
:100700005EEA430E08BF20EAD37070BDC4F1200535
:1007100000FA05F24EEA020E20FA04F301FA05F29D
:1007200043EA020321FA04F001F0004121FA04F245
:1007300020EA020000EBD3705EEA430E08BF20EA15
:10074000D37070BD94F0000F0FD101F0004640004F
:1007500041EB010111F4801F08BF013CF7D041EAD1
:10076000060195F0000F18BF704703F000465200D5
:1007700043EB030313F4801F08BF013DF7D043EAA6
:100780000603704794EA0C0F0CEA135518BF95EA5C
:100790000C0F0CD050EA410618BF52EA4306D1D1E3
:1007A00081EA030101F000414FF0000070BD50EA02
:1007B000410606BF1046194652EA430619D094EA8C
:1007C0000C0F02D150EA013613D195EA0C0F05D176
:1007D00052EA03361CBF104619460AD181EA0301CA
:1007E00001F0004141F0FE4141F470014FF0000082
:1007F00070BD41F0FE4141F4780170BD70B54FF01D
:10080000FF0C4CF4E06C1CEA11541DBF1CEA13559C
:1008100094EA0C0F95EA0C0F00F0A7F8A4EB05047E
:1008200081EA030E52EA03354FEA013100F0888075
:100830004FEA03334FF0805545EA131343EA12633E
:100840004FEA022245EA111545EA10654FEA0026F3
:100850000EF000419D4208BF964244F1FD0404F5AC
:10086000407402D25B084FEA3202B61A65EB030508
:100870005B084FEA32024FF480104FF4002CB6EBC5
:10088000020E75EB030E22BFB61A754640EA0C0045
:100890005B084FEA3202B6EB020E75EB030E22BF85
:1008A000B61A754640EA5C005B084FEA3202B6EBC6
:1008B000020E75EB030E22BFB61A754640EA9C0085
:1008C0005B084FEA3202B6EB020E75EB030E22BF55
:1008D000B61A754640EADC0055EA060E18D04FEA13
:1008E000051545EA16754FEA06164FEAC30343EAB3
:1008F00052734FEAC2025FEA1C1CC0D111F4801F80
:100900000BD141EA00014FF000004FF0004CB6E778
:1009100011F4801F04BF01430020B4F1FD0C88BF17
:10092000BCF5E06F3FF6AFAEB5EB030C04BFB6EB22
:10093000020C5FEA500C50F1000041EB045170BD15
:100940000EF0004E4EEA113114EB5C04C2BFD4EB42
:100950000C0541EA045170BD41F480114FF0000EC6
:10096000013C90E645EA060E8DE60CEA135594EA42
:100970000C0F08BF95EA0C0F3FF43BAF94EA0C0F45
:100980000AD150EA01347FF434AF95EA0C0F7FF4BA
:1009900025AF104619462CE795EA0C0F06D152EA0E
:1009A00003353FF4FDAE1046194622E750EA4106F2
:1009B00018BF52EA43067FF4C5AE50EA41047FF403
:1009C0000DAF52EA43057FF4EBAE12E74FF0FF3C68
:1009D00006E000BF4FF0010C02E000BF4FF0010C39
:1009E0004DF804CD4FEA410C7FEA6C5C4FEA430CB2
:1009F00018BF7FEA6C5C1BD001B050EA410C0CBF01
:100A000052EA430C91EA030F02BF90EA020F002062
:100A1000704710F1000F91EA030F58BF994208BFC9
:100A200090422CBFD8176FEAE37040F00100704786
:100A30004FEA410C7FEA6C5C02D150EA013C07D1DD
:100A40004FEA430C7FEA6C5CD6D152EA033CD3D028
:100A50005DF8040B704700BF8446104662468C4622
:100A60001946634600E000BF01B5FFF7B7FF002855
:100A700048BF10F1000F01BD4DF808EDFFF7F4FF7E
:100A80000CBF012000205DF808FB00BF4DF808ED09
:100A9000FFF7EAFF34BF012000205DF808FB00BF2C
:100AA0004DF808EDFFF7E0FF94BF012000205DF84E
:100AB00008FB00BF4DF808EDFFF7CEFF94BF012003
:100AC00000205DF808FB00BF4DF808EDFFF7C4FFFC
:100AD00034BF012000205DF808FB00BF4FEA41024F
:100AE00012F5001215D211D56FF47873B3EB625280
:100AF00012D94FEAC12343F0004343EA505311F0A7
:100B0000004F23FA02F018BF404270474FF0000038
:100B1000704750EA013005D111F0004008BF6FF076
:100B2000004070474FF00000704700BF4A0011D2EC
:100B300012F5001211D20DD56FF47873B3EB625237
:100B40000ED44FEAC12343F0004343EA505323FA43
:100B500002F070474FF00000704750EA013002D1B8
:100B60004FF0FF3070474FF000007047844641EA75
:100B7000000313F0030349D1403A23D30B68036009
:100B80004B6843608B688360CB68C3600B6903610B
:100B90004B6943618B698361CB69C3610B6A0362F3
:100BA0004B6A43628B6A8362CB6AC3620B6B0363DB
:100BB0004B6B43638B6B8363CB6BC36340304031C0
:100BC000403ADBD230320BD30B6803604B68436092
:100BD0008B688360CB68C36010301031103AF3D259
:100BE0000C3205D351F8043B40F8043B043AF9D2E7
:100BF000043208D0D2071CBF11F8013B00F8013BBA
:100C000001D30B8803806046704700BF082A13D3C6
:100C10008B07B1D010F00303AED0C3F10403D21A96
:100C2000DB071CBF11F8013B00F8013BA4D331F8EE
:100C3000023B20F8023B9FE7043AD9D3013A11F86E
:100C4000013B00F8013BF9D20B7803704B784370FD
:100C50008B788370604670474FEA410C7FEA6C5C8A
:100C600002D150EA013C0AD14FEA430C7FEA6C5CA6
:100C700002D152EA033C02D14FF0000070474FF01E
:100C80000100704753B94AB9002908BF00281CBFAA
:100C90004FF0FF314FF0FF3000F076B9ADF1080CA6
:100CA0006DE904CE00F006F8DDF804E0DDE902238A
:100CB00004B070472DE9F047089E0D46044688466B
:100CC000002B4DD18A42944668D9B2FA82F252B1D1
:100CD00001FA02F3C2F1200120FA01F10CFA02FC40
:100CE00041EA030894404FEA1C41B8FBF1F71FFAB0
:100CF0008CFE01FB178807FB0EF0230C43EA084328
:100D000098420AD91CEB030307F1FF3580F01E81DE
:100D1000984240F21B81023F63441B1AB3FBF1F07F
:100D200001FB103300FB0EFEA4B244EA0344A645C7
:100D30000AD91CEB040400F1FF3380F00981A645B9
:100D400040F20681644402380021A4EB0E0440EA1C
:100D500007401EB10023D440C6E90043BDE8F08738
:100D60008B4208D9002E00F0EE800021C6E9000574
:100D70000846BDE8F087B3FA83F100294AD1AB42B7
:100D800002D3824200F2FC80841A65EB0303012047
:100D90009846002EE2D0C6E90048DFE702B9FFDE40
:100DA000B2FA82F2002A40F09180A1EB0C000121FE
:100DB0004FEA1C471FFA8CFEB0FBF7F307FB13004A
:100DC000250C45EA00450EFB03F0A84208D91CEBB0
:100DD000050503F1FF3802D2A84200F2CE80434657
:100DE0002D1AB5FBF7F007FB10550EFB00FEA4B261
:100DF00044EA0544A64508D91CEB040400F1FF357C
:100E000002D2A64500F2B6802846A4EB0E0440EAC2
:100E100003409EE7C1F120078B4022FA07FC4CEA11
:100E2000030C25FA07FA4FEA1C49BAFBF9F820FA35
:100E300007F309FB18AA8D401FFA8CFE1D4300FA28
:100E400001F308FB0EF02C0C44EA0A44A04202FA1B
:100E500001F20BD91CEB040408F1FF3A80F0888002
:100E6000A04240F28580A8F102086444241AB4FB31
:100E7000F9F009FB104400FB0EFEADB245EA044454
:100E8000A64508D91CEB040400F1FF356CD2A64539
:100E90006AD90238644440EA0840A0FB0295A4EBFA
:100EA0000E04AC42C846AE4656D353D0002E69D08D
:100EB000B3EB080264EB0E0422FA01F304FA07F71D
:100EC0001F43CC40C6E90074002147E70CFA02FC3E
:100ED000C2F1200125FA01F34FEA1C4720FA01F183
:100EE00095400D43B3FBF7F107FB11331FFA8CFE5E
:100EF000280C40EA034001FB0EF3834204FA02F49B
:100F000008D91CEB000001F1FF382FD283422DD904
:100F100002396044C01AB0FBF7F307FB1300ADB20F
:100F200045EA004503FB0EF0A84208D91CEB050575
:100F300003F1FF3816D2A84214D9023B6544281A9F
:100F400043EA014138E73146304607E72F46E4E6F9
:100F50001846F9E64B45A9D2B9EB020865EB0C0E31
:100F60000138A3E74346EAE7284694E74146D1E73C
:100F7000D0467BE76444023847E7023B65442FE7ED
:100F8000084606E73146E9E6704700BF2DE97043A1
:100F900096B045E05C4B33F8242003EB84039B7848
:100FA000019300922346594A402106A805F086F88D
:100FB000574D4FF0FF31286803F068FE06A805F092
:100FC000BFF8642382B206A9524802F079FC0023DC
:100FD0001A461946286803F05AFC0134B4F5B47F68
:100FE000D8DB4D4B1B884D4A402106A805F066F81A
:100FF000474C4FF0FF31206803F048FE06A805F08B
:101000009FF8642382B206A9424802F059FC0023EB
:101010001A461946206803F03AFC642002F06AFF81
:10102000002406943C22214607A804F0F5FF3C4B1F
:10103000D3E90601D3E91423CDE90223CDE9000168
:10104000384A402106A805F039F8314D4FF0FF31FC
:10105000286803F01BFE06A805F072F82D4E6423E5
:1010600082B206A9304602F02BFC234622462146D6
:10107000286803F00CFC2C4BD3E90601D3E91423B8
:10108000CDE90223CDE90001284A402106A805F058
:1010900015F84FF0FF31286803F0F8FD06A805F0B9
:1010A0004FF8642382B206A9304602F009FC2346B9
:1010B00022462146286803F0EAFB1D49D1E9008950
:1010C000D1E90223D1E90401CDE90401CDE90223EC
:1010D000CDE90089174A402106A804F0EFFF4FF040
:1010E000FF31286803F0D2FD06A805F029F8642333
:1010F00082B206A9304602F0E3FB2346224621468F
:10110000286803F0C4FB69E7A412002098C0000817
:10111000DC090020BC1D00204C1C0020A4C00008DD
:10112000981E002038C00008F01E002054C000089F
:10113000800E002070C0000800B583B004F04AFBA8
:101140000D4B186001220D490D4802F002FE02E02D
:10115000012002F0CFFE002001904FF0FF3301AAE2
:10116000194604F03FFC0128F2D1019A054B9A423E
:10117000EED100F027F9EBE7780E0020F40D002007
:10118000041E00207856341208B50A4B1A680A4B20
:101190001A6004F01FFB094B186001220849094836
:1011A00002F0D7FD00F0D4F90028FBD1012002F0B5
:1011B000A1FEF7E7DC090020980E0020E8090020D6
:1011C000481800204C1E002008B50D4802F0B4FE5F
:1011D0000C4B18600C4A00210C4802F015FE0C4B19
:1011E00018600C4A00210C4802F00EFE0B4B1860F0
:1011F0000B4A00210B4802F007FE0B4B186008BD9C
:10120000ECC00008DC090020FCC000088D0F0008BD
:10121000E009002020C1000839110008E40900207D
:1012200044C1000889110008E809002084B0134B6C
:101230009A6942F020029A619A6902F020020092B3
:10124000009A9A6942F004029A619A6902F00402D3
:101250000192019A9A6942F008029A619A6902F031
:1012600008020292029A9A6942F010029A619B69FE
:1012700003F010030393039B04B070470010024077
:1012800084460023184605E01CF803205040034A1A
:10129000105C01339942F7DC704700BF68C3000857
:1012A00084460023184699420FDD10B41CF8032031
:1012B00082EA1022054C34F9122082EA002080B222
:1012C00001339942F2DC10BC7047704768C10008D6
:1012D00010B584B0244B1B6813BB234B01221A604A
:1012E000224B234A1A6040222249234802F031FD52
:1012F0000023039303AA0092032220492048006898
:1013000004F0BCFB039B4BB14FF0E0234FF0805245
:10131000C3F8042DBFF34F8FBFF36F8F04B010BD20
:101320000024114B1C60114B124A1A6040221049D4
:10133000114802F00EFD039403AB009323460322F1
:101340000E490F48006804F099FB039B002BE5D081
:101350004FF0E0234FF08052C3F8042DBFF34F8FBE
:10136000BFF36F8FDAE700BF740E0020F00D00208E
:10137000F40D0020340E0020041E00207856341294
:10138000780E0020402819D038B50C46412800D0EE
:1013900038BDC86800F10040FFF7AEF8084DC5E958
:1013A0000001206900F10040FFF7A6F8C5E902013D
:1013B0006069FFF7A1F8C5E90401E9E7704700BFDC
:1013C000800E0020F8B5404B196819B33F4B1B68DD
:1013D0004033B3F5806F02D33C4B00221A603B4B85
:1013E00018680B463A4A02444031D3F800C05D68A1
:1013F0009C68D868C2F800C055609460D060103313
:1014000010328B42F1D1314A1368403313602E4BB6
:1014100000221A60002400E001342C4B1B68052BCD
:1014200014D92A4B1B68043BA3420DD9284D042133
:101430002819FFF725FF2B5DFC2BEDD1231DEB5C5D
:101440008342E9D1012302E0002300E0002343B9F5
:101450001F4C04212046FFF713FF2378FC2B0BD0F1
:10146000F8BD1A4D2A681A48121B0119FFF77EFBB6
:101470002B681C1B2C60EBE723798342F0D1677843
:10148000A57805F10804114B1B689C42E8D8104868
:101490004379867946EA032629460730FFF700FF9D
:1014A00086420AD0094D2A680948121B0119FFF724
:1014B0005DFB2B681C1B2C60D2E72A460549384689
:1014C000FFF760FFEEE700BFF00D0020EC0D0020FD
:1014D000EC090020F309002003460022104608E032
:1014E00013F801CB8CEA000C044810F80C00013210
:1014F00092B21FFA81FC9445F2D8704768C4000884
:1015000008B50E4B1B6863B90C4B01221A600C4BDB
:101510000C4A1A604FF400720B490C4802F019FC97
:1015200008BD064B00221A60054B074A1A604FF4AB
:1015300000720449054802F00CFCF1E7481C002049
:10154000A012002048180020481A00204C1E00203D
:101550002DE9F8434F4B1968C1B14F4B1B6803F598
:101560000073B3F5806F02D94B4B00221A604A4CCE
:1015700023684FF4007249481844FFF7F7FA2368CC
:1015800003F500732360434B00221A60002400E03F
:101590000134414B1B68022B11D93F4B1B68013BA7
:1015A000A3420AD93D4B1B5D542BF1D1631C3B4A2E
:1015B000D35C2C2BECD1012302E0002300E00023BC
:1015C0003BB9354B1B682E2B0ED800242046BDE8B6
:1015D000F883314D2A683148121B0119FFF7C6FA0A
:1015E0002B681C1B2C60ECE72C4C2E212046FFF7AF
:1015F00073FF94F82E3083420CD00024264D2A68C5
:1016000026482F3A00F12F01FFF7B0FA2B682F3B45
:101610002B60DBE7A18D224A1180608DA588401BDD
:10162000FEF758FF00221F4BFFF7E8F806460F466B
:10163000002407E000201C4B23F8202003EB80004F
:10164000817001340B2C23DC2046FEF743FF324629
:101650003B46FEF7A9FF804689462846FEF73AFF3B
:1016600042464B46FEF7EAFD0022104BFFF7C6F854
:10167000FFF734FA04EB4402084B1344DA8891B2C2
:101680000028D7DBB0F5B47FD5DD4FF4B470D2E7D6
:101690000124B3E7A01200209C1200209C0E002021
:1016A0004C1C002000002640A412002000005940DD
:1016B00008B50368064A934203D0064A934203D012
:1016C00008BDFFF705FEFBE7FFF71AFFF8E700BFCD
:1016D000004400400048004010B504460268074B33
:1016E0009A4204D02268064B9A4203D010BD00F003
:1016F0007FFDF7E700F0C2FCF8E700BF00100040F4
:101700000014004072B6FEE700B591B02822002117
:1017100006A804F081FC0023019302930393049331
:101720000593012206924FF4803307930A92022216
:101730000D920E934FF4E0130F9306A800F0D2FF22
:1017400080B90F23019302210291002303934FF4E8
:1017500080620492059301A801F0F6F920B911B056
:101760005DF804FBFFF7CEFFFFF7CCFF08B500F0F4
:101770002DFDFFF7C9FFFFF759FD00F05DFA00F0FE
:1017800013F900F06BF900F0CDFA00F0E5FA00F083
:10179000FDFA00F03BF900F0BFFB094801F090FBB7
:1017A0000421084801F0CAFE0421074801F0C6FEE2
:1017B00002F0E2FAFFF708FD02F000FBFEE700BFCF
:1017C0002C1D0020E41C0020741D002000B583B0F7
:1017D000114B9A6942F001029A619A6902F0010282
:1017E0000092009ADA6942F08052DA61DB6903F014
:1017F00080530193019B00220F216FF0010000F044
:101800001BFD064A536823F0E06343F00073536006
:1018100003B05DF804FB00BF00100240000001406F
:1018200000B589B001460022362000F005FD3620C3
:1018300000F03AFD154BDA6942F01002DA61DB691B
:1018400003F010030193019B02A903A801F058FAC9
:1018500001F036FA43000E48A0FB03239B0C013B2A
:101860000C480D4A026040F2E732C2604360002338
:101870000361836001F06EFC18B1012009B05DF8CE
:1018800004FB044801F01CFBF8E700BF0010024015
:1018900083DE1B43501C002000100040FEE7FEE7E3
:1018A000FEE7FEE7FEE7704708B5024802F0F2F8EF
:1018B00008BD00BF041E002008B5024802F0EAF887
:1018C00008BD00BF4C1E002008B5024801F039FBDE
:1018D00008BD00BF501C002008B5024801F031FBD4
:1018E00008BD00BF2C1D00200120704708B504F082
:1018F00069FB162303604FF0FF3008BD08B54FF0B9
:10190000FF31FFF7F3FFFEE770B50C4616460025E2
:1019100006E0AFF30080214601F8010B01350C46CB
:10192000B542F6DB304670BD70B50C461646002554
:1019300004E014F8010BAFF300800135B542F8DB89
:10194000304670BD4FF0FF3070474FF400534B608E
:1019500000207047012070470020704710B50346F3
:101960000C4A0D490D48006840B10C48006803441A
:10197000521A934206D8094A136010BD0748084C12
:101980000460F2E704F01EFB0C2303604FF0FF300D
:10199000F3E700BF00C0002000100000981C0020EA
:1019A000204C00207047000000B58DB0242200219B
:1019B00003A804F031FB0023019302931148124A5B
:1019C0000260436083604FF6FF72C260036183610F
:1019D0000323039301230593099303A901F012FC48
:1019E00050B900230193029301A9064801F00CFEAF
:1019F00028B90DB05DF804FBFFF784FEF1E7FFF7AF
:101A000081FEF6E7E41C00200008004000B583B02A
:101A10000023009301930F480F4A0260472242605F
:101A2000836040F2E732C260836101F093FB50B9FA
:101A30000023009301936946064801F0E5FD28B9AB
:101A400003B05DF804FBFFF75DFEF1E7FFF75AFE18
:101A5000F6E700BF2C1D00200014004000B58DB03B
:101A60002422002103A804F0D7FA00230193029353
:101A70001248134A0260436083604FF6FF72C260EF
:101A80000361436183610323039301230593099356
:101A900003A901F0B7FB50B900230193029301A9F8
:101AA000064801F0B1FD28B90DB05DF804FBFFF761
:101AB00029FEF1E7FFF726FEF6E700BF741D0020C0
:101AC0000034014000B583B00368134A934205D047
:101AD000124A93420DD003B05DF804FB104BDA6953
:101AE00042F00202DA61DB6903F002030093009B1B
:101AF000F1E70B4BDA6942F02002DA61DB6903F0AF
:101B000020030193019B00220421372000F094FB65
:101B1000372000F0C9FBDEE700040040001400405D
:101B20000010024000B589B000230493059306938A
:101B3000079303681E4A934205D01E4A93421CD065
:101B400009B05DF804FB1C4BDA6942F00402DA616B
:101B5000DA6902F004020092009A9A6942F00802DF
:101B60009A619B6903F008030193019BC0230493CE
:101B700004A9124800F080FCE2E70F4B9A6942F496
:101B800000529A619A6902F400520292029A9A698A
:101B900042F010029A619B6903F010030393039BC8
:101BA000C023049304A9064800F066FCC8E700BF00
:101BB000000800400034014000100240000C0140C9
:101BC0000010014010B586B00023029303930493E4
:101BD00005930268154B9A4201D006B010BD03F57B
:101BE00003339A6942F004029A619A6902F004028E
:101BF0000092009A9A6942F008029A619B6903F088
:101C000008030193019BC0230293022403940594CB
:101C100002A9074800F030FC0323029303940594C3
:101C200002A9044800F028FCD7E700BF00040040E8
:101C300000080140000C014000B58FB000230A935A
:101C40000B930C930D9308930993019302930393C1
:101C500004930593069307933048314A0260472264
:101C60004260836040F2E732C2600361836101F049
:101C700071FA002839D14FF480530A930AA92748F2
:101C800001F0CEFB002833D1244801F08FFA002860
:101C900031D100230893099308A9204801F0B4FC2E
:101CA00060BB60230193002202920392059201A976
:101CB0001A4801F03BFB20BB04220DEB0201174840
:101CC00001F034FB00BB082201A9144801F02EFBEF
:101CD000E8B90C2201A9114801F028FBD0B90F483E
:101CE000FFF770FF0FB05DF804FBFFF70BFDC2E7D5
:101CF000FFF708FDC8E7FFF705FDCAE7FFF702FD9C
:101D0000CFE7FFF7FFFCD7E7FFF7FCFCDBE7FFF7C8
:101D1000F9FCDEE7FFF7F6FCE1E700BF9C1C0020C2
:101D20000004004008B50A480A4B03604FF4E13351
:101D3000436000238360C36003610C2242618361BE
:101D4000C36101F08DFD00B908BDFFF7DBFCFBE7C7
:101D5000BC1D00200038014008B50A480A4B03604A
:101D60004FF4E133436000238360C36003610C22BE
:101D700042618361C36101F073FD00B908BDFFF7E3
:101D8000C1FCFBE7041E00200044004008B50A48DF
:101D90000A4B03604FF46133436000238360C360E8
:101DA00003610C2242618361C36101F059FD00B9F6
:101DB00008BDFFF7A7FCFBE74C1E002000480040D1
:101DC00030B58BB0002306930793089309930368FB
:101DD0004B4A934207D04B4A93422ED04A4A9342F1
:101DE0005BD00BB030BD494B9A6942F480429A6196
:101DF0009A6902F480420092009A9A6942F00402C1
:101E00009A619B6903F004030193019B4FF40073F3
:101E1000069302230793032309933D4C06A920460A
:101E200000F02AFB4FF48063069300230793089386
:101E300006A9204600F020FBD3E7344BDA6942F4D0
:101E40000032DA61DA6902F400320292029A9A6987
:101E500042F004029A619B6903F004030393039B1D
:101E6000042306930223079303230993284D06A90D
:101E7000284600F001FB08230693002407940894E9
:101E800006A9284600F0F8FA22460521262000F08F
:101E9000D3F9262000F008FAA3E71C4BDA6942F4D4
:101EA0008022DA61DA6902F480220492049A9A6943
:101EB00042F008029A619B6903F008030593059BB1
:101EC0004FF4806306930223079303230993114D74
:101ED00006A9284600F0D0FA4FF4006306930024C8
:101EE0000794089406A9284600F0C6FA224621461F
:101EF000272000F0A1F9272000F0D6F971E700BFF4
:101F000000380140004400400048004000100240FA
:101F100000080140000C01402DE9F003DFF860C02B
:101F20000026184FCCE900670024174DCCE9024584
:101F300000220023CCE90423CCE908230EA1D1E937
:101F40000001CCE910014FF00008DFF84090CCE927
:101F50001289DFF83CC0CCE90067CCE90245CCE946
:101F60000423CCE90823CCE91001CCE91289BDE8AF
:101F7000F0037047AFF300800000000000408FC006
:101F8000981E002000008E4000006E4000408F40F0
:101F9000F01E00202DE9F0478246D0E90C23C0E96D
:101FA0000E23D0E90A23C0E90C2300F12001D1E976
:101FB0000001DAE90623FEF73FF9CAE90A01DAE986
:101FC0000045DAE90A01DAE90C23FEF735F90246A1
:101FD0000B4620462946FEF7E7FA04460D46DAE9A5
:101FE0000201DAE90A23FEF7DFFA02460B46204631
:101FF0002946FEF723F904460D46DAE90467DAE9D3
:102000000A89DAE90C0102460B46FEF717F9024687
:102010000B4640464946FEF70FF9DAE90E23FEF774
:102020000DF902460B4630463946FEF7BDFA024628
:102030000B4620462946FEF701F902460B46DAE92F
:102040001401FEF7FBF8CAE91401DAE91401DAE930
:102050001223FEF739FD18B1DAE91223CAE9142375
:10206000DAE91401DAE91023FEF710FD18B1DAE914
:102070001023CAE91423BDE8F0870000F8B53B4BF4
:102080001D68686A00B2FEF725FA394CC4E90601FA
:1020900000276F62374B1E68706A00B2FEF71AFAAB
:1020A000354DC5E9060177622046FFF773FF2846E4
:1020B000FFF770FF00220023D4E91401FEF704FDAE
:1020C000D8B12E4B1C682A4BD3E91401FEF72EFD24
:1020D000E0632764002200232749D1E91401FEF7B9
:1020E000F3FC30B3254B1C68234BD3E91401FEF7F6
:1020F0001DFD60630023A363F8BD002200231C497B
:10210000D1E91401FEF7C2FC28B91C4B1B68002260
:10211000DA631A64DEE7194B1C680023E363144B8F
:10212000D3E91456284606F10041FEF7FFFC20646F
:10213000D0E7002200231049D1E91401FEF7A6FCE4
:1021400028B90E4B1B6800225A639A63D4E70B4BE5
:102150001C6800236363084BD3E91456284606F134
:102160000041FEF7E3FCA063C6E700BF741D00203A
:10217000981E0020E41C0020F01E00209C1C002063
:10218000FFF710FC0B480C490C4A002302E0D4581E
:10219000C4500433C4188C42F9D3094A094C0023B3
:1021A00001E013600432A242FBD303F011FFFFF7FA
:1021B000DDFA704700000020C009002074C9000843
:1021C000C00900201C4C0020FEE7000008B5074AAB
:1021D000136843F010031360032000F01BF80F2076
:1021E000FFF71EFBFFF7F2FA002008BD00200240B7
:1021F000034A1168034B1B780B441360704700BF00
:10220000481F002004000020014B1868704700BFE1
:10221000481F0020074AD36823F4E0631B041B0C0B
:10222000000200F4E060034343F0BF6343F4003373
:10223000D360704700ED00E000B5194BDB68C3F3D5
:102240000223C3F1070CBCF1040F28BF4FF0040CAC
:1022500003F1040EBEF1060F18D9033B4FF0FF3E09
:102260000EFA0CFC21EA0C0199400EFA03F322EA63
:102270000303194300280BDB0901C9B200F16040D8
:1022800000F5614080F800135DF804FB0023E5E7EA
:1022900000F00F000901C9B2024B1954F4E700BF66
:1022A00000ED00E014ED00E0002807DB00F01F0265
:1022B000400901239340024A42F82030704700BF92
:1022C00000E100E090F82130DBB2022B06D00423BD
:1022D0008363002380F82030012070470268136870
:1022E00023F00E0313600268136823F001031360E8
:1022F000036CC16B012202FA03F34B6080F82120CA
:10230000002380F8203018467047000008B590F888
:102310002130DBB2022B03D004238363012008BDEC
:102320000268136823F00E0313600268136823F039
:102330000103136003684C4A93424ED9783A9342A2
:1023400024D01432934230D0143293422FD014321E
:1023500093422FD0143293422FD0143293422FD075
:10236000143293422FD002F5627293422ED014326F
:1023700093422DD0143293422CD01432934202D087
:102380004FF4803203E04FF4805200E00122374BDB
:102390005A60012380F82130002380F82030436BFD
:1023A000002B5ED098470020B9E71022EFE74FF4EA
:1023B0008072ECE74FF48052E9E74FF48032E6E7B1
:1023C0004FF48012E3E74FF08072E0E70122DEE78E
:1023D0001022DCE74FF48072D9E7254A934224D0DB
:1023E0001432934225D01432934224D014329342B3
:1023F00024D01432934224D01432934224D0143285
:10240000934224D002F56272934223D01432934255
:1024100022D01432934221D01432934202D04FF48E
:10242000803203E04FF4805200E00122114B5A60E9
:10243000AFE71022FAE74FF48072F7E74FF48052CB
:10244000F4E74FF48032F1E74FF48012EEE74FF0FB
:102450008072EBE70122E9E71022E7E74FF4807290
:10246000E4E700205BE700BF800002400004024078
:10247000080002400000024070B582B00024A4466B
:10248000B0E0874DAA4210D007D9864DAA420CD0A1
:1024900005F58035AA4208D013E0A5F58015AA42BB
:1024A00003D005F57025AA4207D18A68002A62D0B8
:1024B000012A5BD04361082403E0A5F58015AA42F8
:1024C000F3D0BEF1FF0F58D80646BEF1FF0F56D825
:1024D0004FEA8C0233680F25954023EA050304FA7E
:1024E00002F2134333604B6813F0805F78D06E4B79
:1024F0009A6942F001029A619B6903F0010301931A
:10250000019B4FEA9C02951C684B53F825600CF028
:1025100003039D000F23AB4026EA0306644B984259
:1025200033D003F58063984200F0988003F5806310
:10253000984200F0958003F58063984200F0928005
:1025400003F58063984200F08F8003F58063984222
:1025500019D006231AE0CC68B3E7CC680434B0E79E
:10256000CC680834ADE7CC680C34AAE703610824D2
:10257000A7E70024A5E70424A3E7061DA5E7ACF11F
:1025800008029200A6E7052300E00023AB40334396
:102590000232464D45F822304B6813F4801F65D057
:1025A000444A936843EA0E0393604B6813F4001F98
:1025B00062D0404AD36843EA0E03D3604B6813F4F9
:1025C000003F5FD03B4A536843EA0E0353604B68B9
:1025D00013F4803F5CD0374A136843EA0E0313605C
:1025E0000CF1010C0A6832FA0CF357D0012303FAFC
:1025F0000CF302EA030E33EA0202F1D14A68122A0E
:102600003FF63FAF122A3FF65CAF01A555F822F026
:10261000AB24000857250008612500087325000831
:10262000C3240008C3240008C3240008C3240008EE
:10263000C3240008C3240008C3240008C3240008DE
:10264000C3240008C3240008C3240008C3240008CE
:10265000C32400085B25000867250008012395E7CF
:10266000022393E7032391E704238FE7114A93683A
:1026700023EA0E03936098E70E4AD36823EA0E0319
:10268000D3609BE70B4A536823EA0E0353609EE72F
:10269000084A136823EA0E031360A1E702B070BD75
:1026A0000000221000003110001002400000014024
:1026B000000801400004014082B0084B1B68084A32
:1026C000A2FB03235B0A00FB03F3019300BF019B02
:1026D0005A1E0192002BF9D102B070470000002071
:1026E000D34D6210002800F0F18170B582B004462D
:1026F000036813F0010F2CD0994B5B6803F00C03B7
:10270000042B1DD0964B5B6803F00C03082B12D0F2
:102710006368B3F5803F41D0002B55D103F180436E
:1027200003F504331A6822F480321A601A6822F41E
:1027300080221A6037E08A4B5B6813F4803FE7D051
:10274000874B1B6813F4003F03D06368002B00F035
:10275000BF81236813F0020F75D0814B5B6813F0C3
:102760000C0F5FD07E4B5B6803F00C03082B54D03A
:102770002369002B00F08A807A4B01221A60FFF750
:1027800043FD0546764B1B6813F0020F75D1FFF72A
:102790003BFD401B0228F5D903209EE1704A1368D7
:1027A00043F480331360636843B3FFF72DFD0546A0
:1027B0006B4B1B6813F4003FCBD1FFF725FD401B8B
:1027C0006428F5D9032088E1B3F5A02F09D0644B24
:1027D0001A6822F480321A601A6822F480221A6081
:1027E000E1E703F18043A3F53C331A6842F4802209
:1027F0001A601A6842F480321A60D4E7FFF704FDC9
:102800000546574B1B6813F4003FA2D0FFF7FCFCB2
:10281000401B6428F5D903205FE1514B5B6813F43A
:10282000803FA5D14E4B1B6813F0020F03D02369E4
:10283000012B40F04F814A4A136823F0F803616985
:1028400043EAC1031360236813F0080F33D0A36970
:10285000002B5CD0434B0122C3F88024FFF7D4FC4B
:1028600005463F4B5B6A13F0020F21D1FFF7CCFC0A
:10287000401B0228F5D903202FE1394A136823F0C1
:10288000F803616943EAC1031360DCE7354B0022BA
:102890001A60FFF7B9FC0546314B1B6813F0020FB5
:1028A000D1D0FFF7B1FC401B0228F5D9032014E179
:1028B0000120FFF701FF236813F0040F00F096805A
:1028C000274BDB6913F0805F34D1254BDA6942F086
:1028D0008052DA61DB6903F080530193019B01258B
:1028E000214B1B6813F4807F26D0E368012B3DD079
:1028F000002B53D103F1804303F504331A6A22F00D
:1029000001021A621A6A22F004021A6233E0154BBD
:102910000022C3F88024FFF777FC0546104B5B6A62
:1029200013F0020FC7D0FFF76FFC401B0228F5D948
:102930000320D2E00025D3E70B4A136843F48073E9
:102940001360FFF761FC0646074B1B6813F4807F9A
:10295000CBD1FFF759FC801B6428F5D90320BCE0DC
:102960000010024000004242007000405F4A136ABB
:1029700043F001031362E36833B3FFF745FC0646F7
:102980005A4B1B6A13F0020F2FD1FFF73DFC801B3F
:1029900041F288339842F3D903209EE0052B09D0F9
:1029A000524B1A6A22F001021A621A6A22F00402D9
:1029B0001A62E0E74D4B1A6A42F004021A621A6A80
:1029C00042F001021A62D6E7FFF71EFC0646474BAB
:1029D0001B6A13F0020F08D0FFF716FC801B41F2B0
:1029E00088339842F3D9032077E0E5B9E369002BF7
:1029F00072D03E4A526802F00C02082A56D0022BCE
:102A000017D03B4B00221A66FFF7FEFB0446374BFC
:102A10001B6813F0007F47D0FFF7F6FB001B02286E
:102A2000F5D9032059E0314AD36923F08053D361AB
:102A3000DCE72F4B00221A66FFF7E6FB05462B4B1F
:102A40001B6813F0007F06D0FFF7DEFB401B022857
:102A5000F5D9032041E0236AB3F5803F1AD023491A
:102A60004B6823F47413226A606A024313434B6079
:102A70001F4B01221A66FFF7C7FB04461B4B1B685E
:102A800013F0007F0ED1FFF7BFFB001B0228F5D922
:102A9000032022E0154A536823F40033A1680B4356
:102AA0005360DCE7002018E0002016E0012B16D070
:102AB0000E4B5B6803F48031226A914211D103F41A
:102AC0007013626A93420ED1002006E00120704725
:102AD000012002E0012000E0002002B070BD0120D2
:102AE000FBE70120F9E70120F7E700BF00100240F3
:102AF000000042420F4B5B6803F00C02082A01D031
:102B00000D487047C3F383420C49885C13F4803F3F
:102B10000BD0084B5B68C3F34043094AD35C064AB9
:102B200002FB00F0B0FBF3F07047064B03FB00F034
:102B3000704700BF0010024000127A0080C50008F4
:102B400090C5000800093D00002800F0A08070B585
:102B50000D460446524B1B6803F007038B420BD211
:102B60004F4A136823F007030B431360136803F005
:102B700007038B4240F08D80236813F0020F17D0BB
:102B800013F0040F04D0474A536843F4E0635360E2
:102B9000236813F0080F04D0424A536843F460538B
:102BA0005360404A536823F0F003A1680B4353601D
:102BB000236813F0010F31D06368012B20D0022B62
:102BC00025D0384A126812F0020F64D035494A689D
:102BD00022F0030213434B60FFF716FB0646314B0E
:102BE0005B6803F00C036268B3EB820F16D0FFF74B
:102BF0000BFB801B41F288339842F0D9032045E05B
:102C0000284A126812F4003FE0D101203EE0254A34
:102C1000126812F0007FD9D1012037E0204B1B68E9
:102C200003F00703AB420AD91D4A136823F00703D8
:102C30002B431360136803F00703AB422DD12368C5
:102C400013F0040F06D0174A536823F4E063E168D9
:102C50000B435360236813F0080F07D0114A5368E1
:102C600023F46053216943EAC1035360FFF742FF35
:102C70000C4B5B68C3F303130B4AD35CD8400B4B7C
:102C800018600B4B1868FEF7CBFD002070BD0120CB
:102C900070470120FAE70120F8E70120F6E700BFBE
:102CA000002002400010024068C50008000000201B
:102CB00008000020014B1868704700BF000000208A
:102CC00008B5FFF7F7FF044B5B68C3F30223034A21
:102CD000D35CD84008BD00BF0010024078C5000892
:102CE00008B5FFF7E7FF044B5B68C3F3C223034A51
:102CF000D35CD84008BD00BF0010024078C5000872
:102D00000F2303600B4B5A6802F0030242605A68BB
:102D100002F0F00282605A6802F4E062C2605B680E
:102D2000DB0803F4E0630361034B1B6803F0070354
:102D30000B607047001002400020024030B4036A6C
:102D4000026A22F0010202624268846924F073047C
:102D50000D682C4323F0020C8B6843EA0C03104DE2
:102D6000A84203D005F50065A84205D123F0080369
:102D7000CD682B4323F00403094DA84203D005F589
:102D80000065A84205D122F440724D692A438D693D
:102D90002A43426084614A684263036230BC7047E0
:102DA000002C014030B4036A026A22F4807202628D
:102DB0004268C46924F0730C0C6844EA0C0523F4DF
:102DC00000738C6843EA0423114CA04203D004F53D
:102DD0000064A04206D123F40063CC6843EA0423D4
:102DE00023F480630A4CA04203D004F50064A0429F
:102DF00007D122F440524C6942EA04128C6942EA3B
:102E000004124260C5614A68C263036230BC704705
:102E1000002C014030B4036A026A22F4805202623C
:102E20004468C26922F4E6420D6842EA052223F4AE
:102E300000538D6843EA0533094DA84203D005F5D8
:102E40000065A84204D124F480444D6944EA851405
:102E50004460C2614A680264036230BC704700BFCC
:102E6000002C014010B4036A046A24F001040462D7
:102E7000846924F0F00C4CEA021223F00A030B439D
:102E80008261036210BC704710B4036A046A24F0C4
:102E900010040462846924F4704C4CEA023223F07A
:102EA000A00343EA01138261036210BC7047836888
:102EB00023F070030B4343F0070383607047000067
:102EC00090F83D30DBB2012B2FD1022380F83D304A
:102ED0000268D36843F00103D3600368154A934244
:102EE00018D002F50062934214D0B3F1804F11D094
:102EF000A2F5983293420DD002F58062934209D038
:102F000002F58062934205D01A6842F001021A600D
:102F1000002070479A6802F00702062A07D01A6854
:102F200042F001021A600020704701207047002023
:102F3000704700BF002C01407047704770477047D2
:102F4000704710B5044603681A6912F0020F11D0D9
:102F5000DA6812F0020F0DD06FF002021A6101233D
:102F6000037703689B6913F0030F70D0FFF7E6FF48
:102F70000023237723681A6912F0040F12D0DA684D
:102F800012F0040F0ED06FF004021A6102232377AF
:102F900023689B6913F4407F5FD02046FFF7CEFF84
:102FA0000023237723681A6912F0080F12D0DA6819
:102FB00012F0080F0ED06FF008021A610423237775
:102FC0002368DB6913F0030F4ED02046FFF7B6FFEE
:102FD0000023237723681A6912F0100F12D0DA68E1
:102FE00012F0100F0ED06FF010021A610823237731
:102FF0002368DB6913F4407F3DD02046FFF79EFF36
:103000000023237723681A6912F0010F03D0DA68CE
:1030100012F0010F36D123681A6912F0800F03D025
:10302000DA6812F0800F34D123681A6912F0400F69
:1030300003D0DA6812F0400F32D123681A6912F017
:10304000200F03D0DA6812F0200F30D110BDFFF747
:1030500074FF2046FFF773FF8AE72046FFF76DFFF6
:103060002046FFF76CFF9BE72046FFF766FF2046F0
:10307000FFF765FFACE72046FFF75FFF2046FFF74D
:103080005EFFBDE76FF001021A612046FEF724FBE8
:10309000C1E76FF080021A61204600F0F4FAC3E73E
:1030A0006FF040021A612046FFF74AFFC5E76FF054
:1030B00020021A61204600F0E5FAC7E70368244AB7
:1030C000904212D002F5006290420ED0B0F1804FD3
:1030D0000BD0A2F59832904207D002F58062904260
:1030E00003D002F58062904203D123F070034A6856
:1030F0001343174A904212D002F5006290420ED05C
:10310000B0F1804F0BD0A2F59832904207D002F573
:103110008062904203D002F58062904203D123F492
:103120004073CA68134323F080034A691343036062
:103130008B68C3620B688362054B984203D003F52A
:103140000063984201D10B69036301234361704717
:10315000002C014040B310B5044690F83D30F3B167
:10316000022384F83D30214651F8040BFFF7A6FFF7
:10317000012384F8463084F83E3084F83F3084F8E8
:10318000403084F8413084F8423084F8433084F889
:10319000443084F8453084F83D30002010BD80F87C
:1031A0003C30FEF78FFCDBE70120704740B310B5E1
:1031B000044690F83D30F3B1022384F83D302146B7
:1031C00051F8040BFFF77AFF012384F8463084F8A6
:1031D0003E3084F83F3084F8403084F8413084F841
:1031E000423084F8433084F8443084F8453084F821
:1031F0003D30002010BD80F83C30FFF79DFEDBE73E
:1032000001207047002857D070B50D46044690F84D
:103210003D30002B4BD0022384F83D302268936868
:1032200023F4804323F007039360214651F8040BF5
:10323000FFF744FF21688A688B690E6A286810438B
:1032400023F4407C2CF0030CAA68AB6942EA032308
:1032500043EA0C0323F47C4323F0FC03EA69D5F82A
:103260000CC04CEA022C4CEA030C2A6A13032A69AC
:1032700043EA021343EA0C0326F022066A686D69EA
:1032800042EA05123243886021688B6123681A6222
:10329000012384F8463084F83E3084F83F3084F8C7
:1032A000423084F8433084F83D30002070BD80F80F
:1032B0003C30FEF737FCAEE70120704730B4036ABC
:1032C000026A22F0100202624468826922F4E64235
:1032D0000D6842EA052223F020038D6843EA0513B6
:1032E000114DA84203D005F50065A84206D123F090
:1032F0008003CD6843EA051323F040030A4DA8423A
:1033000003D005F50065A84207D124F440644D6957
:1033100044EA85048D6944EA8504446082614A6810
:103320008263036230BC7047002C014038B590F8CE
:103330003C30012B66D004460D46012380F83C301A
:103340000C2A5AD8DFE802F0075959591B59595924
:103350003059595944000068FFF7F0FC226893691E
:1033600043F0080393612268936923F00403936197
:103370002268936929690B43936100203EE000684D
:10338000FFF79CFF2268936943F40063936122680E
:10339000936923F48063936122689369296943EAFE
:1033A00001239361002029E00068FFF7FBFC2268FD
:1033B000D36943F00803D3612268D36923F004037F
:1033C000D3612268D36929690B43D361002015E0DA
:1033D0000068FFF71FFD2268D36943F40063D361DF
:1033E0002268D36923F48063D3612268D369296991
:1033F00043EA0123D361002000E00120002384F888
:103400003C3038BD0220FCE710B4846824F47F4CC3
:1034100042EA03220A4342EA0C02826010BC70476F
:1034200090F83C30012B78D010B50446012380F889
:103430003C30022380F83D300268936823F47F43D8
:1034400023F0770393600B68602B4CD029D8402B76
:1034500054D00CD9502B22D1CA6849680068FFF7B4
:1034600001FD50212068FFF722FD002005E0202B00
:103470000DD009D9302B0AD00120012384F83D302A
:10348000002384F83C3010BD0BB1102B05D1194638
:103490002068FFF70CFD0020EFE70120EDE7012099
:1034A000EBE7B3F5805F34D0B3F5005F0CD1CB68A8
:1034B0004A6889680068FFF7A7FF2268936843F4A9
:1034C000804393600020D8E7702B24D1CB684A68F2
:1034D00089680068FFF798FF2268936843F07703D4
:1034E00093600020C9E7CA6849680068FFF7CCFC10
:1034F00060212068FFF7DBFC0020BEE7CA6849684E
:103500000068FFF7AFFC40212068FFF7D0FC0020E7
:10351000B3E70020B1E70120AFE70220704701F0D8
:103520001F01012303FA01FC036A23EA0C0303626F
:10353000036A02FA01F10B430362704738B504468F
:1035400090F83E00C0B294F83F3094F84220D2B2D6
:1035500094F843C00D46B1B9012849D1012A48D198
:10356000022384F83E3084F842307DB3042D39D0F4
:10357000012200212068FFF7D2FF012204212068E8
:10358000FFF7CDFF27E0DBB25FFA8CFC042912D0F5
:10359000012833D1012B2CD1012A31D1BCF1010FEB
:1035A00030D1022384F83E3084F83F3084F8423032
:1035B00084F84330D9E7012B1CD1BCF1010F1BD19A
:1035C000022384F83F3084F84330CEE70122002103
:1035D0002068FFF7A4FF2268136843F0010313601B
:1035E000002006E0012204212068FFF798FFF2E79F
:1035F000012038BD0120FCE71846FAE70120F8E772
:103600001846F6E71046F4E790F83C30012B34D02A
:1036100010B4012380F83C30022380F83D30036869
:103620005A689C6822F0700C0A6842EA0C025A60E0
:103630000368134A934212D002F5006293420ED0FF
:10364000B3F1804F0BD0A2F59832934207D002F528
:103650008062934203D002F58062934204D124F049
:1036600080044A6814439C60012380F83D300023A5
:1036700080F83C30184610BC70470220704700BFED
:10368000002C014070477047026802F10C0353E8B8
:10369000003F23F490730C3242E800310029F3D14B
:1036A000026802F1140353E8003F23F001031432CF
:1036B00042E800310029F3D1036B012B05D0202310
:1036C00080F84230002303637047026802F10C0364
:1036D00053E8003F23F010030C3242E80031002988
:1036E000F3D1ECE790F84130DBB2212B01D002207E
:1036F00070478368B3F5805F17D0036A5A1C026273
:103700001A7803685A60C38C9BB2013B9BB2C38496
:103710004BB90268D36823F08003D3600268D36892
:1037200043F04003D360002070470369002BE4D1CD
:10373000036A1B880268C3F308035360036A0233F9
:103740000362E0E710B504460268136923F44053AE
:10375000C1680B43136183680269134342691A43CA
:103760000168CB6823F4B05323F00C031343CB6000
:103770000268536923F4407381690B435361026803
:10378000134B9A4220D0FFF79BFA024602EB8202CB
:1037900002EB820263689B00B2FBF3F20D48A0FBD0
:1037A00002314909642303FB11231B013233A0FBBF
:1037B00003235B0903F0F00202EB011203F00F0395
:1037C000216813448B6010BDFFF78AFA0246DDE7DB
:1037D000003801401F85EB512DE9F84305460F469F
:1037E00016469946DDF820802C68246837EA0403E1
:1037F0000CBF4FF0010C4FF0000CB4452DD1B8F1C7
:10380000FF3FF1D0B8F1000F05D0FEF7FDFCA0EBB3
:1038100009004045E8D92A6802F10C0353E8003F4B
:1038200023F4D0730C3242E800310029F3D12A6826
:1038300002F1140353E8003F23F00103143242E87D
:1038400000310029F3D1202385F8413085F842303A
:10385000002385F84030032000E00020BDE8F88315
:1038600060B310B5044690F8413013B3242384F8B4
:1038700041302268D36823F40053D3602046FFF719
:1038800061FF2268136923F490431361226853692E
:1038900023F02A0353612268D36843F40053D360B2
:1038A00000206064202384F8413084F84230606353
:1038B00010BD80F84030FEF783FAD7E7012070474B
:1038C0002DE9F04182B01E4690F84130DBB2202B4A
:1038D0004BD104460D46904600294AD00AB9012032
:1038E00044E000234364212380F84130FEF78CFC40
:1038F0000746A4F82480A4F82680A368B3F5805F67
:1039000002D04FF000080FE02369FBB14FF0000830
:103910000AE038F8023B2268C3F308035360E28CE4
:1039200092B2013A92B2E284E38C9BB28BB10096E0
:103930003B46002280212046FFF74EFFD8B9002DDC
:10394000E7D015F8012B23685A60E8E7A846002560
:10395000EAE700963B46002240212046FFF73CFF65
:1039600058B9202384F8413000E0022002B0BDE8BD
:10397000F0810120FAE70320F8E70320F6E770471B
:1039800008B50168CA6822F04002CA60202280F8A7
:103990004120FFF7F4FF002008BD704708B5406ADA
:1039A0000023C385C384FFF7F8FF08BD704790F874
:1039B0004230DBB2222B69D18368B3F5805F4FD0F0
:1039C000826AB3F5805F04D0002B56D10369002BC7
:1039D00053D103685B681370836A01338362C38DBC
:1039E0009BB2013B9BB2C385002B51D100B583B084
:1039F0000268D36823F02003D3600268D36823F4FD
:103A00008073D3600268536923F00103536120235C
:103A100080F8423000234363036B012B33D1002332
:103A20000363026802F10C0353E8003F23F0100324
:103A30000C3242E800310029F3D103681A6812F011
:103A4000100F06D0002201921A6801925B68019360
:103A5000019B818DFFF7AAFF002003B05DF804FBF6
:103A60000269002AACD1826A03685B68C3F3080369
:103A70001380836A02338362B1E703685B6803F0F3
:103A80007F031370A8E7FDF713FEE5E702207047F8
:103A90000020704730B583B0044602681368D068D0
:103AA000516913F00F0505D113F0200F02D010F06B
:103AB000200F19D12DB111F0010119D110F4907F0F
:103AC00016D1216B01297DD013F0800F03D010F0A7
:103AD000800F40F0188113F0400F03D010F0400F1A
:103AE00040F0158103B030BD2046FFF760FFF9E7D5
:103AF00013F0010F06D010F4807F03D0626C42F007
:103B00000102626413F0040F04D019B1626C42F038
:103B10000202626413F0020F04D019B1626C42F029
:103B20000402626413F0080F07D010F0200F00D1D8
:103B300019B1626C42F008026264626C002AD1D052
:103B400013F0200F02D010F0200F29D123685B69F9
:103B500003F04003626C12F0080F00D163B32046FB
:103B6000FFF792FD23685B6913F0400F20D02268B5
:103B700002F1140353E8003F23F04003143242E8FB
:103B800000310029F3D1E36B73B1634A5A63E06BF0
:103B9000FEF7BCFB0028A5D0E06B436B9847A1E77C
:103BA0002046FFF704FFD1E72046FFF7F6FE99E72E
:103BB0002046FFF7F2FE95E72046FFF7EEFE0023D2
:103BC00063648FE713F0100F3FF47EAF10F0100F17
:103BD0003FF47AAF00230193136801935368019374
:103BE000019B536913F0400F51D0E26B13685B687F
:103BF0009BB2002B3FF476AFA18D99427FF672AF56
:103C0000E3859369202B37D0226802F10C0353E837
:103C1000003F23F480730C3242E800310029F3D1D5
:103C2000226802F1140353E8003F23F00103143229
:103C300042E800310029F3D1226802F1140353E86D
:103C4000003F23F04003143242E800310029F3D151
:103C5000202384F8423000232363226802F10C03FE
:103C600053E8003F23F010030C3242E800310029F2
:103C7000F3D1E06BFEF726FB02236363A18DE38D96
:103C80009BB2C91A89B22046FFF790FE2AE7A18DA0
:103C9000E38D9BB2C91A89B2E38D9BB2002B3FF42E
:103CA00021AF00293FF41EAF226802F10C0353E854
:103CB000003F23F490730C3242E800300028F3D127
:103CC000226802F1140353E8003F23F00103143289
:103CD00042E800300028F3D1202384F8423000234A
:103CE0002363226802F10C0353E8003F23F0100322
:103CF0000C3242E800300028F3D1022363632046EF
:103D0000FFF754FEEEE62046FFF7ECFCEAE620461D
:103D1000FFF736FEE6E600BF9D3900088162828526
:103D2000C28500234364222380F84230036923B113
:103D30000268D36843F48073D3600268536943F028
:103D4000010353610268D36843F02003D36000206D
:103D5000704708B590F84230DBB2202B08D149B14A
:103D60000AB9012008BD00230363FFF7D7FFF9E775
:103D70000220F7E70120F5E7EFF3058393B9EFF3AE
:103D8000108393B90C4B1868022804D080B90A4BF1
:103D900001221A607047EFF31183002BF6D06FF009
:103DA000050070476FF0050070476FF00500704721
:103DB0004FF0FF30704700BFA821002008B5EFF397
:103DC0000583B3B9EFF31083B3B90E4B1B68022B15
:103DD00008D0012B13D10B4B02221A6001F058FAC4
:103DE000002008BDEFF31182002AF2D06FF0050029
:103DF000F7E76FF00500F4E76FF00500F1E74FF02B
:103E0000FF30EEE7A8210020F0B587B0002404942D
:103E1000EFF30584002C43D1EFF31083002B3FD147
:103E2000334B1B68022B16D0002839D000238DF8A5
:103E3000173062B3156895B1936903B918235C1EF6
:103E4000372C51D8546814F0010F4FD156694EB138
:103E50004FEA960C08E0EFF311830BBBE4E70DF19A
:103E60001705E9E74FF0800C94682CB1D7685B2FF9
:103E700002D9176907B1B6B914B14FF0FF340CE09D
:103E8000D46894B914699CB14FF0FF3405E0002464
:103E900018234FF0800C0DF11705012C0AD0ACB19E
:103EA000049807B0F0BD0124F7E74FF0FF34F4E7C2
:103EB0000024F2E7146992680292019400930B4681
:103EC0006246294601F076F90490E9E704AA0192D6
:103ED00000930B461FFA8CF2294601F0A5F9012840
:103EE000DED000230493DBE70020DAE70020D8E7E8
:103EF000A821002008B5EFF30583A3B9EFF31083E1
:103F0000A3B90C4B1B68022B02D040B9002008BD9E
:103F1000EFF31183002BF8D06FF00500F7E701F005
:103F20001BFB0020F3E76FF00500F0E76FF00500E2
:103F3000EDE700BFA821002070B5EFF30583002B4B
:103F40004ED10446EFF310821346002A4BD1284A83
:103F50001268022A23D004B1636813F0010600D06E
:103F6000012613F0080F40D17CB3A16811B1E368BA
:103F70004F2B1FD8C9B14FF0FF337BBB4EB304208A
:103F800000F055FD05462DB104B1246821462846B0
:103F900000F050FF2DB326B345F0010521E0EFF30B
:103FA0001182002AD7D000251BE0E3687BB14FF0D7
:103FB000FF33E2E726B1042000F044FD0546E2E7C6
:103FC000012000F03FFD0546DDE70023D5E7002393
:103FD000D3E7012000F02BFD0546D4E70025D9E703
:103FE0000025284670BD0025FBE70025F9E700BF46
:103FF000A8210020034B0360034B0B608023136058
:10400000704700BF4C2100204C1F0020034B036071
:10401000034B0B604FF4807313607047AC25002096
:10402000AC21002000F1080343604FF0FF328260B2
:10403000C36003610023036070470023036170477E
:1040400043684B609A688A605160996008610368B0
:1040500001330360704730B40D68B5F1FF3F11D0F4
:1040600000F108031C465B681A68AA42FAD9636823
:104070004B6099608C606160086103680133036084
:1040800030BC70470469F2E70369416882688A605E
:10409000416851605A68824206D0002202611A6863
:1040A000013A1A601868704782685A60F5E70000A4
:1040B00082B0002301930D4B1B68B3F1FF3F08D082
:1040C0004FF0500383F31188BFF36F8FBFF34F8F0F
:1040D000FEE74FF0500383F31188BFF36F8FBFF3F8
:1040E0004F8F019B002BFCD002B070470C000020CA
:1040F00006480068006880F3088862B661B6BFF3BE
:104100004F8FBFF36F8F00DF00BF000008ED00E0AE
:104110004FF0807340F8043C21F0010140F8081C86
:10412000034B40F80C3C40F8202C4038704700BF4F
:10413000B140000800000000000000000000000086
:10414000074B19680868B0E8F00F80F30988BFF3DF
:104150006F8F4FF0000080F311884EF00D0E704706
:10416000A84500204FF0500383F31188BFF36F8FF1
:10417000BFF34F8F0B4A136801331360012B00D03C
:1041800070474FF0E023D3F8043D13F0FF0FF7D052
:104190004FF0500383F31188BFF36F8FBFF34F8F3E
:1041A000FEE700BF0C000020094B1B6843B94FF02D
:1041B000500383F31188BFF36F8FBFF34F8FFEE778
:1041C000013B034A13600BB983F31188704700BFAA
:1041D0000C000020000000000000000000000000B3
:1041E000EFF30980BFF36F8F0D4B1A6820E9F00FD2
:1041F00010602DE908404FF0500080F3118801F065
:10420000D1F94FF0000080F31188BDE8084019682B
:104210000868B0E8F00F80F30988BFF36F8F70472C
:10422000A845002008B54FF0500383F31188BFF371
:104230006F8FBFF34F8F01F087F828B14FF0E02365
:104240004FF08052C3F8042D002383F3118808BD7A
:104250004FF0E022002313619361054B1B68054971
:10426000A1FB03139B09013B5361072313617047B3
:1042700000000020D34D621010B582B02A4B1A788E
:10428000D2B20192FF221A701B78DBB28DF8033094
:104290009DF8033003F05003244A1370244B072287
:1042A0001A6009E0224A1368013B13609DF803304D
:1042B0005B00DBB28DF803309DF8033013F0800F04
:1042C000F0D11B4B1B68032B08D04FF0500383F336
:1042D0001188BFF36F8FBFF34F8FFEE71B02144AA5
:1042E000136003F4E0631360019BDBB20E4A1370AA
:1042F0004FF0E023D3F8202D42F47002C3F8202DB4
:10430000D3F8202D42F07042C3F8202DFFF7A0FF14
:104310000024084B1C60FFF7EBFE01F043F9FFF7A8
:10432000C7FE204602B010BD00E400E008260020D1
:104330000C2600200C000020EFF305830F2B0FD973
:10434000114A9B5CDBB2114A12789A4208D94FF0AD
:10435000500383F31188BFF36F8FBFF34F8FFEE7D6
:104360004FF0E023D3F80C3D03F4E063084A1268F1
:10437000934208D94FF0500383F31188BFF36F8F36
:10438000BFF34F8FFEE77047F0E300E00826002000
:104390000C260020124A12F0070F1ED0D11D21F06A
:1043A0000701C1F5FA5313440A460E480260002182
:1043B00041601344083B23F007030B480360596036
:1043C0001960991A51601360084B1960084B196005
:1043D000084B4FF000421A6070474FF4FA53E4E77D
:1043E0001426002060450020102600205C45002097
:1043F0005845002054450020154B1A461B6883423F
:10440000FBD3516802EB010C844509D0416800EBF5
:10441000010C634509D00360904218D010607047CA
:104420004068014451601046F0E710B4094C24681C
:10443000A3420AD05B681944416013681B6803609B
:10444000904200D0106010BC70470460F8E77047DD
:10445000604500201026002070B5054600F066FF7C
:10446000344B1B68A3B1344B1B681D424AD135B194
:10447000083515F0070F02D025F007050835002D87
:1044800042D02E4B1B68AB424DD32D4A146804E03A
:10449000FFF780FFE7E722461C466368AB4202D283
:1044A0002368002BF7D1234B1B68A3423DD016682D
:1044B00008362368136063685B1B102B10D96019E2
:1044C00010F0070F08D04FF0500383F31188BFF3AB
:1044D0006F8FBFF34F8FFEE743606560FFF78CFF80
:1044E000626816490B689B1A0B60164909688B4273
:1044F00001D214490B60104B1B6813436360002307
:10450000236002E0002600E0002600F0A9FF16F07C
:10451000070F0CD04FF0500383F31188BFF36F8F58
:10452000BFF34F8FFEE70026EFE70026EDE73046AA
:1045300070BD00BF102600205445002058450020C3
:10454000604500205C45002080B338B50446A0F1EA
:10455000080550F8043C164A1268134208D14FF07F
:10456000500383F31188BFF36F8FBFF34F8FFEE7C4
:1045700050F8081C41B14FF0500383F31188BFF38A
:104580006F8FBFF34F8FFEE723EA020340F8043C2E
:1045900000F0CCFE54F8041C064A13680B44136068
:1045A0002846FFF729FF00F05BFF38BD704700BFCA
:1045B00054450020584500200346406A18B11B6B43
:1045C0001868C0F13800704710B50446FFF7CAFDFF
:1045D000A26BE36B9A4204D00024FFF7E5FD20466E
:1045E00010BD0124F9E710B50446FFF7BBFDA36B2E
:1045F00023B90124FFF7D8FD204610BD0024F9E7B8
:1046000070B504461546866B026C5AB903681BB137
:1046100000200136A66370BD406801F03DF900231B
:104620006360F6E76DB98068FCF7A0FA226CA368B6
:104630001344A3606268934219D32368A360284699
:10464000E7E7C068FCF792FA226C5142E3689B1AD4
:10465000E3602268934202D263680B44E360022D58
:1046600001D00020D5E726B1013E0020D1E7284641
:10467000CFE70020CDE708B50346026C62B10846DB
:10468000D9681144D960D3F804C0614501D31968D1
:10469000D960D968FCF76AFA08BD38B50546FFF756
:1046A00061FD95F8454064B201E0013C64B2002C24
:1046B0000ADD6B6A43B105F1240000F0F1FF002828
:1046C000F3D001F081F8F0E7FF2385F84530FFF7DC
:1046D0006BFDFFF747FD95F8444064B201E0013CF3
:1046E00064B2002C0ADD2B6943B105F1100000F023
:1046F000D7FF0028F3D001F067F8F0E7FF2385F833
:104700004430FFF751FD38BD38B5E0B10D460446E1
:10471000FFF728FD2368E26B216C01FB023060602B
:104720000020A063A360013A02FB0133E360FF2392
:1047300084F8443084F84530FDB9236963B9FFF744
:1047400033FD012038BD4FF0500383F31188BFF3D0
:104750006F8FBFF34F8FFEE704F1100000F0A0FF52
:104760000028ECD04FF0E0234FF08052C3F8042D26
:10477000BFF34F8FBFF36F8FE1E704F11000FFF736
:1047800051FC04F12400FFF74DFCD8E738B51D4675
:10479000049C0B4649B92460E06323640121204650
:1047A000FFF7B2FF84F84C5038BD2260F4E740B9FF
:1047B0004FF0500383F31188BFF36F8FBFF34F8F18
:1047C000FEE710B584B01C46844653B192B189B956
:1047D0004FF0500383F31188BFF36F8FBFF34F8FF8
:1047E000FEE74FF0500383F31188BFF36F8FBFF3E1
:1047F0004F8FFEE76AB150230393039B502B13D0D6
:104800004FF0500383F31188BFF36F8FBFF34F8FC7
:10481000FEE70029EFD04FF0500383F31188BFF378
:104820006F8FBFF34F8FFEE7012384F8463000946B
:104830009DF818306046FFF7A9FF204604B010BD70
:1048400040B94FF0500383F31188BFF36F8FBFF36C
:104850004F8FFEE7F0B583B00C4615460746A1B171
:1048600001FB00F05030FFF7F7FD064650B1002382
:1048700080F8463000902B4600F150022146384621
:10488000FFF784FF304603B0F0BD0846EAE7F0B515
:1048900085B0019288B10F461D460446B1B1022D84
:1048A00020D1E36B012B1DD04FF0500383F311880F
:1048B000BFF36F8FBFF34F8FFEE74FF0500383F3CB
:1048C0001188BFF36F8FBFF34F8FFEE7036C002B90
:1048D000E5D04FF0500383F31188BFF36F8FBFF320
:1048E0004F8FFEE700F07CFF064658B9019B002B76
:1048F00048D04FF0500383F31188BFF36F8FBFF39D
:104900004F8FFEE700263DE02A4639462046FFF756
:1049100077FE636A7BB948B14FF0E0234FF08052D5
:10492000C3F8042DBFF34F8FBFF36F8FFFF73CFC2D
:10493000012005B0F0BD04F1240000F0B1FE002814
:10494000F4D04FF0E0234FF08052C3F8042DBFF3B2
:104950004F8FBFF36F8FE9E7FFF726FC0020E8E7F2
:1049600002A800F0E3FE012619E0002384F8443099
:1049700021E0002384F8453023E02046FFF78DFE38
:1049800000F06EFDFFF7EEFBA26BE36B9A42BBD328
:10499000022DB9D0019B002BDED0002EE0D0FFF716
:1049A00003FC00F0C3FCFFF7DDFB94F8442052B297
:1049B000B2F1FF3FD9D094F8452052B2B2F1FF3F97
:1049C000D7D0FFF7F1FB01A902A800F0BBFED8B9D0
:1049D0002046FFF7F9FD0028CFD0019904F110001F
:1049E00000F02AFE2046FFF758FE00F039FD0028AF
:1049F000C8D14FF0E0234FF08052C3F8042DBFF32D
:104A00004F8FBFF36F8FBDE72046FFF746FE00F0E4
:104A100027FD00208DE748B108B500214160016005
:104A2000C1600B460A46FFF732FF08BD704710B55C
:104A3000024600210120FFF703FF0446FFF7EBFFCA
:104A4000204610BD10B582B00B46009000221146E2
:104A50000120FFF7ACFE0446FFF7DDFF204602B061
:104A600010BD2DE9F84390B10F4616461C46054689
:104A7000B1B1022C20D1EB6B012B1DD04FF05003B4
:104A800083F31188BFF36F8FBFF34F8FFEE74FF0B3
:104A9000500383F31188BFF36F8FBFF34F8FFEE78F
:104AA000036C002BE5D04FF0500383F31188BFF364
:104AB0006F8FBFF34F8FFEE7FFF73EFCEFF31189D7
:104AC0004FF0500383F31188BFF36F8FBFF34F8F05
:104AD000AA6BEB6B9A4206D3022C04D0002089F318
:104AE0001188BDE8F88395F845804FFA88F822468A
:104AF00039462846FFF784FDB8F1FF3F06D008F19C
:104B000001035BB285F845300120E8E76B6A0BB919
:104B10000120E4E705F1240000F0C2FD18B126B140
:104B200001203060DBE70120D9E70120D7E7F0B5AD
:104B300085B0019290B10F460446C1B100F050FE1D
:104B4000064600BB019B002B5ED04FF0500383F361
:104B50001188BFF36F8FBFF34F8FFEE74FF0500305
:104B600083F31188BFF36F8FBFF34F8FFEE7036CA2
:104B7000002BE3D04FF0500383F31188BFF36F8F06
:104B8000BFF34F8FFEE700263EE039462046FFF791
:104B900072FD013DA563236923B9FFF705FB0120E1
:104BA00005B0F0BD04F1100000F07AFD0028F4D04B
:104BB0004FF0E0234FF08052C3F8042DBFF34F8F26
:104BC000BFF36F8FE9E7FFF7EFFA0020E8E702A8ED
:104BD00000F0ACFD012621E0002384F8443029E0F8
:104BE000002384F845302BE02046FFF756FD00F007
:104BF00037FC09E02046FFF750FD00F031FC20466D
:104C0000FFF7F1FC00283FD1FFF7ACFAA56B002DB0
:104C1000BBD1019B002BD6D0002ED8D0FFF7C4FA11
:104C200000F084FBFFF79EFA94F844305BB2B3F1D6
:104C3000FF3FD1D094F845305BB2B3F1FF3FCFD006
:104C4000FFF7B2FA01A902A800F07CFD0028D1D13B
:104C50002046FFF7C8FC0028C6D0019904F12400C3
:104C600000F0EAFC2046FFF718FD00F0F9FB0028F1
:104C7000CAD14FF0E0234FF08052C3F8042DBFF3A8
:104C80004F8FBFF36F8FBFE7002089E770B584B007
:104C9000019158B10446036C8BB14FF0500383F37C
:104CA0001188BFF36F8FBFF34F8FFEE74FF05003B4
:104CB00083F31188BFF36F8FBFF34F8FFEE700F0D0
:104CC0008FFD054650B9019B5BB14FF0500383F354
:104CD0001188BFF36F8FBFF34F8FFEE70026354675
:104CE00055E0064653E0013BA36323683BB12369CB
:104CF0004BB9FFF759FA0126304604B070BD00F0F9
:104D000063FE6060F3E704F1100000F0C9FC0028C6
:104D1000EFD04FF0E0234FF08052C3F8042DBFF3E3
:104D20004F8FBFF36F8FE4E746B14FF0500383F32B
:104D30001188BFF36F8FBFF34F8FFEE7FFF734FA91
:104D4000DAE702A800F0F2FC01252AE0002384F84B
:104D5000443032E0002384F8453034E0FFF702FAB3
:104D6000606800F04DFD0646FFF71EFA3BE0204666
:104D7000FFF793FC00F074FB09E02046FFF78DFC81
:104D800000F06EFB2046FFF72EFC002842D1FFF713
:104D9000E9F9A36B002BA6D1019B002BC4D0002DF9
:104DA000CFD0FFF701FA00F0C1FAFFF7DBF994F872
:104DB00044305BB2B3F1FF3FC8D094F845305BB2EA
:104DC000B3F1FF3FC6D0FFF7EFF901A902A800F049
:104DD000B9FC0028D1D12046FFF705FC0028C6D039
:104DE0002368002BBAD0019904F1240000F024FCC0
:104DF0002046FFF752FC00F033FB0028C7D14FF0EC
:104E0000E0234FF08052C3F8042DBFF34F8FBFF360
:104E10006F8FBCE70EB900266EE7FFF7A3F92046B7
:104E2000FFF7CAFB0146606800F07EFDFFF7BCF9A2
:104E3000F1E700000023072B0CD8074A52F8332073
:104E40000AB10133F7E7044A42F8331002EBC30317
:104E500058607047704700BF6845002070B5044631
:104E60000D461646FFF77EF994F844305BB2B3F175
:104E7000FF3F0DD094F845305BB2B3F1FF3F0BD04C
:104E8000FFF792F9A36B5BB12046FFF706FC70BDFC
:104E9000002384F84430EDE7002384F84530EFE741
:104EA0003246294604F1240000F0DEFBECE7000066
:104EB000084B1B681B6823B9074B4FF0FF321A6081
:104EC0007047044B1B68DB68DB685A68024B1A604A
:104ED000704700BFAC450020584A00202DE9F0473C
:104EE00080460D4617469946089EDDF824A00A9C88
:104EF0009200A521206B01F08FF8236B07F180420F
:104F0000013A03EB820727F007074FF0000CBCF1D2
:104F10000F0F0BD815F80C2004EB0C0383F834208A
:104F200015F80C3013B10CF1010CF0E7002384F8F4
:104F30004330372E00D93726E662E6640025256522
:104F4000201DFFF77AF804F11800FFF776F82461C6
:104F5000C6F13806A6616462656584F858504A4611
:104F600041463846FFF7D4F82060BAF1000F01D06F
:104F7000CAF80040BDE8F08738B5002407E004EB2C
:104F8000840293000E481844FFF74CF80134372C84
:104F9000F5D90C4D2846FFF745F80B4C2046FFF796
:104FA00041F80A48FFF73EF80948FFF73BF809487F
:104FB000FFF738F8084B1D60084B1C6038BD00BF78
:104FC000B44500202C4A0020404A0020604A0020BE
:104FD0008C4A0020784A0020AC450020B0450020D3
:104FE00010B50446FFF7BEF8224A13680133136078
:104FF000214B1B685BB1214B1B686BB91E4B1B68B7
:10500000DA6AE36A9A4207D81B4B1C6004E01A4B29
:105010001C601368012B29D0194A136801331360EF
:105020006364E06A174B1B68984201D9154B1860FE
:1050300000EB8000211D144B03EB8000FFF700F80C
:10504000FFF7B2F80D4B1B687BB10B4B1B68DA6A9C
:10505000E36A9A4209D24FF0E0234FF08052C3F83E
:10506000042DBFF34F8FBFF36F8F10BDFFF784FF89
:10507000D2E700BF144A0020A8450020744A00204F
:10508000244A0020284A0020B445002010B50446D8
:1050900090F8593063B1012B11D0022B0ED04FF094
:1050A000500383F31188BFF36F8FBFF34F8FFEE779
:1050B000006BFFF749FA2046FFF746FA10BDFFF7ED
:1050C00043FAFBE70F4B1B68D3B110B5FFF74AF863
:1050D0000D4BDB68DC68201DFEF7D6FF0B4A13681A
:1050E000013B1360074A1368013B1360FFF75CF84C
:1050F0002046FFF7CBFF034B1B68002BE6D110BD0A
:10510000704700BF184A00208C4A0020144A002033
:1051100008B5FFF7D7FF074B1B68012BF9D94FF0F4
:10512000E0234FF08052C3F8042DBFF34F8FBFF33D
:105130006F8FEEE7B445002070B504460D46174B5F
:105140001E68174B18680430FEF79EFFB4F1FF3F4E
:105150000DD03444124B1B685C60A64210D9114B31
:1051600018680F4B19680431FEF775FF70BD002DEC
:10517000EFD00B4B196804310B48FEF761FFF5E7E0
:105180000A4B1868064B19680431FEF764FF084B98
:105190001B68A342EAD9064B1C60E7E7A04A00203F
:1051A000A8450020B0450020784A0020AC450020EA
:1051B000584A002030B587B00B9C7CB10C9DB5B12E
:1051C0005C250495049D5C2D1AD04FF0500383F3A9
:1051D0001188BFF36F8FBFF34F8FFEE74FF050037F
:1051E00083F31188BFF36F8FBFF34F8FFEE74FF04C
:1051F000500383F31188BFF36F8FBFF34F8FFEE728
:105200000C9D2C63022485F85940002403940295D8
:1052100005AC01940A9C0094FFF760FE0C98FFF720
:10522000DFFE059807B030BD2DE9F04385B0074695
:10523000884614461E469000FFF70EF900B38146DB
:105240005C20FFF709F90546B0B1C0F83090E5B130
:10525000002385F85930039302950D9B01930C9B15
:1052600000933346224641463846FFF737FE28462C
:10527000FFF7B6FE012005E04846FFF765F9E6E7CF
:105280004FF0FF3005B0BDE8F0834FF0FF30F9E795
:1052900010B588B000240594069407AA06A905A8AD
:1052A000FEF7A8FE059B0293069B019300942346FC
:1052B000079A18491848FFF77DFF184B186040B14E
:1052C00000F0D4FC012806D0B0F1FF3F18D008B0A0
:1052D00010BD0020F6E74FF0500383F31188BFF3B1
:1052E0006F8FBFF34F8F0E4B4FF0FF321A600D4B95
:1052F00001221A600C4B00221A60FEF7BDFFE6E7A0
:105300004FF0500383F31188BFF36F8FBFF34F8FBC
:10531000FEE700BF94C5000811510008544A002060
:10532000584A0020744A0020A04A0020024A13680C
:1053300001331360704700BF204A0020014B1868FA
:10534000704700BFA04A0020F8B53A4B1B68002BFD
:1053500064D1394B1D6801351D60C5B9374B1B68D9
:105360001B6843B14FF0500383F31188BFF36F8F75
:10537000BFF34F8FFEE7314A1168314B1868106058
:105380001960304A136801331360FFF791FD2E4B0B
:105390001B68AB4238D900272C4B1B68DB6A03EB38
:1053A00083039A002A4B9B58012B3CD901273AE0F2
:1053B0000127224B1B681B6843B3204B1B68DB682B
:1053C000DC6863689D4226D3261D3046FEF75CFEEE
:1053D000A36A1BB104F11800FEF756FEE36A1D4AEA
:1053E0001268934201D91B4A136003EB83039A00AE
:1053F000314617481044FEF723FEE26A134B1B6840
:10540000DB6A9A42D4D2D4E70027D2E70E4B4FF0A2
:10541000FF321A60C0E70C4A1360BDE70E4A1368FA
:105420000133136000270D4B1B6803B10127384679
:10543000F8BD00BF204A0020A04A0020AC45002053
:10544000B04500205C4A0020584A0020A8450020B2
:10545000B4450020284A00201C4A0020A44A00200D
:1054600038B5354B1B6843B94FF0500383F31188AF
:10547000BFF36F8FBFF34F8FFEE7FEF773FE2E4B28
:105480001A68013A1A601B68002B4FD12B4B1B681E
:105490000BB900244BE00024294B1B681BB3284B9D
:1054A000DB68DC6804F11800FEF7EEFD251D2846D8
:1054B000FEF7EAFDE06A234B1B68984201D9214BB5
:1054C000186000EB800029461F4B03EB8000FEF7BD
:1054D000B7FDE26A1D4B1B68DB6A9A42DCD31C4BAA
:1054E00001221A60D8E70CB1FFF7E2FC194B1C68E7
:1054F00084B9174B1C68D4B14FF0E0234FF08052B1
:10550000C3F8042DBFF34F8FBFF36F8F01240EE05C
:10551000013C07D0FFF718FF0028F9D00C4B0122FF
:105520001A60F5E70B4B00221A60E2E70024FEF751
:105530003BFE204638BD00BF204A0020144A002010
:10554000604A0020284A0020B4450020A8450020D9
:10555000A44A00201C4A002010B5A8B10446104BF4
:105560001B6843B14FF0500383F31188BFF36F8F73
:10557000BFF34F8FFEE7FFF7D9FE00212046FFF76C
:10558000DBFDFFF76DFF48B94FF0E0234FF080528D
:10559000C3F8042DBFF34F8FBFF36F8F10BD00BF53
:1055A000204A00201F4B1B681BB11F4B01221A60B1
:1055B00070471D4B00221A601C4B1B6803EB8301D4
:1055C0008A001B498A585AB90BB1013BF6E74FF0E4
:1055D000500383F31188BFF36F8FBFF34F8FFEE744
:1055E00003EB830082000A4450684068506003EB7C
:1055F000830C4FEA8C020832114488420BD003EB33
:10560000830291000A4A0A445268D168094A11602B
:10561000064A13607047406862469100044A0A4493
:105620005060ECE7204A0020A44A0020284A0020CD
:10563000B4450020A845002058B110B50C46094AD1
:1056400011681831FEF707FD01212046FFF774FDB0
:1056500010BD4FF0500383F31188BFF36F8FBFF37A
:105660004F8FFEE7A845002038B570B10D461446AF
:105670000A4A11681831FEF7E3FC0CB14FF0FF3510
:1056800021462846FFF758FD38BD4FF0500383F3FD
:105690001188BFF36F8FBFF34F8FFEE7A84500203F
:1056A00038B5C368DC6824B304F118052846FEF752
:1056B000EBFC184B1B682BBB251D2846FEF7E4FCB2
:1056C000E06A154B1B68984201D9134B186000EB38
:1056D00080002946114B03EB8000FEF7B1FCE26A23
:1056E0000F4B1B68DB6A9A4211D901200D4B1860E1
:1056F00038BD4FF0500383F31188BFF36F8FBFF3B2
:105700004F8FFEE729460848FEF79AFCE7E700209E
:10571000EEE700BF204A0020284A0020B4450020C0
:10572000A8450020A44A0020604A0020034B1B68C3
:105730000360034B1B684360704700BF5C4A002056
:10574000A04A0020D8B170B50C46054601B3FEF75B
:1057500009FD1B4B19686B68C81A2268B2F1FF3F3C
:1057600027D0184E3668D5F800C0B44501D08B421A
:1057700024D9824215D80023236001241AE04FF077
:10578000500383F31188BFF36F8FBFF34F8FFEE792
:105790004FF0500383F31188BFF36F8FBFF34F8F28
:1057A000FEE75B1A134423602846FFF7BFFF00247F
:1057B00000E00024FEF7F8FC204670BD0124F9E764
:1057C000A04A00205C4A0020014B01221A60704769
:1057D000A44A0020014B1868704700BFA84500206C
:1057E000054B1B6833B1054B1B680BB1002070479C
:1057F0000220704701207047744A0020204A002090
:1058000000283FD038B50446C36A204A1268D26ADD
:1058100093422FD28269002A05DB1C4A1268D26AA1
:10582000C2F138028261616903EB8303184A02EB1B
:105830008303994205D0154B1B68DB6AE3620120A4
:1058400038BD251D2846FEF71FFC104B1B68D86A83
:10585000E062104B1B68984209D800EB8000294693
:105860000B4B03EB8000FEF7EBFB0120E8E7094B55
:105870001860F2E7C26C054B1B68DB6A9A4203D3DF
:105880000020DDE7002070470120D9E7A84500206F
:10589000B4450020284A002000283BD038B50446F3
:1058A0001E4B1B68834208D04FF0500383F31188CE
:1058B000BFF36F8FBFF34F8FFEE7036D43B94FF018
:1058C000500383F31188BFF36F8FBFF34F8FFEE751
:1058D000013B0365C16AC26C91421DD00BB100202F
:1058E00038BD051D2846FEF7CFFBE06CE062C0F135
:1058F0003803A3610A4B1B68984201D9084B186012
:1059000000EB80002946074B03EB8000FEF798FB75
:105910000120E5E7002070470020E1E7A8450020CE
:10592000284A0020B4450020002846D038B5044657
:10593000036D43B94FF0500383F31188BFF36F8FAA
:10594000BFF34F8FFEE7C26C8A4200D20A46E16A7B
:10595000914201D0012B00D038BD184B1B68A342E7
:1059600022D0E262A369002B02DBC2F13802A261FD
:10597000626901EB8101124B03EB81018A42EBD199
:10598000251D2846FEF780FBE06A0E4B1B689842F7
:1059900001D90C4B186000EB80002946084B03EB43
:1059A0008000FEF74DFBD7E74FF0500383F31188DB
:1059B000BFF36F8FBFF34F8FFEE77047A8450020FE
:1059C000B4450020284A0020054B1B6823B1044B36
:1059D0001A68136D01331365014B1868704700BFD7
:1059E000A8450020F8B506460F4614461D46FEF7AA
:1059F000B9FB214B1B6893F85820D2B2022A0AD077
:105A00001D4B1A68506D20EA060656651B68012278
:105A100083F85820CDB9FEF7C7FBFEF7A3FB1CB1F6
:105A2000154B1B685B6D2360134B1B6893F8583054
:105A3000DBB2022B18D000240F4B1B68002283F826
:105A40005820FEF7B1FB2046F8BD11462846FFF767
:105A500073FB4FF0E0234FF08052C3F8042DBFF3E7
:105A60004F8FBFF36F8FD6E7034B1B68596D21EA49
:105A700007075F650124DFE7A845002008B32DE98B
:105A8000F0410E4617461C460546FEF755FCEFF35F
:105A900011884FF0500383F31188BFF36F8FBFF36A
:105AA0004F8F0CB16B6D236095F85810C9B202236B
:105AB00085F858307B1E032B24D8DFE803F00B1643
:105AC0001B1E4FF0500383F31188BFF36F8FBFF39A
:105AD0004F8FFEE76B6D1E436E650124012915D0C3
