:020000040800F2
:1000000000C00020992400086D1A00086F1A00082B
:10001000711A0008731A0008751A00080000000021
:10002000000000000000000000000000914A0008ED
:10003000771A000800000000314B0008754B0008DB
:10004000E1240008E1240008E1240008E12400087C
:10005000E1240008E1240008E1240008E12400086C
:10006000E1240008E1240008E1240008E12400085C
:10007000E1240008791A0008E1240008E1240008BE
:10008000891A0008E1240008E1240008E12400089E
:10009000E1240008E1240008E1240008E12400082C
:1000A000E1240008E1240008E1240008E12400081C
:1000B000E1240008E1240008E1240008E12400080C
:1000C000E1240008E1240008E1240008E1240008FC
:1000D000E1240008991A0008A91A0008B91A0008B2
:1000E000E1240008E1240008E1240008E1240008DC
:1000F000E1240008E1240008E1240008E1240008CC
:10010000E1240008E1240008E1240008E1240008BB
:10011000E1240008E1240008C91A0008D91A0008DF
:10012000E1240008E1240008E1240008E12400089B
:1001300000000000000000000000000000000000BF
:1001400000000000000000000000000000000000AF
:10015000000000000000000000000000000000009F
:10016000000000000000000000000000000000008F
:10017000000000000000000000000000000000007F
:10018000000000000000000000000000000000006F
:10019000000000000000000000000000000000005F
:1001A000000000000000000000000000000000004F
:1001B000000000000000000000000000000000003F
:1001C000000000000000000000000000000000002F
:1001D000000000000000000000000000000000001F
:0401E0005FF8E0F1F3
:1001F00010B5054C237833B9044B13B10448AFF361
:1002000000800123237010BDC809002000000000F9
:100210006C0F010808B5034B1BB103490348AFF34A
:10022000008008BD00000000CC0900206C0F010810
:1002300081F0004102E000BF83F0004330B54FEA97
:1002400041044FEA430594EA050F08BF90EA020F04
:100250001FBF54EA000C55EA020C7FEA645C7FEA97
:10026000655C00F0E2804FEA5454D4EB5555B8BFBA
:100270006D420CDD2C4480EA020281EA030382EA2B
:10028000000083EA010180EA020281EA0303362DBD
:1002900088BF30BD11F0004F4FEA01314FF4801C90
:1002A0004CEA113102D0404261EB410113F0004FA2
:1002B0004FEA03334CEA133302D0524263EB430359
:1002C00094EA050F00F0A780A4F10104D5F1200EF7
:1002D0000DDB02FA0EFC22FA05F2801841F1000152
:1002E00003FA0EF2801843FA05F359410EE0A5F126
:1002F00020050EF1200E012A03FA0EFC28BF4CF057
:10030000020C43FA05F3C01851EBE37101F000450C
:1003100007D54FF0000EDCF1000C7EEB00006EEB19
:100320000101B1F5801F1BD3B1F5001F0CD34908A3
:100330005FEA30004FEA3C0C04F101044FEA4452FA
:1003400012F5800F80F09A80BCF1004F08BF5FEA81
:10035000500C50F1000041EB045141EA050130BD61
:100360005FEA4C0C404141EB0101013C28BFB1F573
:10037000801FE9D291F0000F04BF01460020B1FABE
:1003800081F308BF2033A3F10B03B3F120020CDA91
:100390000C3208DD02F1140CC2F10C0201FA0CF06F
:1003A00021FA02F10CE002F11402D8BFC2F1200CD4
:1003B00001FA02F120FA0CFCDCBF41EA0C0190408A
:1003C000E41AA2BF01EB0451294330BD6FEA0404D3
:1003D0001F3C1CDA0C340EDC04F11404C4F12002BE
:1003E00020FA04F001FA02F340EA030021FA04F3D0
:1003F00045EA030130BDC4F10C04C4F1200220FA27
:1004000002F001FA04F340EA0300294630BD21FA64
:1004100004F0294630BD94F0000F83F4801306BF2A
:1004200081F480110134013D4EE77FEA645C18BF1E
:100430007FEA655C29D094EA050F08BF90EA020FB5
:1004400005D054EA000C04BF1946104630BD91EAAD
:10045000030F1EBF0021002030BD5FEA545C05D1B0
:100460004000494128BF41F0004130BD14F58004EF
:100470003CBF01F5801130BD01F0004545F0FE4163
:1004800041F470014FF0000030BD7FEA645C1ABF98
:10049000194610467FEA655C1CBF0B46024650EACF
:1004A000013406BF52EA033591EA030F41F40021FB
:1004B00030BD00BF90F0000F04BF0021704730B581
:1004C0004FF4806404F132044FF000054FF0000156
:1004D00050E700BF90F0000F04BF0021704730B517
:1004E0004FF4806404F1320410F0004548BF4042EC
:1004F0004FF000013EE700BF42004FEAE2014FEA41
:1005000031014FEA02701FBF12F07F4393F07F4F1B
:1005100081F06051704732F07F4208BF704793F01E
:100520007F4F04BF41F40021704730B54FF4607431
:1005300001F0004521F000411CE700BF50EA010234
:1005400008BF704730B54FF000050AE050EA0102DD
:1005500008BF704730B511F0004502D5404261EB4D
:1005600041014FF4806404F132045FEA915C3FF48E
:10057000D8AE4FF003025FEADC0C18BF03325FEA2B
:10058000DC0C18BF033202EBDC02C2F1200300FADC
:1005900003FC20FA02F001FA03FE40EA0E0021FA01
:1005A00002F11444BDE600BF4FF0FF3C06E000BF7F
:1005B0004FF0010C02E000BF4FF0010C4DF804CDEC
:1005C0004FEA410C7FEA6C5C4FEA430C18BF7FEAAC
:1005D0006C5C1BD001B050EA410C0CBF52EA430CDA
:1005E00091EA030F02BF90EA020F0020704710F15A
:1005F000000F91EA030F58BF994208BF90422CBFE9
:10060000D8176FEAE37040F0010070474FEA410CE1
:100610007FEA6C5C02D150EA013C07D14FEA430CFF
:100620007FEA6C5CD6D152EA033CD3D05DF8040B70
:10063000704700BF8446104662468C4619466346A2
:1006400000E000BF01B5FFF7B7FF002848BF10F179
:10065000000F01BD4DF808EDFFF7F4FF0CBF0120BE
:1006600000205DF808FB00BF4DF808EDFFF7EAFF3A
:1006700034BF012000205DF808FB00BF4DF808EDF5
:10068000FFF7E0FF94BF012000205DF808FB00BFEA
:100690004DF808EDFFF7CEFF94BF012000205DF874
:1006A00008FB00BF4DF808EDFFF7C4FF34BF012081
:1006B00000205DF808FB00BF4A0011D212F50012BD
:1006C00011D20DD56FF47873B3EB62520ED44FEAAA
:1006D000C12343F0004343EA505323FA02F070472A
:1006E0004FF00000704750EA013002D14FF0FF3068
:1006F00070474FF000007047844641EA000313F052
:10070000030349D1403A23D30B6803604B6843602D
:100710008B688360CB68C3600B6903614B6943617D
:100720008B698361CB69C3610B6A03624B6A436265
:100730008B6A8362CB6AC3620B6B03634B6B43634D
:100740008B6B8363CB6BC36340304031403ADBD269
:1007500030320BD30B6803604B6843608B68836057
:10076000CB68C36010301031103AF3D20C3205D38D
:1007700051F8043B40F8043B043AF9D2043208D063
:10078000D2071CBF11F8013B00F8013B01D30B88D5
:1007900003806046704700BF082A13D38B07B1D08F
:1007A00010F00303AED0C3F10403D21ADB071CBF61
:1007B00011F8013B00F8013BA4D331F8023B20F8CB
:1007C000023B9FE7043AD9D3013A11F8013B00F804
:1007D000013BF9D20B7803704B7843708B788370B0
:1007E0006046704770B54FF0FF0C4CF4E06C1CEAAB
:1007F00011541DBF1CEA135594EA0C0F95EA0C0F17
:1008000000F0DEF82C4481EA030621EA4C5123EA89
:100810004C5350EA013518BF52EA033541F48011B8
:1008200043F4801338D0A0FB02CE4FF00005E1FB6B
:1008300002E506F00042E0FB03E54FF00006E1FBB5
:1008400003569CF0000F18BF4EF0010EA4F1FF04F8
:10085000B6F5007F64F5407404D25FEA4E0E6D4138
:1008600046EB060642EAC62141EA55514FEAC52049
:1008700040EA5E504FEACE2EB4F1FD0C88BFBCF5C5
:10088000E06F1ED8BEF1004F08BF5FEA500E50F176
:10089000000041EB045170BD06F0004646EA01013C
:1008A00040EA020081EA0301B4EB5C04C2BFD4EB6E
:1008B0000C0541EA045170BD41F480114FF0000E67
:1008C000013C00F3AB8014F1360FDEBF002001F0D5
:1008D000004170BDC4F10004203C35DA0C341BDC4F
:1008E00004F11404C4F1200500FA05F320FA04F021
:1008F00001FA05F240EA020001F0004221F0004155
:1009000010EBD37021FA04F642EB06015EEA430EC7
:1009100008BF20EAD37070BDC4F10C04C4F12005F7
:1009200000FA04F320FA05F001FA04F240EA0200AA
:1009300001F0004110EBD37041F100015EEA430E7B
:1009400008BF20EAD37070BDC4F1200500FA05F29B
:100950004EEA020E20FA04F301FA05F243EA02031A
:1009600021FA04F001F0004121FA04F220EA020029
:1009700000EBD3705EEA430E08BF20EAD37070BD6F
:1009800094F0000F0FD101F00046400041EB01014F
:1009900011F4801F08BF013CF7D041EA060195F031
:1009A000000F18BF704703F00046520043EB0303EB
:1009B00013F4801F08BF013DF7D043EA06037047D8
:1009C00094EA0C0F0CEA135518BF95EA0C0F0CD0E3
:1009D00050EA410618BF52EA4306D1D181EA030129
:1009E00001F000414FF0000070BD50EA410606BF23
:1009F0001046194652EA430619D094EA0C0F02D168
:100A000050EA013613D195EA0C0F05D152EA0336AC
:100A10001CBF104619460AD181EA030101F00041CA
:100A200041F0FE4141F470014FF0000070BD41F013
:100A3000FE4141F4780170BD70B54FF0FF0C4CF4ED
:100A4000E06C1CEA11541DBF1CEA135594EA0C0F0C
:100A500095EA0C0F00F0A7F8A4EB050481EA030E59
:100A600052EA03354FEA013100F088804FEA033340
:100A70004FF0805545EA131343EA12634FEA02220E
:100A800045EA111545EA10654FEA00260EF00041CF
:100A90009D4208BF964244F1FD0404F5407402D221
:100AA0005B084FEA3202B61A65EB03055B084FEAB2
:100AB00032024FF480104FF4002CB6EB020E75EBAF
:100AC000030E22BFB61A754640EA0C005B084FEAD7
:100AD0003202B6EB020E75EB030E22BFB61A754654
:100AE00040EA5C005B084FEA3202B6EB020E75EB9F
:100AF000030E22BFB61A754640EA9C005B084FEA17
:100B00003202B6EB020E75EB030E22BFB61A754623
:100B100040EADC0055EA060E18D04FEA051545EA12
:100B200016754FEA06164FEAC30343EA52734FEABB
:100B3000C2025FEA1C1CC0D111F4801F0BD141EA34
:100B400000014FF000004FF0004CB6E711F4801F99
:100B500004BF01430020B4F1FD0C88BFBCF5E06F79
:100B60003FF6AFAEB5EB030C04BFB6EB020C5FEA89
:100B7000500C50F1000041EB045170BD0EF0004EDE
:100B80004EEA113114EB5C04C2BFD4EB0C0541EA10
:100B9000045170BD41F480114FF0000E013C90E60D
:100BA00045EA060E8DE60CEA135594EA0C0F08BFD1
:100BB00095EA0C0F3FF43BAF94EA0C0F0AD150EAD0
:100BC00001347FF434AF95EA0C0F7FF425AF104663
:100BD00019462CE795EA0C0F06D152EA03353FF48B
:100BE000FDAE1046194622E750EA410618BF52EA08
:100BF00043067FF4C5AE50EA41047FF40DAF52EADC
:100C000043057FF4EBAE12E74FEA410C7FEA6C5CE0
:100C100002D150EA013C0AD14FEA430C7FEA6C5CF6
:100C200002D152EA033C02D14FF0000070474FF06E
:100C3000010070474FEA410212F5001215D211D59A
:100C40006FF47873B3EB625212D94FEAC12343F0C9
:100C5000004343EA505311F0004F23FA02F018BF4B
:100C6000404270474FF00000704750EA013005D114
:100C700011F0004008BF6FF0004070474FF00000D7
:100C8000704700BF4FEA4102B2F1E04324BFB3F521
:100C9000001CDCF1FE5C0DD901F0004C4FEAC002F3
:100CA0004CEA5070B2F1004F40EB830008BF20F0D7
:100CB0000100704711F0804F21D113F13872BCBF91
:100CC00001F00040704741F480114FEA5252C2F1E6
:100CD0001802C2F1200C10FA0CF320FA02F018BF2F
:100CE00040F001004FEAC1234FEAD32303FA0CFC82
:100CF00040EA0C0023FA02F34FEA4303CCE77FEA11
:100D0000625307D150EA01331EBF4FF0FE4040F45A
:100D10004000704701F0004040F0FE4040F4000009
:100D2000704700BF53B94AB9002908BF00281CBF4B
:100D30004FF0FF314FF0FF3000F0AEB9ADF1080CCD
:100D40006DE904CE00F03EF8DDF804E0DDE90223B1
:100D500004B0704738B505460C46002200232846EB
:100D60002146FFF781FC28B928462146BDE83840D6
:100D700000F00AB8284604F1004100F005F84042AE
:100D800061EB410138BD00BFD0B500220B4B0646D8
:100D90000F46FFF727FDFFF78FFC0446FFF78AFB9E
:100DA0000022074BFFF71EFD02460B463046394630
:100DB000FFF742FAFFF780FC2146D0BD0000F03D6E
:100DC0000000F0412DE9F047089E0D460446884694
:100DD000002B4DD18A42944668D9B2FA82F252B1C0
:100DE00001FA02F3C2F1200120FA01F10CFA02FC2F
:100DF00041EA030894404FEA1C41B8FBF1F71FFA9F
:100E00008CFE01FB178807FB0EF0230C43EA084316
:100E100098420AD91CEB030307F1FF3580F01E81CD
:100E2000984240F21B81023F63441B1AB3FBF1F06E
:100E300001FB103300FB0EFEA4B244EA0344A645B6
:100E40000AD91CEB040400F1FF3380F00981A645A8
:100E500040F20681644402380021A4EB0E0440EA0B
:100E600007401EB10023D440C6E90043BDE8F08727
:100E70008B4208D9002E00F0EE800021C6E9000563
:100E80000846BDE8F087B3FA83F100294AD1AB42A6
:100E900002D3824200F2FC80841A65EB0303012036
:100EA0009846002EE2D0C6E90048DFE702B9FFDE2F
:100EB000B2FA82F2002A40F09180A1EB0C000121ED
:100EC0004FEA1C471FFA8CFEB0FBF7F307FB130039
:100ED000250C45EA00450EFB03F0A84208D91CEB9F
:100EE000050503F1FF3802D2A84200F2CE80434646
:100EF0002D1AB5FBF7F007FB10550EFB00FEA4B250
:100F000044EA0544A64508D91CEB040400F1FF356A
:100F100002D2A64500F2B6802846A4EB0E0440EAB1
:100F200003409EE7C1F120078B4022FA07FC4CEA00
:100F3000030C25FA07FA4FEA1C49BAFBF9F820FA24
:100F400007F309FB18AA8D401FFA8CFE1D4300FA17
:100F500001F308FB0EF02C0C44EA0A44A04202FA0A
:100F600001F20BD91CEB040408F1FF3A80F08880F1
:100F7000A04240F28580A8F102086444241AB4FB20
:100F8000F9F009FB104400FB0EFEADB245EA044443
:100F9000A64508D91CEB040400F1FF356CD2A64528
:100FA0006AD90238644440EA0840A0FB0295A4EBE9
:100FB0000E04AC42C846AE4656D353D0002E69D07C
:100FC000B3EB080264EB0E0422FA01F304FA07F70C
:100FD0001F43CC40C6E90074002147E70CFA02FC2D
:100FE000C2F1200125FA01F34FEA1C4720FA01F172
:100FF00095400D43B3FBF7F107FB11331FFA8CFE4D
:10100000280C40EA034001FB0EF3834204FA02F489
:1010100008D91CEB000001F1FF382FD283422DD9F3
:1010200002396044C01AB0FBF7F307FB1300ADB2FE
:1010300045EA004503FB0EF0A84208D91CEB050564
:1010400003F1FF3816D2A84214D9023B6544281A8E
:1010500043EA014138E73146304607E72F46E4E6E8
:101060001846F9E64B45A9D2B9EB020865EB0C0E20
:101070000138A3E74346EAE7284694E74146D1E72B
:10108000D0467BE76444023847E7023B65442FE7DC
:10109000084606E73146E9E6704700BF00B583B071
:1010A0000E4B5A6942F001025A615B6903F0010379
:1010B0000193019B002205210D2001F049FA0D202A
:1010C00001F07EFA00220521102001F041FA1020E3
:1010D00001F076FA03B05DF804FB00BF0010024097
:1010E00080B5A6B0002406947C22214607A805F00E
:1010F000D7FE154BD3E90001D3E90267D3E90423F6
:10110000CDE90423CDE90267CDE900010F4A402172
:1011100006A805F017FF0E4D4FF0FF31286804F0C8
:101120005FFA06A805F0C4FF642382B206A9094845
:1011300002F07AFF234622462146286804F051F83F
:10114000642003F07FFBCDE7800E0020880F0108AC
:10115000E4090020A814002000B583B005F0F2F9DE
:10116000114B18600CE080221049114803F098FAE6
:101170000BE000F0B3F90028FBD0012003F062FB84
:101180000B4803F007FA2028EDD0002001906423DB
:1011900001AA4FF0FF3105F0DDFA0128EDD1019AE7
:1011A000044B9A42E9D1E4E77C0E0020FC0D0020BC
:1011B000F01400207856341200B5A3B02B4B1A68F7
:1011C0002B4B1A602B4B1B6801222B4919442B48CF
:1011D00003F001FA0FE06A46294902A805F0F4FE7F
:1011E00000F0ACFADDE9000100F0C8FA00F0B0FA56
:1011F000012003F027FB002402947C22214603A84F
:1012000005F04EFE4FF0FF33802202A91D48006812
:1012100004F090FC1C4D4FF0FF31286804F0E0F919
:1012200002A805F045FF642382B202A9134802F028
:10123000FBFE234622462146286803F0D2FF1349CD
:1012400002A806F0BFF80028C5D1114902A806F08F
:10125000B9F80028CCD06A460E4902A805F0B4FEC1
:10126000DDE9000100F0D4FAC2E700BFF009002078
:10127000AC0E0020B0120020B00E0020A8140020F8
:10128000C40F0108A80E0020E4090020B80F0108CF
:10129000D80F0108E00F010808B5114803F0F4FA6F
:1012A000104B1860012200214FF4806004F0AFFB66
:1012B0000D4B18600D4A00210D4803F04DFA0D4BFF
:1012C00018600D4A00210D4803F046FA0C4B1860D7
:1012D0000C4A00210C4803F03FFA0C4B186008BD83
:1012E00028100108E4090020A80E00203810010889
:1012F000E1100008E80900205C10010859110008FD
:10130000EC09002080100108B9110008F009002044
:1013100030B589B0002404940594069407941D4BBD
:101320009A6942F020029A619A6902F020020092C2
:10133000009A9A6942F004029A619A6902F00402E2
:101340000192019A9A6942F008029A619A6902F040
:1013500008020292029A9A6942F010029A619B690D
:1013600003F010030393039B0B4D22464FF40041FF
:10137000284601F03FFD4FF40043049301230593F9
:1013800006940223079304A9284601F013FC09B030
:1013900030BD00BF00100240000801408446002319
:1013A000184605E01CF803205040034A105C013346
:1013B0009942F7DC704700BFA4120108844600235D
:1013C000184699420FDD10B41CF8032082EA10225F
:1013D000054C34F9122082EA002080B20133994290
:1013E000F2DC10BC70477047A410010800B585B04E
:1013F0000D4B0E4A1A600023039303AA00920322A6
:101400000B490C48006805F063FA039B4BB14FF0A1
:10141000E0234FF08052C3F8042DBFF34F8FBFF38A
:101420006F8F05B05DF804FBF80D0020FC0D002067
:10143000785634127C0E002000B585B00D4B0E4A54
:101440001A600023039303AA009203220B490C485D
:10145000006805F03DFA039B4BB14FF0E0234FF0DD
:101460008052C3F8042DBFF34F8FBFF36F8F05B0C9
:101470005DF804FBF80D00203C0E00207856341275
:101480007C0E002000000000402820D038B50C461B
:10149000412800D038BDC86800F10040FFF72CF8A3
:1014A0000D4DC5E90001206900F10040FFF724F867
:1014B000C5E902016069FFF71FF802460B4604A167
:1014C000D1E90001FEF7B8FEC5E90401E2E7704783
:1014D0004AD8124DFB211940800E0020F8B5444B2C
:1014E000196819B3434B1B684033B3F5806F02D3BF
:1014F000404B00221A603F4B18680B463E4A02449C
:101500004031D3F800C05D689C68D868C2F800C05C
:1015100055609460D060103310328B42F1D1354A5F
:10152000136840331360324B00221A60002400E03D
:101530000134304B1B68052B14D92E4B1B68043B20
:10154000A3420DD92C4D04212819FFF727FF2B5D4D
:10155000FC2BEDD1231DEB5C8342E9D1012302E09A
:10156000002300E0002353B9234C04212046FFF759
:1015700015FF2378FC2B0DD000242046F8BD1D4D0F
:101580002A681D48121B0119FFF7B6F82B681C1BAF
:101590002C60E9E72379834201D00024EDE76778E6
:1015A000A47804F10805134B1B689D421DD812480E
:1015B0004379867946EA032621460730FFF7FEFE87
:1015C00086420BD000240B4E32680B48521B411947
:1015D000FFF792F833685D1B3560CEE72246074976
:1015E0003846FFF751FF0124EDE70024C5E700BFAF
:1015F000F80D0020F40D0020F4090020FB09002064
:1016000008B50268034B9A4200D008BDFFF7EEFE12
:10161000FBE700BF0044004008B50368064A934258
:1016200003D0064A934203D008BDFFF705FFFBE74E
:1016300000F078F9F8E700BF0044004000380140AE
:1016400010B504460268074B9A4204D02268064B44
:101650009A4203D010BD00F057FFF7E700F09AFE62
:10166000F8E700BF001000400014004072B6FEE72B
:1016700000B591B02822002106A805F011FC002336
:1016800001930293039304930593012206924FF46E
:10169000803307930A9202220D920E934FF4E013C7
:1016A0000F9306A801F0C2FB80B90F23019302211A
:1016B0000291002303934FF480620492059301A8E2
:1016C00001F0E6FD20B911B05DF804FBFFF7CEFF95
:1016D000FFF7CCFF08B500F005FFFFF7C9FFFFF7E4
:1016E000DDFCFFF715FE00F037FC00F04FFC00F0CA
:1016F00067FC00F0A1FB00F057FA00F0AFFA00F031
:1017000085FA00F00FFC00F093FD094801F07CFF22
:101710000421084802F0B6FA0421074802F0B2FAA0
:1017200002F0D2FFFFF7B8FD02F0F0FFFEE700BFC6
:101730009013002048130020D8130020034B0020F2
:101740000021C3E90001C3E902017047980E00209F
:10175000074BD3E90001074AC2E90801D3E90201B6
:10176000024601F100430449C1E90823704700BF64
:10177000980E0020C815002020160020D0B506467F
:101780000F46094C02460B46D4E90001FEF756FD10
:10179000C4E9000132463B46D4E90201FEF74EFDA2
:1017A000C4E90201D0BD00BF980E0020D0B50646A6
:1017B0000F46094C02460B46D4E90001FEF73CFDFA
:1017C000C4E9000132463B46D4E90201FEF736FD8A
:1017D000C4E90201D0BD00BF980E0020D0B5064676
:1017E0000F46094C02460B46D4E90001FEF726FDE0
:1017F000C4E9000132463B46D4E90201FEF71CFD74
:10180000C4E90201D0BD00BF980E00200000000016
:10181000F8B506460F4607E0FFF790FF2046294639
:10182000FFF7C4FFFFF794FF3B4BD3E90423304697
:101830003946FEF701FD054621F0004430A3D3E907
:10184000002328462146FEF70FFF002850D1002232
:10185000324B28462146FEF7C5FF04460D460022BE
:101860002F4BFEF71FFF08B100242D4D2A4BD3E963
:10187000042330463946FEF7DFFC00220023FEF742
:1018800011FFB0B1244BD3E9042330463946FEF7AB
:10189000D3FC1DA3D3E90023FEF704FF0028BBD02F
:1018A000FFF74CFF20462946FFF798FFFFF750FF50
:1018B000BAE7194BD3E9042330463946FEF7BCFC9E
:1018C00013A3D3E90023FEF7EDFE40B1FFF736FF87
:1018D00020462946FFF782FFFFF73AFFA4E7FFF70C
:1018E0002DFF20462946FFF761FFFFF731FF9BE7F9
:1018F000FFF724FFFFF72CFFF8BD00BFAFF3008018
:101900007B14AE47E17A843F4AD8124DFB2109404F
:101910004AD8124DFB2109C0800E00200080614092
:1019200000004E4000B583B0184B1A68184B9B5C02
:101930000A2B12D00132154B1A60B2F5806F01DB11
:1019400000221A60114B1B680122114919441148E9
:1019500002F041FE03B05DF804FB01320C490023A4
:101960008B5401AB0C48006804F092F8019B4BB11A
:101970004FF0E0234FF08052C3F8042DBFF34F8F98
:10198000BFF36F8F014B00221A60DBE7B01200201B
:10199000B00E0020A8140020A80E002000B583B0CF
:1019A000114B9A6942F001029A619A6902F00102B0
:1019B0000092009ADA6942F08052DA61DB6903F042
:1019C00080530193019B00220F216FF0010000F072
:1019D000BFFD064A536823F0E06343F00073536091
:1019E00003B05DF804FB00BF00100240000001409E
:1019F00000B589B001460022362000F0A9FD36204E
:101A000000F0DEFD154BDA6942F01002DA61DB69A5
:101A100003F010030193019B02A903A801F014FD38
:101A200001F0F2FC43000E48A0FB03239B0C013B9A
:101A30000C480D4A026040F2E732C2604360002366
:101A40000361836001F02AFF18B1012009B05DF83D
:101A500004FB044801F0D8FDF8E700BF0010024085
:101A600083DE1B43B412002000100040FEE7FEE7B7
:101A7000FEE7FEE7FEE7704708B5024800F024FFE6
:101A800008BD00BF6414002008B5024800F01CFF28
:101A900008BD00BF2014002008B5024802F0DAFBA0
:101AA00008BD00BFA814002008B5024802F0D2FB10
:101AB00008BD00BFF014002008B5024802F0CAFBC0
:101AC00008BD00BF3815002008B5024801F0DDFD53
:101AD00008BD00BFB412002008B5024801F0D5FDD2
:101AE00008BD00BF901300200120704708B505F025
:101AF000ADF9162303604FF0FF3008BD08B54FF075
:101B0000FF31FFF7F3FFFEE770B50C4616460025E0
:101B100006E0AFF30080214601F8010B01350C46C9
:101B2000B542F6DB304670BD70B50C461646002552
:101B300004E014F8010BAFF300800135B542F8DB87
:101B4000304670BD4FF0FF3070474FF400534B608C
:101B500000207047012070470020704710B50346F1
:101B60000C4A0D490D48006840B10C480068034418
:101B7000521A934206D8094A136010BD0748084C10
:101B80000460F2E705F062F90C2303604FF0FF30C8
:101B9000F3E700BF00C0002000100000FC1200208E
:101BA000084F00207047000000B58DB024220021AE
:101BB00003A805F075F90023019302931148124A16
:101BC0000260436083604FF6FF72C260036183610D
:101BD0000323039301230593099303A901F0B6FEA0
:101BE00050B900230193029301A9064802F0B0F80E
:101BF00028B90DB05DF804FBFFF738FDF1E7FFF7FA
:101C000035FDF6E7481300200008004000B583B01A
:101C10000023009301930F480F4A0260472242605D
:101C2000836040F2E732C260836101F037FE50B951
:101C30000023009301936946064802F089F828B909
:101C400003B05DF804FBFFF711FDF1E7FFF70EFDB0
:101C5000F6E700BF901300200014004000B58DB0DF
:101C60002422002103A805F01BF90023019302930D
:101C70001248134A0260436083604FF6FF72C260ED
:101C80000361436183610323039301230593099354
:101C900003A901F05BFE50B900230193029301A94F
:101CA000064802F055F828B90DB05DF804FBFFF7BF
:101CB000DDFCF1E7FFF7DAFCF6E700BFD813002000
:101CC0000034014000B583B00368134A934205D045
:101CD000124A93420DD003B05DF804FB104BDA6951
:101CE00042F00202DA61DB6903F002030093009B19
:101CF000F1E70B4BDA6942F02002DA61DB6903F0AD
:101D000020030193019B00220421372000F020FCD6
:101D1000372000F055FCDEE70004004000140040CE
:101D20000010024000B589B0002304930593069388
:101D3000079303681E4A934205D01E4A93421CD063
:101D400009B05DF804FB1C4BDA6942F00402DA6169
:101D5000DA6902F004020092009A9A6942F00802DD
:101D60009A619B6903F008030193019BC0230493CC
:101D700004A9124800F01EFFE2E70F4B9A6942F4F3
:101D800000529A619A6902F400520292029A9A6988
:101D900042F010029A619B6903F010030393039BC6
:101DA000C023049304A9064800F004FFC8E700BF5D
:101DB000000800400034014000100240000C0140C7
:101DC0000010014010B586B00023029303930493E2
:101DD00005930268154B9A4201D006B010BD03F579
:101DE00003339A6942F004029A619A6902F004028C
:101DF0000092009A9A6942F008029A619B6903F086
:101E000008030193019BC0230293022403940594C9
:101E100002A9074800F0CEFE032302930394059421
:101E200002A9044800F0C6FED7E700BF0004004046
:101E300000080140000C014000B58FB000230A9358
:101E40000B930C930D9308930993019302930393BF
:101E500004930593069307933048314A0260472262
:101E60004260836040F2E732C2600361836101F047
:101E700015FD002839D14FF480530A930AA9274849
:101E800001F072FE002833D1244801F033FD002810
:101E900031D100230893099308A9204801F058FF85
:101EA00060BB60230193002202920392059201A974
:101EB0001A4801F0DFFD20BB04220DEB0201174898
:101EC00001F0D8FD00BB082201A9144801F0D2FDA1
:101ED000E8B90C2201A9114801F0CCFDD0B90F4896
:101EE000FFF770FF0FB05DF804FBFFF7BFFBC2E721
:101EF000FFF7BCFBC8E7FFF7B9FBCAE7FFF7B6FB84
:101F0000CFE7FFF7B3FBD7E7FFF7B0FBDBE7FFF760
:101F1000ADFBDEE7FFF7AAFBE1E700BF00130020FF
:101F20000004004008B50A480A4B03604FF4E1334F
:101F3000436000238360C36003610C2242618361BC
:101F4000C36102F041F800B908BDFFF78FFBFBE762
:101F500080150020004C004008B50A480A4B036079
:101F60004FF4E133436000238360C36003610C22BC
:101F700042618361C36102F027F800B908BDFFF731
:101F800075FBFBE7A81400200038014008B50A489B
:101F90000A4B03604FF4E133436000238360C36066
:101FA00003610C2242618361C36102F00DF800B944
:101FB00008BDFFF75BFBFBE7F01400200044004086
:101FC00008B50A480A4B03604FF4613343600023AD
:101FD0008360C36003610C2242618361C36101F0CD
:101FE000F3FF00B908BDFFF741FBFBE73815002000
:101FF0000048004070B58CB00023089309930A9301
:102000000B9303687D4A93420CD004467C4A93426A
:1020100032D07C4A934261D07B4A934200F0A58043
:102020000CB070BD794BDA6942F40022DA61DA69EA
:1020300002F400220092009A9A6942F010029A611A
:102040009B6903F010030193019B4FF48063089395
:102050000223099303230B936D4C08A9204600F03B
:10206000A9FD4FF400630893002309930A9308A97C
:10207000204600F09FFDD3E7644B9A6942F480420A
:102080009A619A6902F480420292029A9A6942F035
:1020900004029A619B6903F004030393039B4FF4CA
:1020A000007308930223099303230B93594D08A946
:1020B000284600F07FFD4FF48063089300240994C4
:1020C0000A9408A9284600F075FD2246052125201E
:1020D00000F03EFA252000F073FAA1E74B4BDA69D5
:1020E00042F40032DA61DA6902F400320492049AAE
:1020F0009A6942F004029A619B6903F00403059314
:10210000059B042308930223099303230B93414E59
:1021100008A9304600F04EFD0823089300250995D4
:102120000A9508A9304600F045FD3B483B4B03604B
:10213000456085608023C36005614561202383611C
:102140004FF40053C36100F05FFA58B9324BE363B8
:102150005C6200220521262000F0FAF9262000F01A
:102160002FFA5DE7FFF782FAF0E7284BDA6942F4CD
:102170008022DA61DA6902F480220692069A9A696C
:1021800042F008029A619B6903F008030793079BDA
:102190004FF4806308930223099303230B93204E8B
:1021A00008A9304600F006FD4FF4006308930025AF
:1021B00009950A9508A9304600F0FCFC19481A4B0D
:1021C0000360456085608023C3600561456120230D
:1021D00083614FF44053C36100F016FA58B9114BB4
:1021E000E3635C6200220521272000F0B1F927207B
:1021F00000F0E6F914E7FFF739FAF0E7004C004089
:1022000000380140004400400048004000100240F7
:102210000010014000080140201400206C00024022
:10222000000C014064140020300002400000000057
:102230002DE9F003DFF860C00026184FCCE90067F5
:102240000024174DCCE9024500220023CCE90423E9
:10225000CCE908230EA1D1E90001CCE910014FF02F
:102260000008DFF84090CCE91289DFF83CC0CCE9E7
:102270000067CCE90245CCE90423CCE90823CCE98A
:102280001001CCE91289BDE8F0037047AFF300807C
:102290000000000000408FC0C815002000008E40E4
:1022A00000006E4000408F40201600202DE9F047CE
:1022B0008246D0E90C23C0E90E23D0E90A23C0E905
:1022C0000C2300F12001D1E90001DAE90623FDF732
:1022D000B3FFCAE90A01DAE90045DAE90A01DAE9F5
:1022E0000C23FDF7A9FF02460B4620462946FEF7C0
:1022F00079FA04460D46DAE90201DAE90A23FEF723
:1023000071FA02460B4620462946FDF797FF044620
:102310000D46DAE90467DAE90A89DAE90C010246CE
:102320000B46FDF78BFF02460B4640464946FDF73C
:1023300083FFDAE90E23FDF781FF02460B463046A4
:102340003946FEF74FFA02460B4620462946FDF76E
:1023500075FF02460B46DAE91401FDF76FFFCAE983
:102360001401DAE91401DAE91223FEF79BF918B136
:10237000DAE91223CAE91423DAE91401DAE91023AD
:10238000FEF772F918B1DAE91023CAE91423BDE89F
:10239000F0870000F8B53B4B1D68686A00B2FEF795
:1023A00099F8394CC4E9060100276F62374B1E6863
:1023B000706A00B2FEF78EF8354DC5E90601776206
:1023C0002046FFF773FF2846FFF770FF0022002327
:1023D000D4E91401FEF766F9D8B12E4B1C682A4BDC
:1023E000D3E91401FEF768F9E063276400220023B3
:1023F0002749D1E91401FEF755F930B3254B1C6884
:10240000234BD3E91401FEF757F960630023A3635C
:10241000F8BD002200231C49D1E91401FEF724F97C
:1024200028B91C4B1B680022DA631A64DEE7194BDB
:102430001C680023E363144BD3E91456284606F1C5
:102440000041FEF739F92064D0E70022002310494B
:10245000D1E91401FEF708F928B90E4B1B680022D8
:102460005A639A63D4E70B4B1C6800236363084BE1
:10247000D3E91456284606F10041FEF71DF9A06382
:10248000C6E700BFD8130020C8150020481300205D
:102490002016002000130020FFF784FB0B480C4996
:1024A0000C4A002302E0D458C4500433C4188C42B0
:1024B000F9D3094A094C002301E013600432A24217
:1024C000FBD304F0C9FCFFF705F9704700000020BA
:1024D000C4090020B4190108C8090020044F0020D5
:1024E000FEE7000008B5074A136843F010031360C5
:1024F000032000F01BF80F20FFF77AFAFFF74EFADF
:10250000002008BD00200240034A1168034B1B78DD
:102510000B441360704700BF7816002004000020B1
:10252000014B1868704700BF78160020074AD3682F
:1025300023F4E0631B041B0C000200F4E06003437F
:1025400043F0BF6343F40033D360704700ED00E015
:1025500000B5194BDB68C3F30223C3F1070CBCF1D0
:10256000040F28BF4FF0040C03F1040EBEF1060F58
:1025700018D9033B4FF0FF3E0EFA0CFC21EA0C0188
:1025800099400EFA03F322EA0303194300280BDBF8
:102590000901C9B200F1604000F5614080F8001304
:1025A0005DF804FB0023E5E700F00F000901C9B264
:1025B000024B1954F4E700BF00ED00E014ED00E019
:1025C000002807DB00F01F02400901239340024A64
:1025D00042F82030704700BF00E100E030B4012431
:1025E000056CAC40C56B6C60046863604368102B7D
:1025F00005D0036899600368DA6030BC70470368EF
:102600009A600368D960F8E700283AD010B402460F
:1026100000681D4B984229D81C4B03441C49A1FB60
:1026200003131B099B0013641A4BD363022382F824
:102630002130016821F47F5121F030015368946802
:102640002343D4682343146923435469234394697F
:102650002343D46923430B43036000209063012389
:1026600082F8213082F8200010BC70470A4B0344E6
:102670000749A1FB03131B099B001364074BD3639A
:10268000D4E70120704700BF07040240F8FFFDBFF8
:10269000CDCCCCCC00000240F8FBFDBF00040240D2
:1026A00038B5044690F82000012832D0012084F883
:1026B000200094F82100C0B2012804D0002384F83F
:1026C0002030022038BD022084F821000020A063C1
:1026D0002568286820F0010028602046FFF77EFF6B
:1026E000E36A5BB12268136843F00E03136022684B
:1026F000136843F0010313600020E3E722681368C6
:1027000023F0040313602268136843F00A03136084
:10271000EDE70220D6E790F82130DBB2022B06D09D
:1027200004238363002380F820300120704702686F
:10273000136823F00E0313600268136823F001038B
:102740001360036CC16B012202FA03F34B6080F843
:102750002120002380F820301846704708B590F8F3
:102760002130DBB2022B03D004238363012008BD98
:102770000268136823F00E0313600268136823F0E5
:102780000103136003684C4A93424ED9783A93424E
:1027900024D01432934230D0143293422FD01432CA
:1027A00093422FD0143293422FD0143293422FD021
:1027B000143293422FD002F5627293422ED014321B
:1027C00093422DD0143293422CD01432934202D033
:1027D0004FF4803203E04FF4805200E00122374B87
:1027E0005A60012380F82130002380F82030436BA9
:1027F000002B5ED098470020B9E71022EFE74FF496
:102800008072ECE74FF48052E9E74FF48032E6E75C
:102810004FF48012E3E74FF08072E0E70122DEE739
:102820001022DCE74FF48072D9E7254A934224D086
:102830001432934225D01432934224D0143293425E
:1028400024D01432934224D01432934224D0143230
:10285000934224D002F56272934223D01432934201
:1028600022D01432934221D01432934202D04FF43A
:10287000803203E04FF4805200E00122114B5A6095
:10288000AFE71022FAE74FF48072F7E74FF4805277
:10289000F4E74FF48032F1E74FF48012EEE74FF0A7
:1028A0008072EBE70122E9E71022E7E74FF480723C
:1028B000E4E700205BE700BF800002400004024024
:1028C000080002400000024038B5C36B1A68046873
:1028D0002568016C04238B40134200F09B8015F0A7
:1028E000040F00F09780236813F0200F03D12368B2
:1028F00023F00403236003689A4A934246D9783A46
:10290000934224D01432934228D01432934227D0D9
:102910001432934227D01432934227D01432934278
:1029200027D01432934227D002F56272934226D008
:102930001432934225D01432934224D0143293425D
:1029400002D04FF4802203E04FF4804200E00422E2
:10295000854B5A60C36A03B1984738BD4022F7E7F8
:102960004FF48062F4E74FF48042F1E74FF48022A5
:10297000EEE74FF48002EBE74FF08062E8E70422D5
:10298000E6E74022E4E74FF48062E1E7774A9342CA
:1029900024D01432934225D01432934224D01432DE
:1029A000934224D01432934224D01432934224D040
:1029B0001432934224D002F56272934223D014322F
:1029C000934222D01432934221D01432934202D047
:1029D0004FF4802203E04FF4804200E00422644B75
:1029E0005A60B7E74022FAE74FF48062F7E74FF406
:1029F0008042F4E74FF48022F1E74FF48002EEE7E3
:102A00004FF08062EBE70422E9E74022E7E74FF46A
:102A10008062E4E702238B40134200F0AB8015F0A4
:102A2000020F00F0A780236813F0200F06D123685F
:102A300023F00A032360012380F821300368494A08
:102A400093424BD9783A934224D0143293422DD0FA
:102A5000143293422CD0143293422CD0143293422D
:102A60002CD0143293422CD0143293422CD002F545
:102A7000627293422BD0143293422AD01432934282
:102A800029D01432934202D04FF4003203E04FF4C5
:102A9000005200E00222344B5A60002380F82030BC
:102AA000836A002B3FF459AF984756E72022F2E79C
:102AB0004FF40072EFE74FF40052ECE74FF40032AE
:102AC000E9E74FF40012E6E74FF00072E3E7022275
:102AD000E1E72022DFE74FF40072DCE7234A93426C
:102AE00024D01432934225D01432934224D014328D
:102AF000934224D01432934224D01432934224D0EF
:102B00001432934224D002F56272934223D01432DD
:102B1000934222D01432934221D01432934202D0F5
:102B20004FF4003203E04FF4005200E00222104B59
:102B30005A60B2E72022FAE74FF40072F7E74FF449
:102B40000052F4E74FF40032F1E74FF40012EEE7E1
:102B50004FF00072EBE70222E9E72022E7E74FF4AB
:102B60000072E4E7800002400004024008000240D6
:102B700000000240082303FA01F111423FF4EDAED8
:102B800015F0080F3FF4E9AE236823F00E0323602D
:102B9000026CC16B012303FA02F24A60836380F87E
:102BA0002130002380F82030036B002B3FF4D5AE9A
:102BB0009847D2E670B582B00024A446B0E0874DB5
:102BC000AA4210D007D9864DAA420CD005F580350F
:102BD000AA4208D013E0A5F58015AA4203D005F556
:102BE0007025AA4207D18A68002A62D0012A5BD0E8
:102BF0004361082403E0A5F58015AA42F3D0BEF195
:102C0000FF0F58D80646BEF1FF0F56D84FEA8C0288
:102C100033680F25954023EA050304FA02F21343B3
:102C200033604B6813F0805F78D06E4B9A6942F046
:102C300001029A619B6903F001030193019B4FEA32
:102C40009C02951C684B53F825600CF003039D0013
:102C50000F23AB4026EA0306644B984233D003F5BA
:102C60008063984200F0988003F58063984200F0FA
:102C7000958003F58063984200F0928003F58063AD
:102C8000984200F08F8003F58063984219D00623A4
:102C90001AE0CC68B3E7CC680434B0E7CC680834F9
:102CA000ADE7CC680C34AAE703610824A7E7002449
:102CB000A5E70424A3E7061DA5E7ACF108029200EE
:102CC000A6E7052300E00023AB4033430232464D24
:102CD00045F822304B6813F4801F65D0444A93684E
:102CE00043EA0E0393604B6813F4001F62D0404A1E
:102CF000D36843EA0E03D3604B6813F4003F5FD000
:102D00003B4A536843EA0E0353604B6813F4803F19
:102D10005CD0374A136843EA0E0313600CF1010CD0
:102D20000A6832FA0CF357D0012303FA0CF302EAD3
:102D3000030E33EA0202F1D14A68122A3FF63FAF8E
:102D4000122A3FF65CAF01A555F822F0E72B0008E8
:102D5000932C00089D2C0008AF2C0008FF2B0008C6
:102D6000FF2B0008FF2B0008FF2B0008FF2B00089B
:102D7000FF2B0008FF2B0008FF2B0008FF2B00088B
:102D8000FF2B0008FF2B0008FF2B0008FF2B00087B
:102D9000972C0008A32C0008012395E7022393E752
:102DA000032391E704238FE7114A936823EA0E0374
:102DB000936098E70E4AD36823EA0E03D3609BE73B
:102DC0000B4A536823EA0E0353609EE7084A1368D0
:102DD00023EA0E031360A1E702B070BD00002210C9
:102DE00000003110001002400000014000080140C6
:102DF000000401400AB10161704709040161704794
:102E000082B0084B1B68084AA2FB03235B0A00FB45
:102E100003F3019300BF019B5A1E0192002BF9D1CD
:102E200002B0704700000020D34D6210002800F06F
:102E3000F18170B582B00446036813F0010F2CD005
:102E4000994B5B6803F00C03042B1DD0964B5B6819
:102E500003F00C03082B12D06368B3F5803F41D018
:102E6000002B55D103F1804303F504331A6822F493
:102E700080321A601A6822F480221A6037E08A4B86
:102E80005B6813F4803FE7D0874B1B6813F4003F67
:102E900003D06368002B00F0BF81236813F0020F9A
:102EA00075D0814B5B6813F00C0F5FD07E4B5B6875
:102EB00003F00C03082B54D02369002B00F08A8008
:102EC0007A4B01221A60FFF72BFB0546764B1B68F5
:102ED00013F0020F75D1FFF723FB401B0228F5D931
:102EE00003209EE1704A136843F4803313606368E3
:102EF00043B3FFF715FB05466B4B1B6813F4003F0C
:102F0000CBD1FFF70DFB401B6428F5D9032088E1E6
:102F1000B3F5A02F09D0644B1A6822F480321A60EE
:102F20001A6822F480221A60E1E703F18043A3F5D6
:102F30003C331A6842F480221A601A6842F48032E4
:102F40001A60D4E7FFF7ECFA0546574B1B6813F4F9
:102F5000003FA2D0FFF7E4FA401B6428F5D9032014
:102F60005FE1514B5B6813F4803FA5D14E4B1B686A
:102F700013F0020F03D02369012B40F04F814A4A1E
:102F8000136823F0F803616943EAC10313602368FF
:102F900013F0080F33D0A369002B5CD0434B012200
:102FA000C3F88024FFF7BCFA05463F4B5B6A13F079
:102FB000020F21D1FFF7B4FA401B0228F5D90320F4
:102FC0002FE1394A136823F0F803616943EAC1032A
:102FD0001360DCE7354B00221A60FFF7A1FA0546C3
:102FE000314B1B6813F0020FD1D0FFF799FA401B49
:102FF0000228F5D9032014E10120FFF701FF23681F
:1030000013F0040F00F09680274BDB6913F0805F0C
:1030100034D1254BDA6942F08052DA61DB6903F082
:1030200080530193019B0125214B1B6813F4807F82
:1030300026D0E368012B3DD0002B53D103F1804310
:1030400003F504331A6A22F001021A621A6A22F0A6
:1030500004021A6233E0154B0022C3F88024FFF704
:103060005FFA0546104B5B6A13F0020FC7D0FFF7FB
:1030700057FA401B0228F5D90320D2E00025D3E7F8
:103080000B4A136843F480731360FFF749FA06464E
:10309000074B1B6813F4807FCBD1FFF741FA801BED
:1030A0006428F5D90320BCE0001002400000424231
:1030B000007000405F4A136A43F001031362E36843
:1030C00033B3FFF72DFA06465A4B1B6A13F0020F73
:1030D0002FD1FFF725FA801B41F288339842F3D9AC
:1030E00003209EE0052B09D0524B1A6A22F0010200
:1030F0001A621A6A22F004021A62E0E74D4B1A6A59
:1031000042F004021A621A6A42F001021A62D6E719
:10311000FFF706FA0646474B1B6A13F0020F08D06A
:10312000FFF7FEF9801B41F288339842F3D9032060
:1031300077E0E5B9E369002B72D03E4A526802F0AD
:103140000C02082A56D0022B17D03B4B00221A66DD
:10315000FFF7E6F90446374B1B6813F0007F47D0B2
:10316000FFF7DEF9001B0228F5D9032059E0314AA8
:10317000D36923F08053D361DCE72F4B00221A661A
:10318000FFF7CEF905462B4B1B6813F0007F06D0E6
:10319000FFF7C6F9401B0228F5D9032041E0236A56
:1031A000B3F5803F1AD023494B6823F47413226A85
:1031B000606A024313434B601F4B01221A66FFF7FC
:1031C000AFF904461B4B1B6813F0007F0ED1FFF7CD
:1031D000A7F9001B0228F5D9032022E0154A5368FD
:1031E00023F40033A1680B435360DCE7002018E0B0
:1031F000002016E0012B16D00E4B5B6803F48031E3
:10320000226A914211D103F47013626A93420ED183
:10321000002006E001207047012002E0012000E0CC
:10322000002002B070BD0120FBE70120F9E701207A
:10323000F7E700BF00100240000042420F4B5B68FE
:1032400003F00C02082A01D00D487047C3F38342F3
:103250000C49885C13F4803F0BD0084B5B68C3F3C8
:103260004043094AD35C064A02FB00F0B0FBF3F08E
:103270007047064B03FB00F0704700BF0010024090
:1032800000127A00BC130108CC13010800093D00AC
:10329000002800F0A08070B50D460446524B1B6814
:1032A00003F007038B420BD24F4A136823F0070346
:1032B0000B431360136803F007038B4240F08D80CB
:1032C000236813F0020F17D013F0040F04D0474AFD
:1032D000536843F4E0635360236813F0080F04D08D
:1032E000424A536843F460535360404A536823F0A2
:1032F000F003A1680B435360236813F0010F31D032
:103300006368012B20D0022B25D0384A126812F0B6
:10331000020F64D035494A6822F0030213434B6020
:10332000FFF7FEF80646314B5B6803F00C0362685A
:10333000B3EB820F16D0FFF7F3F8801B41F288330E
:103340009842F0D9032045E0284A126812F4003F61
:10335000E0D101203EE0254A126812F0007FD9D169
:10336000012037E0204B1B6803F00703AB420AD96A
:103370001D4A136823F007032B431360136803F0FF
:103380000703AB422DD1236813F0040F06D0174A70
:10339000536823F4E063E1680B435360236813F040
:1033A000080F07D0114A536823F46053216943EA98
:1033B000C1035360FFF742FF0C4B5B68C3F3031379
:1033C0000B4AD35CD8400B4B18600B4B1868FEF7C8
:1033D0000FFB002070BD012070470120FAE701209B
:1033E000F8E70120F6E700BF00200240001002408D
:1033F000A41301080000002008000020014B1868F9
:10340000704700BF0000002008B5FFF7F7FF044B2E
:103410005B68C3F30223034AD35CD84008BD00BFF6
:1034200000100240B413010808B5FFF7E7FF044B92
:103430005B68C3F3C223034AD35CD84008BD00BF16
:1034400000100240B41301080F2303600B4B5A68AD
:1034500002F0030242605A6802F0F00282605A6889
:1034600002F4E062C2605B68DB0803F4E0630361BE
:10347000034B1B6803F007030B607047001002400A
:103480000020024030B4036A026A22F001020262A4
:103490004268846924F073040D682C4323F0020C05
:1034A0008B6843EA0C03104DA84203D005F5006574
:1034B000A84205D123F00803CD682B4323F0040371
:1034C000094DA84203D005F50065A84205D122F4B4
:1034D00040724D692A438D692A43426084614A687B
:1034E0004263036230BC7047002C014030B4036A71
:1034F000026A22F4807202624268C46924F0730C8A
:103500000C6844EA0C0523F400738C6843EA042336
:10351000114CA04203D004F50064A04206D123F46C
:103520000063CC6843EA042323F480630A4CA0427E
:1035300003D004F50064A04207D122F440524C6944
:1035400042EA04128C6942EA04124260C5614A6888
:10355000C263036230BC7047002C014030B4036A80
:10356000026A22F4805202624468C26922F4E6428E
:103570000D6842EA052223F400538D6843EA0533BF
:10358000094DA84203D005F50065A84204D124F4F2
:1035900080444D6944EA85144460C2614A6802640B
:1035A000036230BC704700BF002C014010B4036AB6
:1035B000046A24F001040462846924F0F00C4CEAEB
:1035C000021223F00A030B438261036210BC7047AE
:1035D00010B4036A046A24F010040462846924F4B9
:1035E000704C4CEA023223F0A00343EA01138261DB
:1035F000036210BC7047836823F070030B4343F0F1
:10360000070383607047000090F83D30DBB2012B68
:103610002FD1022380F83D300268D36843F00103C4
:10362000D3600368154A934218D002F500629342B2
:1036300014D0B3F1804F11D0A2F5983293420DD03F
:1036400002F58062934209D002F58062934205D070
:103650001A6842F001021A60002070479A6802F06E
:103660000702062A07D01A6842F001021A600020F9
:103670007047012070470020704700BF002C0140B8
:103680007047704770477047704710B5044603682D
:103690001A6912F0020F11D0DA6812F0020F0DD081
:1036A0006FF002021A610123037703689B6913F02C
:1036B000030F70D0FFF7E6FF0023237723681A6912
:1036C00012F0040F12D0DA6812F0040F0ED06FF06F
:1036D00004021A610223237723689B6913F4407F55
:1036E0005FD02046FFF7CEFF0023237723681A69B7
:1036F00012F0080F12D0DA6812F0080F0ED06FF037
:1037000008021A61042323772368DB6913F0030F8F
:103710004ED02046FFF7B6FF0023237723681A69AF
:1037200012F0100F12D0DA6812F0100F0ED06FF0F6
:1037300010021A61082323772368DB6913F4407FA2
:103740003DD02046FFF79EFF0023237723681A69A8
:1037500012F0010F03D0DA6812F0010F36D123689E
:103760001A6912F0800F03D0DA6812F0800F34D19A
:1037700023681A6912F0400F03D0DA6812F0400F84
:1037800032D123681A6912F0200F03D0DA6812F0E0
:10379000200F30D110BDFFF774FF2046FFF773FFF5
:1037A0008AE72046FFF76DFF2046FFF76CFF9BE797
:1037B0002046FFF766FF2046FFF765FFACE720468F
:1037C000FFF75FFF2046FFF75EFFBDE76FF00102E6
:1037D0001A612046FDF734FFC1E76FF080021A61DD
:1037E000204600F0F4FAC3E76FF040021A61204669
:1037F000FFF74AFFC5E76FF020021A61204600F08C
:10380000E5FAC7E70368244A904212D002F5006245
:1038100090420ED0B0F1804F0BD0A2F5983290427A
:1038200007D002F58062904203D002F58062904298
:1038300003D123F070034A681343174A904212D011
:1038400002F5006290420ED0B0F1804F0BD0A2F58D
:103850009832904207D002F58062904203D002F580
:103860008062904203D123F44073CA68134323F06B
:1038700080034A69134303608B68C3620B688362E9
:10388000054B984203D003F50063984201D10B69C0
:103890000363012343617047002C014040B310B51E
:1038A000044690F83D30F3B1022384F83D302146C0
:1038B00051F8040BFFF7A6FF012384F8463084F883
:1038C0003E3084F83F3084F8403084F8413084F84A
:1038D000423084F8433084F8443084F8453084F82A
:1038E0003D30002010BD80F83C30FEF7EBF9DBE7FF
:1038F0000120704740B310B5044690F83D30F3B155
:10390000022384F83D30214651F8040BFFF77AFF7B
:10391000012384F8463084F83E3084F83F3084F840
:10392000403084F8413084F8423084F8433084F8E1
:10393000443084F8453084F83D30002010BD80F8D4
:103940003C30FFF79DFEDBE701207047002857D091
:1039500070B50D46044690F83D30002B4BD0022345
:1039600084F83D302268936823F4804323F00703F2
:103970009360214651F8040BFFF744FF21688A68E1
:103980008B690E6A2868104323F4407C2CF0030CEA
:10399000AA68AB6942EA032343EA0C0323F47C439D
:1039A00023F0FC03EA69D5F80CC04CEA022C4CEA7F
:1039B000030C2A6A13032A6943EA021343EA0C033D
:1039C00026F022066A686D6942EA05123243886071
:1039D00021688B6123681A62012384F8463084F8D9
:1039E0003E3084F83F3084F8423084F8433084F825
:1039F0003D30002070BD80F83C30FEF793F9AEE713
:103A00000120704730B4036A026A22F01002026299
:103A10004468826922F4E6420D6842EA052223F0F6
:103A200020038D6843EA0513114DA84203D005F524
:103A30000065A84206D123F08003CD6843EA051350
:103A400023F040030A4DA84203D005F50065A842C3
:103A500007D124F440644D6944EA85048D6944EA41
:103A60008504446082614A688263036230BC7047A7
:103A7000002C014038B590F83C30012B66D004464C
:103A80000D46012380F83C300C2A5AD8DFE802F0BA
:103A9000075959591B595959305959594400006807
:103AA000FFF7F0FC2268936943F0080393612268F2
:103AB000936923F0040393612268936929690B4396
:103AC000936100203EE00068FFF79CFF2268936945
:103AD00043F4006393612268936923F480639361E4
:103AE00022689369296943EA01239361002029E050
:103AF0000068FFF7FBFC2268D36943F00803D36139
:103B00002268D36923F00403D3612268D369296949
:103B10000B43D361002015E00068FFF71FFD22680A
:103B2000D36943F40063D3612268D36923F48063CB
:103B3000D3612268D369296943EA0123D361002054
:103B400000E00120002384F83C3038BD0220FCE76F
:103B500010B4846824F47F4C42EA03220A4342EA08
:103B60000C02826010BC704790F83C30012B78D07A
:103B700010B50446012380F83C30022380F83D3024
:103B80000268936823F47F4323F0770393600B6804
:103B9000602B4CD029D8402B54D00CD9502B22D19B
:103BA000CA6849680068FFF701FD50212068FFF7E7
:103BB00022FD002005E0202B0DD009D9302B0AD0A2
:103BC0000120012384F83D30002384F83C3010BDEF
:103BD0000BB1102B05D119462068FFF70CFD002012
:103BE000EFE70120EDE70120EBE7B3F5805F34D08C
:103BF000B3F5005F0CD1CB684A6889680068FFF7AD
:103C0000A7FF2268936843F4804393600020D8E7BD
:103C1000702B24D1CB684A6889680068FFF798FF49
:103C20002268936843F0770393600020C9E7CA686D
:103C300049680068FFF7CCFC60212068FFF7DBFCD7
:103C40000020BEE7CA6849680068FFF7AFFC402162
:103C50002068FFF7D0FC0020B3E70020B1E7012087
:103C6000AFE70220704701F01F01012303FA01FCB6
:103C7000036A23EA0C030362036A02FA01F10B43AD
:103C80000362704738B5044690F83E00C0B294F81D
:103C90003F3094F84220D2B294F843C00D46B1B9F7
:103CA000012849D1012A48D1022384F83E3084F802
:103CB00042307DB3042D39D0012200212068FFF766
:103CC000D2FF012204212068FFF7CDFF27E0DBB2FD
:103CD0005FFA8CFC042912D0012833D1012B2CD19E
:103CE000012A31D1BCF1010F30D1022384F83E30DA
:103CF00084F83F3084F8423084F84330D9E7012B10
:103D00001CD1BCF1010F1BD1022384F83F3084F891
:103D10004330CEE7012200212068FFF7A4FF22688C
:103D2000136843F001031360002006E00122042120
:103D30002068FFF798FFF2E7012038BD0120FCE77B
:103D40001846FAE70120F8E71846F6E71046F4E7C8
:103D500090F83C30012B34D010B4012380F83C3073
:103D6000022380F83D3003685A689C6822F0700C8A
:103D70000A6842EA0C025A600368134A934212D05E
:103D800002F5006293420ED0B3F1804F0BD0A2F542
:103D90009832934207D002F58062934203D002F535
:103DA0008062934204D124F080044A6814439C60EA
:103DB000012380F83D30002380F83C30184610BCC9
:103DC00070470220704700BF002C014070477047C9
:103DD000026802F10C0353E8003F23F0C0030C32E9
:103DE00042E800310029F3D1202380F841307047A8
:103DF000026802F10C0353E8003F23F490730C3285
:103E000042E800310029F3D1026802F1140353E8BB
:103E1000003F23F00103143242E800310029F3D1BE
:103E2000036B012B05D0202380F84230002303636D
:103E30007047026802F10C0353E8003F23F01003BF
:103E40000C3242E800310029F3D1ECE790F8413020
:103E5000DBB2212B01D0022070478368B3F5805F6D
:103E600017D0036A5A1C02621A7803685A60C38C1E
:103E70009BB2013B9BB2C3844BB90268D36823F069
:103E80008003D3600268D36843F04003D36000200E
:103E900070470369002BE4D1036A1B880268C3F3EF
:103EA00008035360036A02330362E0E710B5044677
:103EB0000268136923F44053C1680B43136183689C
:103EC0000269134342691A430168CB6823F4B05373
:103ED00023F00C031343CB600268536923F440734F
:103EE00081690B4353610268134B9A4220D0FFF75C
:103EF0008BFA024602EB820202EB820263689B00AD
:103F0000B2FBF3F20D48A0FB02314909642303FB25
:103F100011231B013233A0FB03235B0903F0F002E2
:103F200002EB011203F00F03216813448B6010BDF4
:103F3000FFF77AFA0246DDE7003801401F85EB51B2
:103F40002DE9F84305460F4616469946DDF82080D0
:103F50002C68246837EA04030CBF4FF0010C4FF0C3
:103F6000000CB4452DD1B8F1FF3FF1D0B8F1000FEE
:103F700005D0FEF7D5FAA0EB09004045E8D92A683C
:103F800002F10C0353E8003F23F4D0730C3242E8F3
:103F900000310029F3D12A6802F1140353E8003FED
:103FA00023F00103143242E800310029F3D1202329
:103FB00085F8413085F84230002385F840300320F1
:103FC00000E00020BDE8F88360B310B5044690F827
:103FD000413013B3242384F841302268D36823F49A
:103FE0000053D3602046FFF761FF2268136923F472
:103FF000904313612268536923F02A0353612268B6
:10400000D36843F40053D36000206064202384F815
:10401000413084F84230606310BD80F84030FDF7D5
:10402000E9FFD7E7012070472DE9F04182B01E4635
:1040300090F84130DBB2202B4BD104460D46904620
:1040400000294AD00AB9012044E000234364212317
:1040500080F84130FEF764FA0746A4F82480A4F8FB
:104060002680A368B3F5805F02D04FF000080FE010
:104070002369FBB14FF000080AE038F8023B2268E0
:10408000C3F308035360E28C92B2013A92B2E28425
:10409000E38C9BB28BB100963B46002280212046E8
:1040A000FFF74EFFD8B9002DE7D015F8012B236894
:1040B0005A60E8E7A8460025EAE700963B4600225A
:1040C00040212046FFF73CFF58B9202384F84130B7
:1040D00000E0022002B0BDE8F0810120FAE70320F1
:1040E000F8E70320F6E7704708B50168CA6822F0D0
:1040F0004002CA60202280F84120FFF7F4FF002030
:1041000008BD704710B5446A23685A6994F8413075
:10411000DBB2212B10D023685A6902F0400294F8D8
:104120004230DBB2222B11D0636C43F01003636486
:104130002046FFF7E6FF10BD02F08002002AEAD019
:104140000023E3842046FFF743FEE4E7002AEBD098
:104150000023E3852046FFF74BFEE5E708B5406AFC
:104160000023C385C384FFF7CCFF08BD704790F8D8
:104170004230DBB2222B69D18368B3F5805F4FD028
:10418000826AB3F5805F04D0002B56D10369002BFF
:1041900053D103685B681370836A01338362C38DF4
:1041A0009BB2013B9BB2C385002B51D100B583B0BC
:1041B0000268D36823F02003D3600268D36823F435
:1041C0008073D3600268536923F001035361202395
:1041D00080F8423000234363036B012B33D100236B
:1041E0000363026802F10C0353E8003F23F010035D
:1041F0000C3242E800310029F3D103681A6812F04A
:10420000100F06D0002201921A6801925B68019398
:10421000019B818DFFF7AAFF002003B05DF804FB2E
:104220000269002AACD1826A03685B68C3F30803A1
:104230001380836A02338362B1E703685B6803F02B
:104240007F031370A8E7FDF7E7F9E5E70220704761
:104250000020704730B583B0044602681368D06808
:10426000516913F00F0505D113F0200F02D010F0A3
:10427000200F19D12DB111F0010119D110F4907F47
:1042800016D1216B01297DD013F0800F03D010F0DF
:10429000800F40F0188113F0400F03D010F0400F52
:1042A00040F0158103B030BD2046FFF760FFF9E70D
:1042B00013F0010F06D010F4807F03D0626C42F03F
:1042C0000102626413F0040F04D019B1626C42F071
:1042D0000202626413F0020F04D019B1626C42F062
:1042E0000402626413F0080F07D010F0200F00D111
:1042F00019B1626C42F008026264626C002AD1D08B
:1043000013F0200F02D010F0200F29D123685B6931
:1043100003F04003626C12F0080F00D163B3204633
:10432000FFF766FD23685B6913F0400F20D0226819
:1043300002F1140353E8003F23F04003143242E833
:1043400000310029F3D1E36B73B1634A5A63E06B28
:10435000FEF704FA0028A5D0E06B436B9847A1E76D
:104360002046FFF704FFD1E72046FFF7CAFE99E792
:104370002046FFF7C6FE95E72046FFF7C2FE002362
:1043800063648FE713F0100F3FF47EAF10F0100F4F
:104390003FF47AAF002301931368019353680193AC
:1043A000019B536913F0400F51D0E26B13685B68B7
:1043B0009BB2002B3FF476AFA18D99427FF672AF8E
:1043C000E3859369202B37D0226802F10C0353E870
:1043D000003F23F480730C3242E800310029F3D10E
:1043E000226802F1140353E8003F23F00103143262
:1043F00042E800310029F3D1226802F1140353E8A6
:10440000003F23F04003143242E800310029F3D189
:10441000202384F8423000232363226802F10C0336
:1044200053E8003F23F010030C3242E8003100292A
:10443000F3D1E06BFEF76FF902236363A18DE38D87
:104440009BB2C91A89B22046FFF790FE2AE7A18DD8
:10445000E38D9BB2C91A89B2E38D9BB2002B3FF466
:1044600021AF00293FF41EAF226802F10C0353E88C
:10447000003F23F490730C3242E800300028F3D15F
:10448000226802F1140353E8003F23F001031432C1
:1044900042E800300028F3D1202384F84230002382
:1044A0002363226802F10C0353E8003F23F010035A
:1044B0000C3242E800300028F3D102236363204627
:1044C000FFF754FEEEE62046FFF7C0FCEAE6204682
:1044D000FFF70AFEE6E600BF5D41000808B5406A46
:1044E00001234363036B012B02D0FDF789F808BD5C
:1044F000818D4908FFF73AFEF9E708B50346406A9F
:104500001B681B6813F0200F2BD10023C3850268A2
:1045100002F10C0353E8003F23F480730C3242E8AD
:1045200000310029F3D1026802F1140353E8003F7F
:1045300023F00103143242E800310029F3D102686C
:1045400002F1140353E8003F23F04003143242E821
:1045500000310029F3D1202380F84230036B012B76
:1045600007D000234363036B012B0FD0FDF754F8F2
:1045700008BD026802F10C0353E8003F23F010036A
:104580000C3242E800310029F3D1EAE7818DFFF7D0
:10459000EDFDEDE790F8413090F842001843704788
:1045A00081628285C28500234364222380F84230E1
:1045B000036923B10268D36843F48073D36002684F
:1045C000536943F0010353610268D36843F0200349
:1045D000D3600020704708B590F84230DBB2202B42
:1045E00008D149B10AB9012008BD00230363FFF7D0
:1045F000D7FFF9E70220F7E70120F5E730B583B0F0
:10460000044613468162828500254564222280F893
:104610004220C26B1F489062E26B1F48D062E26B7F
:104620001E481063E26B556320680A46011DE06B6B
:10463000FEF736F8019523681A6801925B680193CA
:10464000019B23695BB1226802F10C0353E8003F30
:1046500043F480730C3242E800310029F3D1226820
:1046600002F1140353E8003F43F00103143242E81F
:1046700000310029F3D1226802F1140353E8003F0E
:1046800043F04003143242E800310029F3D1002006
:1046900003B030BDFB440008DD44000805410008BC
:1046A00008B590F84230DBB2202B08D149B10AB9E5
:1046B000012008BD00230363FFF7A0FFF9E70220F4
:1046C000F7E70120F5E70000EFF3058393B9EFF377
:1046D000108393B90C4B1868022804D080B90A4B98
:1046E00001221A607047EFF31183002BF6D06FF0B0
:1046F000050070476FF0050070476FF005007047C8
:104700004FF0FF30704700BFD818002008B5EFF316
:104710000583B3B9EFF31083B3B90E4B1B68022BBB
:1047200008D0012B13D10B4B02221A6001F068FC58
:10473000002008BDEFF31182002AF2D06FF00500CF
:10474000F7E76FF00500F4E76FF00500F1E74FF0D1
:10475000FF30EEE7D8180020F0B587B000240494AD
:10476000EFF30584002C43D1EFF31083002B3FD1EE
:10477000334B1B68022B16D0002839D000238DF84C
:10478000173062B3156895B1936903B918235C1E9D
:10479000372C51D8546814F0010F4FD156694EB1DF
:1047A0004FEA960C08E0EFF311830BBBE4E70DF141
:1047B0001705E9E74FF0800C94682CB1D7685B2FA0
:1047C00002D9176907B1B6B914B14FF0FF340CE044
:1047D000D46894B914699CB14FF0FF3405E000240B
:1047E00018234FF0800C0DF11705012C0AD0ACB145
:1047F000049807B0F0BD0124F7E74FF0FF34F4E769
:104800000024F2E7146992680292019400930B4627
:104810006246294601F086FB0490E9E704AA01926A
:1048200000930B461FFA8CF2294601F0B5FB0128D4
:10483000DED000230493DBE70020DAE70020D8E78E
:10484000D818002008B5EFF30583A3B9EFF3108360
:10485000A3B90C4B1B68022B02D040B9002008BD45
:10486000EFF31183002BF8D06FF00500F7E701F0AC
:104870002BFD0020F3E76FF00500F0E76FF0050077
:10488000EDE700BFD818002070B5EFF30583002BCB
:104890004ED10446EFF310821346002A4BD1284A2A
:1048A0001268022A23D004B1636813F0010600D015
:1048B000012613F0080F40D17CB3A16811B1E36861
:1048C0004F2B1FD8C9B14FF0FF337BBB4EB3042031
:1048D00000F057FD05462DB104B124682146284655
:1048E00000F052FF2DB326B345F0010521E0EFF3B0
:1048F0001182002AD7D000251BE0E3687BB14FF07E
:10490000FF33E2E726B1042000F046FD0546E2E76A
:10491000012000F041FD0546DDE70023D5E7002337
:10492000D3E7012000F02DFD0546D4E70025D9E7A7
:104930000025284670BD0025FBE70025F9E700BFEC
:10494000D8180020034B0360034B0B6080231360D7
:10495000704700BF7C1800207C160020034B0360CA
:10496000034B0B604FF4807313607047DC1C002016
:10497000DC18002000F1080343604FF0FF32826032
:10498000C360036100230360704700230361704725
:1049900043684B609A688A60516099600861036857
:1049A00001330360704730B40D68B5F1FF3F11D09B
:1049B00000F108031C465B681A68AA42FAD96368CA
:1049C0004B6099608C60616008610368013303602B
:1049D00030BC70470469F2E70369416882688A6005
:1049E000416851605A68824206D0002202611A680A
:1049F000013A1A601868704782685A60F5E700004B
:104A000082B0002301930D4B1B68B3F1FF3F08D028
:104A10004FF0500383F31188BFF36F8FBFF34F8FB5
:104A2000FEE74FF0500383F31188BFF36F8FBFF39E
:104A30004F8F019B002BFCD002B070470C00002070
:104A400006480068006880F3088862B661B6BFF364
:104A50004F8FBFF36F8F00DF00BF000008ED00E055
:104A60004FF0807340F8043C21F0010140F8081C2D
:104A7000034B40F80C3C40F8202C4038704700BFF6
:104A8000014A0008000000000000000000000000D3
:104A9000074B19680868B0E8F00F80F30988BFF386
:104AA0006F8F4FF0000080F311884EF00D0E7047AD
:104AB000904800204FF0500383F31188BFF36F8FAD
:104AC000BFF34F8F0B4A136801331360012B00D0E3
:104AD00070474FF0E023D3F8043D13F0FF0FF7D0F9
:104AE0004FF0500383F31188BFF36F8FBFF34F8FE5
:104AF000FEE700BF0C000020094B1B6843B94FF0D4
:104B0000500383F31188BFF36F8FBFF34F8FFEE71E
:104B1000013B034A13600BB983F31188704700BF50
:104B20000C00002000000000000000000000000059
:104B3000EFF30980BFF36F8F0D4B1A6820E9F00F78
:104B400010602DE908404FF0500080F3118801F00B
:104B5000E1FB4FF0000080F31188BDE808401968C0
:104B60000868B0E8F00F80F30988BFF36F8F7047D3
:104B70009048002008B54FF0500383F31188BFF32D
:104B80006F8FBFF34F8F01F097FA28B14FF0E023FA
:104B90004FF08052C3F8042D002383F3118808BD21
:104BA0004FF0E022002313619361054B1B68054918
:104BB000A1FB03139B09013B53610723136170475A
:104BC00000000020D34D621010B582B02A4B1A7835
:104BD000D2B20192FF221A701B78DBB28DF803303B
:104BE0009DF8033003F05003244A1370244B07222E
:104BF0001A6009E0224A1368013B13609DF80330F4
:104C00005B00DBB28DF803309DF8033013F0800FAA
:104C1000F0D11B4B1B68032B08D04FF0500383F3DC
:104C20001188BFF36F8FBFF34F8FFEE71B02144A4B
:104C3000136003F4E0631360019BDBB20E4A137050
:104C40004FF0E023D3F8202D42F47002C3F8202D5A
:104C5000D3F8202D42F07042C3F8202DFFF7A0FFBB
:104C60000024084B1C60FFF7EBFE01F053FBFFF73D
:104C7000C7FE204602B010BD00E400E0381D002051
:104C80003C1D00200C000020EFF305830F2B0FD9F3
:104C9000114A9B5CDBB2114A12789A4208D94FF054
:104CA000500383F31188BFF36F8FBFF34F8FFEE77D
:104CB0004FF0E023D3F80C3D03F4E063084A126898
:104CC000934208D94FF0500383F31188BFF36F8FDD
:104CD000BFF34F8FFEE77047F0E300E0381D002080
:104CE0003C1D0020134A12F0070F1FD0D11D21F0E8
:104CF0000701C1F52B53383313440A460E480260AE
:104D0000002141601344083B23F007030B48036074
:104D100059601960991A51601360094B1960094B69
:104D20001960094B4FF000421A60704742F6F823B1
:104D3000E4E700BF441D002048480020401D00203B
:104D400044480020404800203C480020154B1A46AB
:104D50001B688342FBD3516802EB010C844509D0E8
:104D6000416800EB010C634509D00360904218D004
:104D7000106070474068014451601046F0E710B47D
:104D8000094C2468A3420AD05B6819444160136847
:104D90001B680360904200D0106010BC7047046034
:104DA000F8E7704748480020401D002070B50546D0
:104DB00001F074F9344B1B68A3B1344B1B681D42DE
:104DC0004AD135B1083515F0070F02D025F0070597
:104DD0000835002D42D02E4B1B68AB424DD32D4AD7
:104DE000146804E0FFF77EFFE7E722461C4663688D
:104DF000AB4202D22368002BF7D1234B1B68A3429E
:104E00003DD0166808362368136063685B1B102B5F
:104E100010D9601910F0070F08D04FF0500383F33A
:104E20001188BFF36F8FBFF34F8FFEE7436065605C
:104E3000FFF78CFF626816490B689B1A0B601649D6
:104E400009688B4201D214490B60104B1B68134355
:104E500063600023236002E0002600E0002601F0EA
:104E6000B7F916F0070F0CD04FF0500383F31188F9
:104E7000BFF36F8FBFF34F8FFEE70026EFE70026EB
:104E8000EDE7304670BD00BF401D00203C480020CB
:104E900040480020484800204448002080B338B5EE
:104EA0000446A0F1080550F8043C164A1268134263
:104EB00008D14FF0500383F31188BFF36F8FBFF316
:104EC0004F8FFEE750F8081C41B14FF0500383F3B9
:104ED0001188BFF36F8FBFF34F8FFEE723EA020302
:104EE00040F8043C01F0DAF854F8041C064A136850
:104EF0000B4413602846FFF729FF01F069F938BD1C
:104F0000704700BF3C480020404800200346406AEC
:104F100018B11B6B1868C0F13800704710B5044613
:104F2000FFF7C8FDA26BE36B9A4204D00024FFF7A1
:104F3000E3FD204610BD0124F9E710B50446FFF754
:104F4000B9FDA36B23B90124FFF7D6FD204610BDA0
:104F50000024F9E770B504461546866B026C5AB911
:104F600003681BB100200136A66370BD406801F0E4
:104F70004BFB00236360F6E76DB98068FBF7BCFB71
:104F8000226CA3681344A3606268934219D3236818
:104F9000A3602846E7E7C068FBF7AEFB226C5142EE
:104FA000E3689B1AE3602268934202D263680B4471
:104FB000E360022D01D00020D5E726B1013E00209C
:104FC000D1E72846CFE70020CDE708B50346026CBD
:104FD00062B10846D9681144D960D3F804C061456C
:104FE00001D31968D960D968FBF786FB08BD38B5CD
:104FF0000546FFF75FFD95F8454064B201E0013CCE
:1050000064B2002C0ADD6B6A43B105F1240001F0A3
:10501000FFF90028F3D001F08FFAF0E7FF2385F8BD
:105020004530FFF769FDFFF745FD95F8444064B250
:1050300001E0013C64B2002C0ADD2B6943B105F1AB
:10504000100001F0E5F90028F3D001F075FAF0E75F
:10505000FF2385F84430FFF74FFD38BD38B5E0B188
:105060000D460446FFF726FD2368E26B216C01FB29
:10507000023060600020A063A360013A02FB0133AC
:10508000E360FF2384F8443084F84530FDB9236998
:1050900063B9FFF731FD012038BD4FF0500383F3B2
:1050A0001188BFF36F8FBFF34F8FFEE704F110003D
:1050B00001F0AEF90028ECD04FF0E0234FF0805221
:1050C000C3F8042DBFF34F8FBFF36F8FE1E704F1F7
:1050D0001000FFF74FFC04F12400FFF74BFCD8E76A
:1050E00038B51D46049C0B4649B92460E06323642F
:1050F00001212046FFF7B2FF84F84C5038BD2260F2
:10510000F4E740B94FF0500383F31188BFF36F8F7A
:10511000BFF34F8FFEE710B584B01C46844653B1F1
:1051200092B189B94FF0500383F31188BFF36F8FA9
:10513000BFF34F8FFEE74FF0500383F31188BFF3A7
:105140006F8FBFF34F8FFEE76AB150230393039B2A
:10515000502B13D04FF0500383F31188BFF36F8FA0
:10516000BFF34F8FFEE70029EFD04FF0500383F3DA
:105170001188BFF36F8FBFF34F8FFEE7012384F8D1
:10518000463000949DF818306046FFF7A9FF20468E
:1051900004B010BD40B94FF0500383F31188BFF342
:1051A0006F8FBFF34F8FFEE7F0B583B00C46154607
:1051B0000746A1B101FB00F05030FFF7F7FD0646AE
:1051C00050B1002380F8463000902B4600F1500289
:1051D00021463846FFF784FF304603B0F0BD08464D
:1051E000EAE7F0B585B0019288B10F461D46044646
:1051F000B1B1022D20D1E36B012B1DD04FF0500334
:1052000083F31188BFF36F8FBFF34F8FFEE74FF02B
:10521000500383F31188BFF36F8FBFF34F8FFEE707
:10522000036C002BE5D04FF0500383F31188BFF3DC
:105230006F8FBFF34F8FFEE701F08AF9064658B92A
:10524000019B002B48D04FF0500383F31188BFF32C
:105250006F8FBFF34F8FFEE700263DE02A463946A9
:105260002046FFF777FE636A7BB948B14FF0E02331
:105270004FF08052C3F8042DBFF34F8FBFF36F8FF1
:10528000FFF73AFC012005B0F0BD04F1240001F065
:10529000BFF80028F4D04FF0E0234FF08052C3F85D
:1052A000042DBFF34F8FBFF36F8FE9E7FFF724FCA7
:1052B0000020E8E702A801F0F1F8012619E0002338
:1052C00084F8443021E0002384F8453023E0204670
:1052D000FFF78DFE00F07CFFFFF7ECFBA26BE36BAA
:1052E0009A42BBD3022DB9D0019B002BDED0002EF9
:1052F000E0D0FFF701FC00F0D1FEFFF7DBFB94F8F4
:10530000442052B2B2F1FF3FD9D094F8452052B2B6
:10531000B2F1FF3FD7D0FFF7EFFB01A902A801F0E0
:10532000C9F8D8B92046FFF7F9FD0028CFD0019978
:1053300004F1100001F038F82046FFF758FE00F0A5
:1053400047FF0028C8D14FF0E0234FF08052C3F848
:10535000042DBFF34F8FBFF36F8FBDE72046FFF7DC
:1053600046FE00F035FF00208DE748B108B500216A
:1053700041600160C1600B460A46FFF732FF08BD7D
:10538000704710B5024600210120FFF703FF0446D5
:10539000FFF7EBFF204610BD10B582B00B46009022
:1053A000002211460120FFF7ACFE0446FFF7DDFFA7
:1053B000204602B010BD2DE9F84390B10F461646C5
:1053C0001C460546B1B1022C20D1EB6B012B1DD040
:1053D0004FF0500383F31188BFF36F8FBFF34F8FEC
:1053E000FEE74FF0500383F31188BFF36F8FBFF3D5
:1053F0004F8FFEE7036C002BE5D04FF0500383F393
:105400001188BFF36F8FBFF34F8FFEE7FFF73CFCB0
:10541000EFF311894FF0500383F31188BFF36F8FBF
:10542000BFF34F8FAA6BEB6B9A4206D3022C04D0CA
:10543000002089F31188BDE8F88395F845804FFA7C
:1054400088F8224639462846FFF784FDB8F1FF3F29
:1054500006D008F101035BB285F845300120E8E78A
:105460006B6A0BB90120E4E705F1240000F0D0FFDE
:1054700018B126B101203060DBE70120D9E7012017
:10548000D7E7F0B585B0019290B10F460446C1B19F
:1054900001F05EF8064600BB019B002B5ED04FF08A
:1054A000500383F31188BFF36F8FBFF34F8FFEE775
:1054B0004FF0500383F31188BFF36F8FBFF34F8F0B
:1054C000FEE7036C002BE3D04FF0500383F3118809
:1054D000BFF36F8FBFF34F8FFEE700263EE03946E4
:1054E0002046FFF772FD013DA563236923B9FFF74D
:1054F00003FB012005B0F0BD04F1100000F088FFAF
:105500000028F4D04FF0E0234FF08052C3F8042D70
:10551000BFF34F8FBFF36F8FE9E7FFF7EDFA00207E
:10552000E8E702A800F0BAFF012621E0002384F892
:10553000443029E0002384F845302BE02046FFF773
:1055400056FD00F045FE09E02046FFF750FD00F053
:105550003FFE2046FFF7F1FC00283FD1FFF7AAFAF3
:10556000A56B002DBBD1019B002BD6D0002ED8D02F
:10557000FFF7C2FA00F092FDFFF79CFA94F844306E
:105580005BB2B3F1FF3FD1D094F845305BB2B3F1D9
:10559000FF3FCFD0FFF7B0FA01A902A800F08AFFC1
:1055A0000028D1D12046FFF7C8FC0028C6D00199B9
:1055B00004F1240000F0F8FE2046FFF718FD00F08B
:1055C00007FE0028CAD14FF0E0234FF08052C3F805
:1055D000042DBFF34F8FBFF36F8FBFE7002089E724
:1055E00070B584B0019158B10446036C8BB14FF093
:1055F000500383F31188BFF36F8FBFF34F8FFEE724
:105600004FF0500383F31188BFF36F8FBFF34F8FB9
:10561000FEE700F09DFF054650B9019B5BB14FF0DE
:10562000500383F31188BFF36F8FBFF34F8FFEE7F3
:105630000026354655E0064653E0013BA363236848
:105640003BB123694BB9FFF757FA0126304604B046
:1056500070BD01F071F86060F3E704F1100000F034
:10566000D7FE0028EFD04FF0E0234FF08052C3F870
:10567000042DBFF34F8FBFF36F8FE4E746B14FF0B8
:10568000500383F31188BFF36F8FBFF34F8FFEE793
:10569000FFF732FADAE702A800F000FF01252AE05E
:1056A000002384F8443032E0002384F8453034E0AD
:1056B000FFF700FA606800F05BFF0646FFF71CFA90
:1056C0003BE02046FFF793FC00F082FD09E0204616
:1056D000FFF78DFC00F07CFD2046FFF72EFC002834
:1056E00042D1FFF7E7F9A36B002BA6D1019B002B5A
:1056F000C4D0002DCFD0FFF7FFF900F0CFFCFFF7AB
:10570000D9F994F844305BB2B3F1FF3FC8D094F8B4
:1057100045305BB2B3F1FF3FC6D0FFF7EDF901A909
:1057200002A800F0C7FE0028D1D12046FFF705FCF3
:105730000028C6D02368002BBAD0019904F12400B8
:1057400000F032FE2046FFF752FC00F041FD002839
:10575000C7D14FF0E0234FF08052C3F8042DBFF3C0
:105760004F8FBFF36F8FBCE70EB900266EE7FFF7D0
:10577000A1F92046FFF7CAFB0146606800F08CFFE4
:10578000FFF7BAF9F1E700000023072B0CD8074A0E
:1057900052F833200AB10133F7E7044A42F83310D4
:1057A00002EBC30358607047704700BF50480020A9
:1057B00070B504460D461646FFF77CF994F8443060
:1057C0005BB2B3F1FF3F0DD094F845305BB2B3F15B
:1057D000FF3F0BD0FFF790F9A36B5BB12046FFF7BB
:1057E00006FC70BD002384F84430EDE7002384F804
:1057F0004530EFE73246294604F1240000F0ECFD85
:10580000ECE78268436813440068181A824200D8A3
:10581000801A7047F8B507460C4616461D465521B6
:10582000204601F03DFB844208D04FF0500383F343
:105830001188BFF36F8FBFF34F8FFEE72422002143
:10584000384601F02DFBBC61BE60FD60069B0BB1CC
:1058500001233B77F8BD42B94FF0500383F3118821
:10586000BFF36F8FBFF34F8FFEE72DE9F041044682
:105870000E461746D0F804808368A3EB08059542CE
:1058800028BF154608EB0502934208D24FF050039B
:1058900083F31188BFF36F8FBFF34F8FFEE78069EB
:1058A0002A464044FAF728FFAF4210D97A1BA36872
:1058B0009A4208D94FF0500383F31188BFF36F8FDA
:1058C000BFF34F8FFEE77119A069FAF715FF07EBD9
:1058D0000803A2689A4200D89B1A63603846BDE864
:1058E000F08130B583B00546019218466BB10C4685
:1058F0002B7F13F0010F0AD1904228BF1046019070
:10590000019A21462846FFF7A6FF03B030BD069B4B
:10591000984201D20020F8E704220DEB020128464C
:10592000FFF799FFECE72DE9F843934228BF1346B0
:105930001C46002B42D0074688461646D0F80090F9
:105940008368A3EB0905A54228BF2546AA4208D2D1
:105950004FF0500383F31188BFF36F8FBFF34F8F66
:10596000FEE709EB0502934208D24FF0500383F3A0
:105970001188BFF36F8FBFF34F8FFEE781692A460F
:1059800049444046FAF7B8FEAC4210D9A64208D2C4
:105990004FF0500383F31188BFF36F8FBFF34F8F26
:1059A000FEE7621BB96908EB0500FAF7A5FE04EBF8
:1059B0000903BA689A4200D89B1A3B602046BDE8AA
:1059C000F8832DE9F04383B005460E4617461C4682
:1059D000DDF82880B8F1000F09D101922346019A21
:1059E00031462846FFF79FFF03B0BDE8F083D0F8AB
:1059F0000090424601A9FFF796FFA4EB0804019B23
:105A0000BB42EBD9C5F8009000230193E6E70428D8
:105A100008D84FF0500383F31188BFF36F8FBFF3A3
:105A20004F8FFEE7F0B583B00C461546884208D28A
:105A30004FF0500383F31188BFF36F8FBFF34F8F85
:105A4000FEE701B90124471C2530FFF7AFF90646F0
:105A500030B1009523463A4600F12401FFF7DAFE03
:105A6000304603B0F0BD034648B182680068104478
:105A70005B68C01A0138824200D8801A70474FF024
:105A8000500383F31188BFF36F8FBFF34F8FFEE78F
:105A9000F1B12DE9F04182B0044615461E460F468D
:105AA000F8B1037F13F0010F24D002F1040820465F
:105AB000FFF7D9FF0346CDF800802A463946204635
:105AC000FFF70FFF0546B8B9284602B0BDE8F081E0
:105AD0004FF0500383F31188BFF36F8FBFF34F8FE5
